0139766800999992020010115004+19400-099183FM-12+230399999V0200501N001019999999N004000199+01461+00911101401ADDAY101021AY201021MA1999999077581MD1310111-0221MW1041REMSYN07676680 31940 00501 10146 20091 37758 40140 53011 70400 91450 333 30/// 59022=
0177766800999992020010118004+19400-099183FM-12+230399999V0200501N001019999999N006000199+02221+00981101071ADDAY101021AY201021KA1120M+02321KA2120N+01021MA1999999077411MD1710181-0301MW1041REMSYN08876680 31956 00501 10222 20098 37741 40107 57018 70400 91750 333 10232 20102 30/// 59030=
0221766800999992020010121004+19400-099183FM-12+230399999V0203201N003012200019N006000199+02331+01181100491ADDAY101021AY201021GA1011+060001001GE19MSL   +99999+99999GF101991011999060001999999MA1999999077151MD1710261+9999MW1041REMSYN09476680 31956 13203 10233 20118 37715 40049 57026 70400 80001 92050 333 30/// 56005 59013 81070=
0298766800999992020010200004+19400-099183FM-12+230399999V0201601N004012200019N010000199+02021+01011100421ADDAA124000091AY101021AY201021GA1011+008401081GA2999+999999021GE19MSL   +99999+99999GF103991011999008401999999KA1120M+02501KA2120N+01021MA1999999077271MD1210121+9999MW1041REMSYN11876680 31560 31604 10202 20101 37727 40042 52012 70400 81205 90000 333 10250 20102 30/// 50431 56505 59003 70000 81828=
0221766800999992020010203004+19400-099183FM-12+230399999V0201401N003012200019N006000199+01661+01051100531ADDAY101021AY201021GA1011+008401081GE19MSL   +99999+99999GF101991011999008401999999MA1999999077441MD1210171+9999MW1011REMSYN09476680 31556 11403 10166 20105 37744 40053 52017 70100 81100 90250 333 30/// 56500 59011 81828=
0200766800999992020010212004+19400-099183FM-12+230399999V0202301N002019999999N012000199+01381+00931100741ADDAA124000091AY101021AY201021KA1240M+02501KA2240N+01251MA1999999077221MD1710061+9999MW1041REMSYN10076680 31962 02302 10138 20093 37722 40074 57006 70400 91150 333 10250 20125 30012 55098 59025 70000=
0243766800999992020010215004+19400-099183FM-12+230399999V0201401N002012200019N012000199+01601+01071100951ADDAY141021AY201021GA1011+008401081GA2031+060001001GE19MSL   +99999+99999GF104991011999008401999999MA1999999077321MD1310101+9999MW1041REMSYN10076680 31562 41402 10160 20107 37732 40095 53010 70440 82104 91453 333 30/// 56505 59026 81828 83070=
0259766800999992020010218004+19400-099183FM-12+230399999V0202301N008012200019N015000199+01941+01111100811ADDAY141021AY201021GA1031+008401081GE19MSL   +99999+99999GF103991031999008401999999KA1120M+02061KA2120N+01021MA1999999077271MD1110051+9999MW1041REMSYN10676680 31565 32308 10194 20111 37727 40081 51005 70440 83100 91750 333 10206 20102 30/// 56500 59014 83828=
0243766800999992020010221004+19400-099183FM-12+230399999V0202201N00701008101CN015000199+01881+00931100471ADDAY121021AY221021GA1021+007501081GA2041+008101061GE19MSL   +99999+99999GF107991021999007501999999MA1999999077101MD1610171+9999MW1041REMSYN10076680 31565 72207 10188 20093 37710 40047 56017 70422 86230 92050 333 30/// 56550 59005 82825 84627=
0298766800999992020010300004+19400-099183FM-12+230399999V0201701N003019999999N015000199+01721+00851100411ADDAA124000091AY121021AY221021GA1041+008101061GA2999+999999051GE19MSL   +99999+99999GF105991041999008101999999KA1120M+02061KA2120N+01251MA1999999077111MD1810021+9999MW1041REMSYN11876680 31565 51703 10172 20085 37711 40041 58002 70422 84420 90000 333 10206 20125 30/// 50791 56550 59017 70000 84627=
0221766800999992020010303004+19400-099183FM-12+230399999V0202301N00201024001CN008000199+01561+00901100601ADDAY111021AY211021GA1051+024001031GE19MSL   +99999+99999GF105991051999024001999999MA1999999077281MD1210171+9999MW1021REMSYN09476680 31858 52302 10156 20090 37728 40060 52017 70211 85070 90250 333 30/// 56050 59016 85358=
0243766800999992020010315004+19400-099183FM-12+230399999V0203601N00101057001CN012000199+01181+00631101391ADDAY141021AY221021GA1021+024001031GA2051+057001021GE19MSL   +99999+99999GF107991021999024001999999MA1999999077561MD1310151+9999MW1041REMSYN10076680 31862 73601 10118 20063 37756 40139 53015 70442 82038 91450 333 30/// 56055 58024 82358 85269=
0259766800999992020010318004+19400-099183FM-12+230399999V0201401N003010570019N012000199+02021+00801101281ADDAY141021AY221021GA1071+057001021GE19MSL   +99999+99999GF107991071999057001999999KA1120M+02101KA2120N+00961MA1999999077511MD1990051+9999MW1041REMSYN10676680 31962 71403 10202 20080 37751 40128 50005 70442 80006 91751 333 10210 20096 30/// 56005 59024 87269=
0259766800999992020010321004+19400-099183FM-12+230399999V0202401N00401024001CN012000199+02181+00661100841ADDAY121021AY221021GA1021+007501061GA2041+024001031GA3999+999999021GE19MSL   +99999+99999GF108991021999007501999999MA1999999077311MD1710201+9999MW1041REMSYN10076680 31562 82404 10218 20066 37731 40084 57020 70422 82438 92050 333 30/// 56555 58021 82625 84358=
0304766800999992020010400004+19400-099183FM-12+230399999V0202501N00301060001CN005000199+01881+00681100841ADDAA124000091AY121021AY221021GA1031+024001031GA2051+060001021GE19MSL   +99999+99999GF108991031999024001999999KA1120M+02321KA2120N+00961MA1999999077451MD1210151+9999MW1041REMSYN12476680 31850 82503 10188 20068 37745 40084 52015 70422 83038 90000 333 10232 20096 30/// 50591 56055 58034 70000 83358 85270=
0221766800999992020010403004+19400-099183FM-12+230399999V0201501N002012200019N006000199+01591+00791101091ADDAY101021AY211021GA1031+024001041GE19MSL   +99999+99999GF103991031999024001999999MA1999999077731MD1210281+9999MW1011REMSYN09476680 31856 31502 10159 20079 37773 40109 52028 70101 83010 90250 333 30/// 56050 58045 83458=
0139766800999992020010415004+19400-099183FM-12+230399999V0202901N002019999999N002000199+00761+00581102431ADDAY141021AY201021MA1999999078171MD1210261+0611MW1041REMSYN07676680 31920 02902 10076 20058 37817 40243 52026 70440 91450 333 30/// 58061=
0221766800999992020010421004+19400-099183FM-12+230399999V0203201N002012200019N002000199+01761+00971101971ADDAY121021AY211021GA1041+060001001GE19MSL   +99999+99999GF104991041999060001999999MA1999999077871MD1710231+9999MW1051REMSYN09476680 31920 43202 10176 20097 37787 40197 57023 70521 80004 92050 333 30/// 56005 58056 84070=
0282766800999992020010500004+19400-099183FM-12+230399999V0200201N005012200019N004000199+01431+00821101941ADDAA124000091AY101021AY201021GA1041+060001001GE19MSL   +99999+99999GF104991041999060001999999KA1120M+01861KA2120N+00651MA1999999077971MD1310101+9999MW1051REMSYN11876680 31940 40205 10143 20082 37797 40194 53010 70500 80005 92350 333 10186 20065 30/// 50301 56005 58051 70000 84070=
0139766800999992020010503004+19400-099183FM-12+230399999V0203401N002019999999N005000199+01121+00581102141ADDAY101021AY201021MA1999999078201MD1210231+0441MW1041REMSYN07676680 31950 03402 10112 20058 37820 40214 52023 70400 90250 333 30/// 58044=
0200766800999992020010512004+19400-099183FM-12+230399999V0202301N001019999999N005000199+00521+00211102451ADDAA124000091AY101021AY201021KA1240M+01861KA2240N+00511MA1999999078171MD1210071+9999MW1041REMSYN10076680 31950 02301 10052 20021 37817 40245 52007 70400 91200 333 10186 20051 30003 55084 58026 70000=
0139766800999992020010515004+19400-099183FM-12+230399999V0209999C999999999999N010000199+00761+00291102861ADDAY101021AY201021MA1999999078261MD1210091+0091MW1041REMSYN07676680 31960 00000 10076 20029 37826 40286 52009 70400 91450 333 30/// 58009=
0177766800999992020010518004+19400-099183FM-12+230399999V0200501N001019999999N006000199+01551+00531102591ADDAY101021AY201021KA1120M+01651KA2120N+00491MA1999999078121MD1810141+0021MW1041REMSYN08876680 31956 00501 10155 20053 37812 40259 58014 70400 91750 333 10165 20049 30/// 58002=
0145766800999992020010521004+19400-099183FM-12+230399999V0203201N001019999999N006000199+02081+00671101901ADDAY101021AY201021MA1999999077811MD1710311+9999MW1051REMSYN08276680 31956 03201 10208 20067 37781 40190 57031 70500 92050 333 30/// 56005 59006=
0282766800999992020010600004+19400-099183FM-12+230399999V0202901N001012200019N006000199+02051+00561101501ADDAA124000091AY101021AY201021GA1011+060001001GE19MSL   +99999+99999GF101991011999060001999999KA1120M+02241KA2120N+00491MA1999999077771MD1510041+9999MW1051REMSYN11876680 31956 12901 10205 20056 37777 40150 55004 70500 80001 92350 333 10224 20049 30/// 50391 56005 59020 70000 81070=
0139766800999992020010615004+19400-099183FM-12+230399999V0200501N001019999999N004000199+00921+00191102241ADDAY141021AY201021MA1999999077961MD1310071-0301MW1041REMSYN07676680 31940 00501 10092 20019 37796 40224 53007 70440 91450 333 30/// 59030=
0183766800999992020010618004+19400-099183FM-12+230399999V0200501N001019999999N003000199+01821+00931102021ADDAY141021AY201021KA1120M+01901KA2120N+00581MA1999999077851MD1810111+9999MW1041REMSYN09476680 31930 00501 10182 20093 37785 40202 58011 70440 91750 333 10190 20058 30/// 56330 59027=
0139766800999992020010621004+19400-099183FM-12+230399999V0200901N002019999999N003000199+02371+01221101341ADDAY101021AY201021MA1999999077541MD1710311-0271MW1041REMSYN07676680 31930 00902 10237 20122 37754 40134 57031 70400 92050 333 30/// 59027=
0282766800999992020010700004+19400-099183FM-12+230399999V0202501N002012200019N003000199+02301+00591101031ADDAA124000091AY121021AY201021GA1041+060001001GE19MSL   +99999+99999GF104991041999060001999999KA1120M+02531KA2120N+00581MA1999999077571MD1310031+9999MW1041REMSYN11876680 31930 42502 10230 20059 37757 40103 53003 70420 80001 90000 333 10253 20058 30/// 50521 56001 59020 70000 84070=
0209766800999992020010703004+19400-099183FM-12+230399999V0203001N001019999999N006000199+01661+00441101091ADDAY101021AY201021GA1001+999999999GE19MSL   +99999+99999GF199999001999999999999999MA1999999077801MD1210231-0111MW1001REMSYN08276680 31956 03001 10166 20044 37780 40109 52023 70000 80000 90300 333 30/// 59011=
0189766800999992020010706004+19400-099183FM-12+230399999V0202701N002019999999N010000199+01361+00761101211ADDAY101021AY201021KA1240M+02531KA2240N+00581MA1999999077871MD1210071+9999MW1041REMSYN10076680 31960 02702 10136 20076 37787 40121 52007 70400 90555 333 10253 20058 30/// 55094 21673 59007=
0139766800999992020010709004+19400-099183FM-12+230399999V0209999C999999999999N008000199+01181+00691101351ADDAY101021AY201021MA1999999077821MD1710051-0141MW1041REMSYN07676680 31958 00000 10118 20069 37782 40135 57005 70400 90855 333 30/// 59014=
0139766800999992020010715004+19400-099183FM-12+230399999V0203201N003019999999N015000199+01081+00471102161ADDAY141021AY201021MA1999999078061MD1310211-0101MW1041REMSYN07676680 31965 03203 10108 20047 37806 40216 53021 70440 91450 333 30/// 59010=
0259766800999992020010718004+19400-099183FM-12+230399999V0203601N004012200019N010000199+01561+00481102131ADDAY141021AY201021GA1031+060001011GE19MSL   +99999+99999GF103991031999060001999999KA1120M+01621KA2120N+00841MA1999999078021MD1810041+9999MW1041REMSYN10676680 31960 33604 10156 20048 37802 40213 58004 70440 80009 91750 333 10162 20084 30/// 56005 58017 83170=
0282766800999992020010800004+19400-099183FM-12+230399999V0201901N003012200019N008000199+01671+00221101511ADDAA124000091AY121021AY201021GA1041+060001021GE19MSL   +99999+99999GF104991041999060001999999KA1120M+02111KA2120N+00841MA1999999077801MD1310011+9999MW1041REMSYN11876680 31958 41903 10167 20022 37780 40151 53001 70420 80005 90000 333 10211 20084 30/// 50601 56005 58023 70000 84270=
0221766800999992020010803004+19400-099183FM-12+230399999V0201401N003010600019N008000199+01161+00491101681ADDAY121021AY201021GA1081+060001021GE19MSL   +99999+99999GF108991081999060001999999MA1999999077981MD1210181+9999MW1041REMSYN09476680 31958 81403 10116 20049 37798 40168 52018 70420 80005 90300 333 30/// 56005 58018 88270=
0139766800999992020010815004+19400-099183FM-12+230399999V0203601N001019999999N003000199+00801+00471102541ADDAY141021AY201021MA1999999078051MD1310031-0011MW1041REMSYN07676680 31930 03601 10080 20047 37805 40254 53003 70440 91450 333 30/// 59001=
0177766800999992020010818004+19400-099183FM-12+230399999V0201801N001019999999N002000199+01621+00881102271ADDAY101021AY201021KA1120M+01721KA2120N+00561MA1999999077911MD1610061-0011MW1051REMSYN08876680 31920 01801 10162 20088 37791 40227 56006 70500 91750 333 10172 20056 30/// 59001=
0221766800999992020010821004+19400-099183FM-12+230399999V0200701N002012200019N002000199+02121+01111101581ADDAY101021AY201021GA1011+008401011GE19MSL   +99999+99999GF101991011999008401999999MA1999999077611MD1610061+9999MW1051REMSYN09476680 31520 10702 10212 20111 37761 40158 56006 70500 81100 92050 333 30/// 56300 59001 81128=
0282766800999992020010900004+19400-099183FM-12+230399999V0201201N001012200019N008000199+02101+00571101181ADDAA124000091AY121021AY201021GA1011+060001011GE19MSL   +99999+99999GF101991011999060001999999KA1120M+02361KA2120N+00561MA1999999077571MD1710041+9999MW1041REMSYN11876680 31958 11201 10210 20057 37757 40118 57004 70420 80009 90000 333 10236 20056 30/// 50411 56001 59023 70000 81170=
0209766800999992020010903004+19400-099183FM-12+230399999V0202601N004019999999N008000199+01451+00491101211ADDAY101021AY201021GA1001+999999999GE19MSL   +99999+99999GF199999001999999999999999MA1999999077761MD1210191-0221MW1041REMSYN08276680 31958 02604 10145 20049 37776 40121 52019 70400 80000 90300 333 30/// 59022=
0189766800999992020010906004+19400-099183FM-12+230399999V0202701N001019999999N010000199+01261+00681101281ADDAY101021AY201021KA1240M+02361KA2240N+00561MA1999999077811MD1110051+9999MW1041REMSYN10076680 31960 02701 10126 20068 37781 40128 51005 70400 90555 333 10236 20056 30/// 55096 21673 59007=
0194766800999992020010912004+19400-099183FM-12+230399999V0209999C999999999999N006000199+00901+00541101571ADDAA124000091AY101021AY201021KA1240M+02361KA2240N+00871MA1999999077671MD1510041-0351MW1041REMSYN09476680 31956 00000 10090 20054 37767 40157 55004 70400 91150 333 10236 20087 30007 59035 70000=
0139766800999992020010915004+19400-099183FM-12+230399999V0201401N001019999999N003000199+01061+00611102001ADDAY141021AY201021MA1999999077861MD1310191-0181MW1041REMSYN07676680 31930 01401 10106 20061 37786 40200 53019 70440 91450 333 30/// 59018=
0177766800999992020010918004+19400-099183FM-12+230399999V0200501N001019999999N002000199+01921+01051101731ADDAY101021AY201021KA1120M+02051KA2120N+00801MA1999999077721MD1610011-0011MW1051REMSYN08876680 31920 00501 10192 20105 37772 40173 56001 70500 91750 333 10205 20080 30/// 59001=
0221766800999992020010921004+19400-099183FM-12+230399999V0200701N002012200019N004000199+02281+00901101091ADDAY101021AY201021GA1011+007501011GE19MSL   +99999+99999GF101991011999007501999999MA1999999077421MD1610021+9999MW1051REMSYN09476680 31540 10702 10228 20090 37742 40109 56002 70500 81100 92050 333 30/// 56300 59001 81125=
0139766800999992020011015004+19400-099183FM-12+230399999V0200601N001019999999N001200199+01241+00661101791ADDAY141021AY201021MA1999999077761MD1310121-0101MW1041REMSYN07676680 31912 00601 10124 20066 37776 40179 53012 70440 91450 333 30/// 59010=
0177766800999992020011018004+19400-099183FM-12+230399999V0200501N002019999999N003000199+02001+01151101531ADDAY101021AY201021KA1120M+02101KA2120N+00861MA1999999077611MD1610011-0011MW1051REMSYN08876680 31930 00502 10200 20115 37761 40153 56001 70500 91750 333 10210 20086 30/// 59001=
0221766800999992020011021004+19400-099183FM-12+230399999V0200301N001012200019N008000199+02401+01281100861ADDAY101021AY201021GA1011+007501081GE19MSL   +99999+99999GF101991011999007501999999MA1999999077311MD1610011+9999MW1051REMSYN09476680 31558 10301 10240 20128 37731 40086 56001 70500 81100 92050 333 30/// 56500 59001 81825=
0304766800999992020011100004+19400-099183FM-12+230399999V0202501N00501060001CN012000199+02021+01101100681ADDAA124000091AY121021AY201021GA1011+008101081GA2061+060001001GE19MSL   +99999+99999GF107991011999008101999999KA1120M+02561KA2120N+00861MA1999999077381MD1210071+9999MW1041REMSYN12476680 31562 72505 10202 20110 37738 40068 52007 70420 81201 90000 333 10256 20086 30/// 5//// 56505 59009 70000 81827 86070=
0189766800999992020011106004+19400-099183FM-12+230399999V0202301N002019999999N018000199+01461+00711100941ADDAY101021AY201021KA1240M+02561KA2240N+00861MA1999999077661MD1110091+9999MW1041REMSYN10076680 31968 02302 10146 20071 37766 40094 51009 70400 90555 333 10256 20086 30/// 55103 21731 58006=
0259766800999992020011118004+19400-099183FM-12+230399999V0200501N002012200019N003000199+01981+01091101641ADDAY141021AY201021GA1011+060001001GE19MSL   +99999+99999GF103991011999060001999999KA1120M+02051KA2120N+00901MA1999999077731MD1810111+9999MW1041REMSYN10676680 31930 30502 10198 20109 37773 40164 58011 70440 80001 91750 333 10205 20090 30/// 56007 58012 81070=
0221766800999992020011215004+19400-099183FM-12+230399999V0209999C999992200019N003000199+01241+00751101881ADDAY101021AY201021GA1031+060001021GE19MSL   +99999+99999GF103991031999060001999999MA1999999077851MD1210171+9999MW1041REMSYN09476680 31930 30000 10124 20075 37785 40188 52017 70400 80005 91450 333 30/// 56005 58001 83270=
0259766800999992020011218004+19400-099183FM-12+230399999V0200501N001010600019N003000199+01831+01001101741ADDAY111021AY211021GA1061+060001021GE19MSL   +99999+99999GF106991061999060001999999KA1120M+01921KA2120N+00941MA1999999077781MD1810071+9999MW1051REMSYN10676680 31930 60501 10183 20100 37778 40174 58007 70511 80005 91750 333 10192 20094 30/// 56005 58005 86270=
0221766800999992020011221004+19400-099183FM-12+230399999V0200501N001012200019N005000199+02381+01011101131ADDAY111021AY201021GA1031+060001001GE19MSL   +99999+99999GF103991031999060001999999MA1999999077481MD1710301+9999MW1051REMSYN09476680 31950 30501 10238 20101 37748 40113 57030 70510 80004 92045 333 30/// 56007 58005 83070=
0317766800999992020011300004+19400-099183FM-12+230399999V0203201N001012200019N006000199+02221+01051100831ADDAA124000091AY101021AY201021GA1011+008401081GA2999+999999001GE19MSL   +99999+99999GF102991011999008401999999KA1120M+02531KA2120N+00941MA1999999077471MD1790309+9999MW1041REMSYN11876680 31556 23201 10222 20105 37747 40083 54001 70400 81201 92350 333 10253 20094 30/// 5//// 56505 58010 70000 81828=EQDQ01.1    3APC3  
0139766800999992020011303004+19400-099183FM-12+230399999V0202901N004019999999N006000199+01661+00871100991ADDAY101021AY201021MA1999999077731MD1210261+0211MW1041REMSYN07676680 31956 02904 10166 20087 37773 40099 52026 70400 90245 333 30/// 58021=
0141766800999992020011306004+19400-099183FM-12+230399999V0202701N001019999999N009000199+01391+00781101091ADDMA1999999077781MD1110051+9999REMSYN10076680 31959 02701 10139 20078 37778 40109 51005 704 90555 333 3 10253 20094 30/// 55092 21528 58017=
0139766800999992020011309004+19400-099183FM-12+230399999V0209999C999999999999N007000199+01211+00741101161ADDAY101021AY201021MA1999999077671MD1710111+0071MW1041REMSYN07676680 31957 00000 10121 20074 37767 40116 57011 70400 90855 333 30/// 58007=
0139766800999992020011315004+19400-099183FM-12+230399999V0209999C999999999999N006000199+01281+00781101911ADDAY141021AY201021MA1999999077901MD1310191+0051MW1041REMSYN07676680 31956 00000 10128 20078 37790 40191 53019 70440 91450 333 30/// 58005=
0200766800999992020011400004+19400-099183FM-12+230399999V0200301N001019999999N005000199+02211+01171100951ADDAA124000091AY101021AY201021KA1120M+02461KA2120N+00901MA1999999077591MD1510011+9999MW1041REMSYN10076680 31950 00301 10221 20117 37759 40095 55001 70400 92350 333 10246 20090 30/// 50451 58012 70000=
0221766800999992020011415004+19400-099183FM-12+230399999V0202001N001012200019N003000199+01261+00971101851ADDAY141021AY201021GA1011+060001001GE19MSL   +99999+99999GF101991011999060001999999MA1999999077881MD1310161+9999MW1041REMSYN09476680 31930 12001 10126 20097 37788 40185 53016 70440 80001 91450 333 30/// 56007 59002 81070=
0177766800999992020011418004+19400-099183FM-12+230399999V0201201N001019999999N002000199+01981+01261101711ADDAY101021AY201021KA1120M+02051KA2120N+00961MA1999999077821MD1610011-0021MW1051REMSYN08876680 31920 01201 10198 20126 37782 40171 56001 70500 91750 333 10205 20096 30/// 59002=
0221766800999992020011421004+19400-099183FM-12+230399999V0201401N002012200019N004000199+02521+01681101041ADDAY101021AY201021GA1011+008401081GE19MSL   +99999+99999GF101991011999008401999999MA1999999077491MD1610031+9999MW1051REMSYN09476680 31540 11402 10252 20168 37749 40104 56003 70500 81100 92050 333 30/// 56300 59001 81828=
0282766800999992020011500004+19400-099183FM-12+230399999V0201101N004012200019N008000199+02231+01121100771ADDAA124000091AY121021AY201021GA1021+008101081GE19MSL   +99999+99999GF102991021999008101999999KA1120M+02621KA2120N+00961MA1999999077501MD1310011+9999MW1041REMSYN11876680 31558 21104 10223 20112 37750 40077 53001 70420 82200 90000 333 10262 20096 30/// 50651 56100 59009 70000 82827=
0189766800999992020011506004+19400-099183FM-12+230399999V0203201N002019999999N009000199+01551+01061100891ADDAY101021AY201021KA1240M+02621KA2240N+00961MA1999999077701MD1990001+9999MW1041REMSYN10076680 31959 03202 10155 20106 37770 40089 50000 70400 90555 333 10262 20096 30/// 55094 21637 59010=
0139766800999992020011509004+19400-099183FM-12+230399999V0209999C999999999999N007000199+01351+01051101001ADDAY101021AY201021MA1999999077631MD1710071-0101MW1041REMSYN07676680 31957 00000 10135 20105 37763 40100 57007 70400 90855 333 30/// 59010=
0221766800999992020011515004+19400-099183FM-12+230399999V0201401N001012200019N002000199+01301+01051101651ADDAY141021AY201021GA1031+060001001GE19MSL   +99999+99999GF103991031999060001999999MA1999999077791MD1310141+9999MW1041REMSYN09476680 31920 31401 10130 20105 37779 40165 53014 70440 80001 91450 333 30/// 56005 59009 83070=
0259766800999992020011518004+19400-099183FM-12+230399999V0200501N001012200019N002000199+01921+01291101531ADDAY101021AY201021GA1011+007501081GE19MSL   +99999+99999GF101991011999007501999999KA1120M+02051KA2120N+01101MA1999999077731MD1610011+9999MW1051REMSYN10676680 31520 10501 10192 20129 37773 40153 56001 70500 81100 91750 333 10205 20110 30/// 56300 59009 81825=
0237766800999992020011521004+19400-099183FM-12+230399999V0201801N003012200019N005000199+02481+01611100931ADDAY101021AY201021GA1011+008401081GA2999+999999001GE19MSL   +99999+99999GF103991011999008401999999MA1999999077431MD1610021+9999MW1051REMSYN09476680 31550 31803 10248 20161 37743 40093 56002 70500 82101 92050 333 30/// 56303 59006 81828=
0298766800999992020011600004+19400-099183FM-12+230399999V0201101N003012200019N008000199+02221+01021100671ADDAA124000091AY121021AY201021GA1021+008101081GA2999+999999001GE19MSL   +99999+99999GF103991021999008101999999KA1120M+02581KA2120N+01101MA1999999077421MD1510011+9999MW1041REMSYN11876680 31558 31103 10222 20102 37742 40067 55001 70420 82201 90000 333 10258 20110 30/// 50481 56505 59008 70000 82827=
0243766800999992020011603004+19400-099183FM-12+230399999V0203301N00201024001CN008000199+01751+00981100821ADDAY101021AY201021GA1021+008101081GA2031+024001041GE19MSL   +99999+99999GF105991021999008101999999MA1999999077661MD1210241+9999MW1041REMSYN10076680 31558 53302 10175 20098 37766 40082 52024 70400 82220 90300 333 30/// 56110 59004 82827 83458=
0221766800999992020011615004+19400-099183FM-12+230399999V0203201N00201006001CN002000199+01221+01061101801ADDAY141021AY201021GA1081+006001061GE19MSL   +99999+99999GF108991081999006001999999MA1999999077861MD1310181+9999MW1101REMSYN09476680 31520 83202 10122 20106 37786 40180 53018 71040 88600 91450 333 30/// 56500 58007 88620=
0281766800999992020011618004+19400-099183FM-12+230399999V0200201N001019999999N002000199+01801+01321101611ADDAY111021AY211021GA1021+007501081GA2031+060001001GE19MSL   +99999+99999GF105991021999007501999999KA1120M+01901KA2120N+01151MA1999999077741MD1610011+9999MW1051REMSYN11276680 31520 50201 10180 20132 37774 40161 56001 70511 82101 91750 333 10190 20115 30/// 56505 59001 82825 83070=
0221766800999992020011621004+19400-099183FM-12+230399999V0202301N00101008401CN002000199+02241+01491101071ADDAY111021AY211021GA1051+008401081GE19MSL   +99999+99999GF105991051999008401999999MA1999999077481MD1610011+9999MW1051REMSYN09476680 31520 52301 10224 20149 37748 40107 56001 70511 85100 92050 333 30/// 56500 58005 85828=
0304766800999992020011700004+19400-099183FM-12+230399999V0201901N00401024001CN008000199+02141+00711100821ADDAA124000091AY121021AY201021GA1021+008101081GA2031+024001041GE19MSL   +99999+99999GF105991021999008101999999KA1120M+02391KA2120N+01151MA1999999077471MD1310011+9999MW1041REMSYN12476680 31558 51904 10214 20071 37747 40082 53001 70420 82220 90000 333 10239 20115 30/// 50431 56550 58005 70000 82827 83458=
0243766800999992020011703004+19400-099183FM-12+230399999V0203001N00501024001CN006000199+01521+01011101051ADDAY121021AY201021GA1031+008101081GA2041+024001041GE19MSL   +99999+99999GF107991031999008101999999MA1999999077731MD1210261+9999MW1041REMSYN10076680 31556 73005 10152 20101 37773 40105 52026 70420 83220 90300 333 30/// 56330 58007 83827 84458=
0287766800999992020011706004+19400-099183FM-12+230399999V0202701N002012200019N004000199+01341+01021101171ADDAY111021AY201021GA1021+008101081GA2999+999999041GE19MSL   +99999+99999GF103991021999008101999999KA1240M+02391KA2240N+01151MA1999999077791MD1110061+9999MW1041REMSYN11876680 31540 32702 10134 20102 37779 40117 51006 70410 82110 90555 333 10239 20115 30/// 56550 55074 21317 58006 82827=
0221766800999992020011715004+19400-099183FM-12+230399999V0200201N001012200019N002000199+01241+00951101911ADDAY141021AY201021GA1031+060001001GE19MSL   +99999+99999GF103991031999060001999999MA1999999077881MD1310101+9999MW1041REMSYN09476680 31920 30201 10124 20095 37788 40191 53010 70440 80004 91450 333 30/// 56005 58002 83070=
0281766800999992020011718004+19400-099183FM-12+230399999V0200501N001019999999N002000199+01921+01161101751ADDAY111021AY211021GA1021+007501081GA2031+060001001GE19MSL   +99999+99999GF105991021999007501999999KA1120M+02001KA2120N+01001MA1999999077811MD1610011+9999MW1051REMSYN11276680 31520 50501 10192 20116 37781 40175 56001 70511 82101 91750 333 10200 20100 30/// 56505 58007 82825 83070=
0243766800999992020011721004+19400-099183FM-12+230399999V0201001N00301008401CN010000199+02221+01301101161ADDAY111021AY211021GA1021+007501061GA2051+008401081GE19MSL   +99999+99999GF107991021999007501999999MA1999999077521MD1610021+9999MW1051REMSYN10076680 31560 71003 10222 20130 37752 40116 56002 70511 87800 92050 333 30/// 56300 58004 82625 85828=
0298766800999992020011800004+19400-099183FM-12+230399999V0201801N004019999999N008000199+02121+01081100921ADDAA124000091AY121021AY221021GA1031+008101061GA2999+999999001GE19MSL   +99999+99999GF106991031999008101999999KA1120M+02351KA2120N+01001MA1999999077531MD1510011+9999MW1041REMSYN11876680 31558 61804 10212 20108 37753 40092 55001 70422 83401 90000 333 10235 20100 30/// 50441 56505 58006 70000 83627=
0221766800999992020011815004+19400-099183FM-12+230399999V0201801N001012200019N002000199+01361+00971101751ADDAY101021AY201021GA1021+060001001GE19MSL   +99999+99999GF102991021999060001999999MA1999999077831MD1210121+9999MW1041REMSYN09476680 31920 21801 10136 20097 37783 40175 52012 70400 80004 91445 333 30/// 56005 59005 82070=
0275766800999992020011818004+19400-099183FM-12+230399999V0203201N001012200019N002000199+02001+01041101571ADDAY101021AY201021GA1011+008401081GA2999+999999001GE19MSL   +99999+99999GF102991011999008401999999KA1120M+02061KA2120N+01071MA1999999077751MD1810081+9999MW1041REMSYN10676680 31520 23201 10200 20104 37775 40157 58008 70400 81101 91750 333 10206 20107 30/// 56505 59006 81828=
0243766800999992020011821004+19400-099183FM-12+230399999V0200501N00101060001CN003000199+02251+00821101031ADDAY111021AY221021GA1041+008401081GA2031+060001021GE19MSL   +99999+99999GF107991041999008401999999MA1999999077481MD1710271+9999MW1051REMSYN10076680 31530 70501 10225 20082 37748 40103 57027 70512 84204 92045 333 30/// 56505 59004 84828 83270=
0304766800999992020011900004+19400-099183FM-12+230399999V0200201N00301007501CN004000199+01801+01261100971ADDAA124000091AY121021AY221021GA1011+008101091GA2061+007501081GE19MSL   +99999+99999GF108991011999008101999999KA1120M+02351KA2120N+01071MA1999999077581MD1310101+9999MW1151REMSYN12476680 31540 80203 10180 20126 37758 40097 53010 71522 87902 90000 333 10235 20107 30/// 50311 56505 58005 70000 81927 86825=
0260766800999992020011903004+19400-099183FM-12+230399999V0200201N00101007501CN004000199+01341+01181101241ADDAA103000131AY121021AY221021GA1041+008101081GA2041+007501061GE19MSL   +99999+99999GF108991041999008101999999MA1999999077821MD1210241+9999MW1041REMSYN10676680 21540 80201 10134 20118 37782 40124 52024 70422 88800 90255 333 31/// 56500 58007 69917 84827 84625=
0293766800999992020011906004+19400-099183FM-12+230399999V0202701N00101024001CN010000199+01341+01121101381ADDAY111021AY221021GA1031+008401081GA2041+024001041GE19MSL   +99999+99999GF107991031999008401999999KA1240M+02351KA2240N+01071MA1999999077851MD1110031+9999MW1041REMSYN12476680 31560 72701 10134 20112 37785 40138 51003 70412 83110 90555 333 10235 20107 30/// 55076 21382 56550 58008 83828 84458=
0243766800999992020011909004+19400-099183FM-12+230399999V0203201N00101024001CN007000199+01291+01181101381ADDAY111021AY221021GA1041+008401081GA2041+024001041GE19MSL   +99999+99999GF108991041999008401999999MA1999999077701MD1710151+9999MW1041REMSYN10076680 31557 83201 10129 20118 37770 40138 57015 70412 84110 90855 333 30/// 56550 59005 84828 84458=
0298766800999992020011912004+19400-099183FM-12+230399999V0203201N00201024001CN006000199+01201+01011101691ADDAA124999132AY111021AY221021GA1041+008401081GA2041+024001041GE19MSL   +99999+99999GF108991041999008401999999KA1240M+02351KA2240N+01181MA1999999077791MD1310011+9999MW1041REMSYN11876680 31556 83202 10120 20101 37779 40169 53001 70412 84110 91150 333 10235 20118 30011 56550 58008 79991 84828 84458=
0243766800999992020011915004+19400-099183FM-12+230399999V0200201N00101008101CN003000199+01271+01031102001ADDAY121021AY221021GA1051+008101061GA2031+024001041GE19MSL   +99999+99999GF108991051999008101999999MA1999999077801MD1210211+9999MW1041REMSYN10076680 31530 80201 10127 20103 37780 40200 52021 70422 85220 91455 333 30/// 56110 58017 85627 83458=
0275766800999992020011918004+19400-099183FM-12+230399999V0203201N00101008101CN006000199+01441+01111101971ADDAY121021AY221021GA1061+008101061GA2999+999999051GE19MSL   +99999+99999GF108991061999008101999999KA1120M+01491KA2120N+01181MA1999999077981MD1810021+9999MW1021REMSYN10676680 31556 83201 10144 20111 37798 40197 58002 70222 86220 91750 333 10149 20118 30/// 56110 58023 86627=
0243766800999992020011921004+19400-099183FM-12+230399999V0200201N00301007501CN004000199+01561+01161101661ADDAY121021AY221021GA1051+007501061GA2031+024001041GE19MSL   +99999+99999GF108991051999007501999999MA1999999077781MD1710201+9999MW1151REMSYN10076680 31540 80203 10156 20116 37778 40166 57020 71522 85220 92050 333 30/// 56880 58030 85625 83458=
0198766800999992020012000004+19400-099183FM-12+230399999V0203201N002019999999N002000199+01211+01161101731ADDAA103002031AY151021AY221021GA1999+008001999GE19MSL   +99999+99999GF108991999999008001999999MA1999999077851MD1310071+9999MW1511REMSYN06076680 01520 83202 10121 20116 37785 40173 53007 60027 75152=
0260766800999992020012003004+19400-099183FM-12+230399999V0202801N00301007501CN002000199+01121+01021101971ADDAA103001031AY151021AY221021GA1021+006601071GA2031+007501061GE19MSL   +99999+99999GF108991021999006601999999MA1999999078021MD1210171+9999MW1501REMSYN10676680 21520 82803 10112 20102 37802 40197 52017 75052 85720 90250 333 32/// 56110 58020 60017 82722 83625=
0237766800999992020012015004+19400-099183FM-12+230399999V0203201N002019999999N010000199+01101+00901102471ADDAY141021AY201021GA1031+007501061GA2999+999999051GE19MSL   +99999+99999GF108991031999007501999999MA1999999078191MD1310171+9999MW1041REMSYN09476680 31560 83202 10110 20090 37819 40247 53017 70440 85420 91455 333 30/// 56111 58019 83625=
0217766800999992020012018004+19400-099183FM-12+230399999V0203201N002019999999N002000199+01081+00931102571ADDAA106000091AY111021AY211021GA1999+008001999GE19MSL   +99999+99999GF108991999999008001999999MA1999999078271MD1810011+9999MW1051REMSYN06076680 11520 83202 10108 20093 37827 40257 58001 69901 70511=EQDQ01  00002PRCP06
0243766800999992020012021004+19400-099183FM-12+230399999V0203201N00101008401CN002000199+01181+00921102191ADDAY111021AY211021GA1041+007501081GA2041+008401061GE19MSL   +99999+99999GF108991041999007501999999MA1999999078001MD1610011+9999MW1051REMSYN10076680 31520 83201 10118 20092 37800 40219 56001 70511 88800 92050 333 30/// 56100 58002 84825 84628=
0304766800999992020012100004+19400-099183FM-12+230399999V0202801N00201024001CN006000199+01181+00811102091ADDAA124001931AY121021AY201021GA1041+007501061GA2041+024001041GE19MSL   +99999+99999GF108991041999007501999999KA1120M+01281KA2120N+01001MA1999999077951MD1610051+9999MW1041REMSYN12476680 31556 82802 10118 20081 37795 40209 56005 70420 84420 90000 333 10128 20100 30/// 50041 56110 58010 70019 84625 84458=
0243766800999992020012103004+19400-099183FM-12+230399999V0203301N00301007501CN006000199+01101+00761102221ADDAY121021AY201021GA1051+007501061GA2031+024001041GE19MSL   +99999+99999GF108991051999007501999999MA1999999078061MD1210111+9999MW1041REMSYN10076680 31556 83303 10110 20076 37806 40222 52011 70420 85420 90300 333 30/// 56110 58004 85625 83458=
0280766800999992020012106004+19400-099183FM-12+230399999V0203201N00201008401CN014000199+00881+00671102261ADDAY111021AY221021GA1031+007501061GA2041+008401081GE19MSL   +99999+99999GF107991031999007501999999KA1240M+01281MA1999999078071MD1990011+9999MW1041REMSYN12476680 31564 73202 10088 20067 37807 40226 50001 70412 83400 90555 333 10128 20100 30/// 55000 20291 56500 58002 83625 84828=
0194766800999992020012112004+19400-099183FM-12+230399999V0209999C999999999999N008000199+00651+00561102241ADDAA124000431AY101021AY201021KA1240M+01281KA2240N+00651MA1999999077901MD1310021-0121MW1041REMSYN09476680 31958 00000 10065 20056 37790 40224 53002 70400 91150 333 10128 20065 30006 59012 70004=
0237766800999992020012115004+19400-099183FM-12+230399999V0209999C99999007501CN003000199+00681+00571102671ADDAY141021AY221021GA1061+007501061GA2999+999999051GE19MSL   +99999+99999GF108991061999007501999999MA1999999078141MD1310241+9999MW1051REMSYN09476680 31530 80000 10068 20057 37814 40267 53024 70542 86520 91450 333 30/// 56110 59005 86625=
0259766800999992020012118004+19400-099183FM-12+230399999V0203201N00101007501CN002000199+01181+00851102651ADDAY111021AY211021GA1051+007501081GE19MSL   +99999+99999GF105991051999007501999999KA1120M+01251KA2120N+00551MA1999999078121MD1810061+9999MW1051REMSYN10676680 31520 53201 10118 20085 37812 40265 58006 70511 85100 91750 333 10125 20055 30/// 56100 59001 85825=
0221766800999992020012121004+19400-099183FM-12+230399999V0200201N002012200019N002000199+01781+01031101192ADDAY111021AY201021GA1011+007501081GE19MSL   +99999+99999GF101991011999007501999999MA1999999077771MD1610011+9999MW1051REMSYN09476680 31520 10202 10178 20103 37777 40119 56001 70510 81100 92050 333 30/// 56100 59002 81825=
0282766800999992020012200004+19400-099183FM-12+230399999V0203101N001012200019N006000199+01761+00541101551ADDAA124000091AY121021AY201021GA1021+008101081GE19MSL   +99999+99999GF102991021999008101999999KA1120M+01971KA2120N+00551MA1999999077651MD1710121+9999MW1041REMSYN11876680 31556 23101 10176 20054 37765 40155 57012 70420 82200 90000 333 10197 20055 30/// 50281 56100 59030 70000 82827=
0221766800999992020012203004+19400-099183FM-12+230399999V0201301N00101024001CN006000199+01341+00661101551ADDAY121021AY201021GA1051+024001031GE19MSL   +99999+99999GF105991051999024001999999MA1999999077781MD1210131+9999MW1041REMSYN09476680 31856 51301 10134 20066 37778 40155 52013 70420 85030 90300 333 30/// 56050 59028 85358=
0139766800999992020012215004+19400-099183FM-12+230399999V0200501N001019999999N002000199+01081+00671101951ADDAY101021AY201021MA1999999077721MD1310021-0041MW1051REMSYN07676680 31920 00501 10108 20067 37772 40195 53002 70500 91450 333 30/// 59004=
0177766800999992020012218004+19400-099183FM-12+230399999V0200701N002019999999N003000199+01801+01051101681ADDAY101021AY201021KA1120M+01941KA2120N+00601MA1999999077591MD1610011+0051MW1051REMSYN08876680 31930 00702 10180 20105 37759 40168 56001 70500 91750 333 10194 20060 30/// 58005=
0221766800999992020012221004+19400-099183FM-12+230399999V0200201N002012200019N002000199+02181+01261101031ADDAY101021AY201021GA1011+007501081GE19MSL   +99999+99999GF101991011999007501999999MA1999999077301MD1610011+9999MW1051REMSYN09476680 31520 10202 10218 20126 37730 40103 56001 70500 81100 92050 333 30/// 56300 59004 81825=
0298766800999992020012300004+19400-099183FM-12+230399999V0202601N007019999999N012000199+01861+01121100751ADDAA124000091AY121021AY201021GA1041+008101081GA2999+999999051GE19MSL   +99999+99999GF105991041999008101999999KA1120M+02361KA2120N+00601MA1999999077311MD1310011+9999MW1041REMSYN11876680 31562 52607 10186 20112 37731 40075 53001 70420 84220 90000 333 10236 20060 30/// 50441 56110 59034 70000 84827=
0221766800999992020012303004+19400-099183FM-12+230399999V0203301N001012200019N006000199+01621+00751100851ADDAY121021AY201021GA1031+008101081GE19MSL   +99999+99999GF103991031999008101999999MA1999999077521MD1210211+9999MW1041REMSYN09476680 31556 33301 10162 20075 37752 40085 52021 70420 83200 90300 333 30/// 56500 59026 83827=
0276766800999992020012312004+19400-099183FM-12+230399999V0209999C999992200019N006000199+00991+00751101111ADDAA124000091AY101021AY211021GA1031+008401081GE19MSL   +99999+99999GF103991031999008401999999KA1240M+02361KA2240N+00961MA1999999077361MD1310021+9999MW1041REMSYN11276680 31556 30000 10099 20075 37736 40111 53002 70401 83100 91150 333 10236 20096 30009 56100 59031 70000 83828=
0243766800999992020012315004+19400-099183FM-12+230399999V0201801N001012200019N002000199+01261+00871101461ADDAY101021AY211021GA1011+007501081GA2031+024001031GE19MSL   +99999+99999GF104991011999007501999999MA1999999077531MD1310011+9999MW1051REMSYN10076680 31520 41801 10126 20087 37753 40146 53001 70501 81130 91450 333 30/// 56110 59001 81825 83358=
0281766800999992020012318004+19400-099183FM-12+230399999V0202701N00401008401CN003000199+01701+01041101401ADDAY111021AY211021GA1041+007501081GA2041+008401061GE19MSL   +99999+99999GF108991041999007501999999KA1120M+01791KA2120N+00901MA1999999077521MD1610031+9999MW1051REMSYN11276680 31530 82704 10170 20104 37752 40140 56003 70511 88800 91750 333 10179 20090 30/// 56100 58007 84825 84628=
0243766800999992020012321004+19400-099183FM-12+230399999V0203001N00301008401CN008000199+01801+01091100981ADDAY111021AY211021GA1031+007501081GA2031+008401061GE19MSL   +99999+99999GF108991031999007501999999MA1999999077301MD1610011+9999MW1051REMSYN10076680 31558 83003 10180 20109 37730 40098 56001 70511 86810 92050 333 30/// 56110 58000 83825 83628=
0304766800999992020012400004+19400-099183FM-12+230399999V0202601N00201007501CN012000199+01691+00611100801ADDAA124000091AY121021AY201021GA1051+007501061GA2031+024001041GE19MSL   +99999+99999GF108991051999007501999999KA1120M+01901KA2120N+00901MA1999999077291MD1510011+9999MW1041REMSYN12476680 31562 82602 10169 20061 37729 40080 55001 70420 85420 90000 333 10190 20090 30/// 50421 56110 59002 70000 85625 83458=
0221766800999992020012403004+19400-099183FM-12+230399999V0200101N00201024001CN008000199+01351+00811100961ADDAY121021AY201021GA1081+024001041GE19MSL   +99999+99999GF108991081999024001999999MA1999999077481MD1210191+9999MW1041REMSYN09476680 31858 80102 10135 20081 37748 40096 52019 70420 88020 90300 333 30/// 56010 59004 88458=
0243766800999992020012415004+19400-099183FM-12+230399999V0202801N00201008401CN004000199+01221+00891101621ADDAY111021AY211021GA1021+007501081GA2031+008401061GE19MSL   +99999+99999GF108991021999007501999999MA1999999077621MD1310011+9999MW1051REMSYN10076680 31540 82802 10122 20089 37762 40162 53001 70511 85810 91450 333 30/// 56110 58009 82825 83628=
0281766800999992020012418004+19400-099183FM-12+230399999V0201201N00201008401CN003000199+01661+01101101521ADDAY111021AY211021GA1031+007501081GA2031+008401061GE19MSL   +99999+99999GF108991031999007501999999KA1120M+01751KA2120N+01001MA1999999077601MD1610011+9999MW1051REMSYN11276680 31530 81202 10166 20110 37760 40152 56001 70511 86800 91750 333 10175 20100 30/// 56110 58008 83825 83628=
0243766800999992020012421004+19400-099183FM-12+230399999V0200901N00201008401CN015000199+01921+01261100991ADDAY111021AY211021GA1041+007501081GA2031+008401061GE19MSL   +99999+99999GF107991041999007501999999MA1999999077341MD1610011+9999MW1051REMSYN10076680 31565 70902 10192 20126 37734 40099 56001 70511 87800 92050 333 30/// 56100 58004 84825 83628=
0304766800999992020012500004+19400-099183FM-12+230399999V0202601N00301008101CN015000199+01821+00781100821ADDAA124000091AY121021AY201021GA1031+007501061GA2031+008101081GE19MSL   +99999+99999GF106991031999007501999999KA1120M+02071KA2120N+01001MA1999999077341MD1410001+9999MW1041REMSYN12476680 31565 62603 10182 20078 37734 40082 54000 70420 86800 90000 333 10207 20100 30/// 50331 56100 58005 70000 83625 83827=
0221766800999992020012503004+19400-099183FM-12+230399999V0202901N004012200019N006000199+01401+00841101001ADDAY121021AY201021GA1021+024001041GE19MSL   +99999+99999GF102991021999024001999999MA1999999077541MD1210201+9999MW1041REMSYN09476680 31856 22904 10140 20084 37754 40100 52020 70420 82020 90255 333 30/// 56010 58006 82458=
0271766800999992020012506004+19400-099183FM-12+230399999V0203201N00101024001CN008000199+01151+00901101141ADDAY111021AY221021GA1051+024001041GE19MSL   +99999+99999GF105991051999024001999999KA1240M+02071KA2240N+01001MA1999999077601MD1210061+9999MW1041REMSYN11876680 31858 53201 10115 20090 37760 40114 52006 70412 85010 90555 333 10207 20100 30/// 55035 21164 56050 58007 85458=
0139766800999992020012509004+19400-099183FM-12+230399999V0209999C999999999999N008000199+01031+00851101231ADDAY101021AY201021MA1999999077521MD1710081+0081MW1041REMSYN07676680 31958 00000 10103 20085 37752 40123 57008 70400 90855 333 30/// 58008=
0194766800999992020012512004+19400-099183FM-12+230399999V0209999C999999999999N006000199+00911+00761101431ADDAA124000091AY101021AY201021KA1240M+02071KA2240N+00891MA1999999077511MD1510011+0071MW1041REMSYN09476680 31956 00000 10091 20076 37751 40143 55001 70400 91150 333 10207 20089 30008 58007 70000=
0221766800999992020012515004+19400-099183FM-12+230399999V0209999C999992200019N004000199+01081+00781101851ADDAY101021AY201021GA1021+060001001GE19MSL   +99999+99999GF102991021999060001999999MA1999999077721MD1210211+9999MW1051REMSYN09476680 31940 20000 10108 20078 37772 40185 52021 70500 80001 91450 333 30/// 56005 58010 82070=
0275766800999992020012518004+19400-099183FM-12+230399999V0209999C999992200019N004000199+01841+01011101681ADDAY101021AY201021GA1011+008401081GA2999+999999001GE19MSL   +99999+99999GF103991011999008401999999KA1120M+01901KA2120N+00841MA1999999077661MD1810061+9999MW1051REMSYN10676680 31540 30000 10184 20101 37766 40168 58006 70500 81101 91745 333 10190 20084 30/// 56505 58006 81828=
0243766800999992020012521004+19400-099183FM-12+230399999V0203601N00501060001CN006000199+02161+01051101101ADDAY111021AY211021GA1031+008401081GA2031+060001001GE19MSL   +99999+99999GF106991031999008401999999MA1999999077401MD1710261+9999MW1051REMSYN10076680 31556 63605 10216 20105 37740 40110 57026 70511 83201 92050 333 30/// 56505 58006 83828 83070=
0304766800999992020012600004+19400-099183FM-12+230399999V0201101N00401060001CN012000199+01971+00911100921ADDAA124000091AY121021AY201021GA1031+008101081GA2031+060001001GE19MSL   +99999+99999GF106991031999008101999999KA1120M+02221KA2120N+00841MA1999999077451MD1310051+9999MW1041REMSYN12476680 31562 61104 10197 20091 37745 40092 53005 70420 83201 90000 333 10222 20084 30/// 50391 56101 58011 70000 83827 83070=
0221766800999992020012603004+19400-099183FM-12+230399999V0200101N002012200019N008000199+01601+00821100991ADDAY121021AY201021GA1041+024001031GE19MSL   +99999+99999GF104991041999024001999999MA1999999077621MD1210171+9999MW1041REMSYN09476680 31858 40102 10160 20082 37762 40099 52017 70420 84030 90255 333 30/// 56050 58008 84358=
0200766800999992020012612004+19400-099183FM-12+230399999V0209999C999999999999N006000199+01031+00671101271ADDAA124000091AY101021AY201021KA1240M+02221KA2240N+01021MA1999999077591MD1510011+9999MW1041REMSYN10076680 31956 00000 10103 20067 37759 40127 55001 70400 91150 333 10222 20102 30009 55094 58008 70000=
0221766800999992020012615004+19400-099183FM-12+230399999V0209999C999992200019N010000199+01341+00771101741ADDAY101021AY201021GA1011+024001031GE19MSL   +99999+99999GF101991011999024001999999MA1999999077741MD1210151+9999MW1051REMSYN09476680 31860 10000 10134 20077 37774 40174 52015 70500 81030 91450 333 30/// 56050 58002 81358=
0253766800999992020012621004+19400-099183FM-12+230399999V0202701N004019999999N012000199+02221+01131100971ADDAY121021AY221021GA1031+008401081GA2999+999999031GA3999+999999001GE19MSL   +99999+99999GF106991031999008401999999MA1999999077401MD1710281+9999MW1051REMSYN09476680 31562 62704 10222 20113 37740 40097 57028 70522 83231 92050 333 30/// 56555 58000 83828=
0320766800999992020012700004+19400-099183FM-12+230399999V0203601N00401024001CN010000199+01831+01001100801ADDAA124000091AY121021AY221021GA1031+008101081GA2031+024001031GA3999+999999001GE19MSL   +99999+99999GF107991031999008101999999KA1120M+02431KA2120N+00991MA1999999077441MD1310041+9999MW1041REMSYN12476680 31560 73604 10183 20100 37744 40080 53004 70422 83251 92350 333 10243 20099 30/// 50341 56555 59001 70000 83827 83358=
0243766800999992020012703004+19400-099183FM-12+230399999V0203201N00201024001CN008000199+01621+00991100871ADDAY121021AY221021GA1011+008401081GA2051+024001031GE19MSL   +99999+99999GF106991011999008401999999MA1999999077581MD1210141+9999MW1041REMSYN10076680 31558 63202 10162 20099 37758 40087 52014 70422 81130 90255 333 30/// 56550 59004 81828 85358=
0221766800999992020012709004+19400-099183FM-12+230399999V0209999C999992200019N008000199+01321+00911101011ADDAY111021AY221021GA1031+024001031GE19MSL   +99999+99999GF103991031999024001999999MA1999999077511MD1710101+9999MW1041REMSYN09476680 31858 30000 10132 20091 37751 40101 57010 70412 83050 90855 333 30/// 56050 58000 83358=
0276766800999992020012712004+19400-099183FM-12+230399999V0209999C999992200019N007000199+01281+00871101181ADDAA124000091AY111021AY221021GA1041+024001031GE19MSL   +99999+99999GF104991041999024001999999KA1240M+02431KA2240N+01221MA1999999077511MD1410001+9999MW1041REMSYN11276680 31157 40000 10128 20087 37751 40118 54000 70412 84050 91150 333 10243 20122 30/// 56050 59008 70000 84358=
0221766800999992020012715004+19400-099183FM-12+230399999V0200801N001012200019N002000199+01461+00981101441ADDAY111021AY211021GA1011+024001031GE19MSL   +99999+99999GF101991011999024001999999MA1999999077651MD1310011+9999MW1051REMSYN09476680 31820 10801 10146 20098 37765 40144 53001 70511 81300 91450 333 30/// 56050 59009 81358=
0259766800999992020012718004+19400-099183FM-12+230399999V0200101N001012200019N003000199+02021+01241101291ADDAY111021AY201021GA1011+007501081GE19MSL   +99999+99999GF101991011999007501999999KA1120M+02101KA2120N+01151MA1999999077591MD1610011+9999MW1051REMSYN10676680 31530 10101 10202 20124 37759 40129 56001 70510 81100 91750 333 10210 20115 30/// 56500 59009 81825=
0237766800999992020012721004+19400-099183FM-12+230399999V0202301N004012200019N010000199+02221+01201100751ADDAY101021AY201021GA1011+007501081GA2999+999999031GE19MSL   +99999+99999GF102991011999007501999999MA1999999077321MD1610011+9999MW1051REMSYN09476680 31560 22304 10222 20120 37732 40075 56001 70500 81130 92050 333 30/// 56550 59008 81825=
0282766800999992020012800004+19400-099183FM-12+230399999V0200401N004012200019N012000199+02081+01051100551ADDAA124000091AY101021AY201021GA1011+008101081GE19MSL   +99999+99999GF101991011999008101999999KA1120M+02411KA2120N+01151MA1999999077321MD1510011+9999MW1041REMSYN11876680 31562 10404 10208 20105 37732 40055 55001 70400 81100 92350 333 10241 20115 30/// 50571 56100 59012 70000 81827=
0111766800999992020012803004+19400-099183FM-12+230399999V0200701N004019999999N004000199+01581+00381100691ADDMA1999999077471MD1210151-0111REMSYN07076680 32940 00704 10158 20038 37747 40069 52015 90248 333 30/// 59011=
0139766800999992020012815004+19400-099183FM-12+230399999V0200201N001019999999N015000199+01221+00391101511ADDAY101021AY201021MA1999999077461MD1610011-0011MW1051REMSYN07676680 31965 00201 10122 20039 37746 40151 56001 70500 91450 333 30/// 59001=
0259766800999992020012818004+19400-099183FM-12+230399999V0200101N003012200019N020000199+02081+00841101261ADDAY101021AY201021GA1021+060001001GE19MSL   +99999+99999GF102991021999060001999999KA1120M+02261KA2120N+00701MA1999999077361MD1610011+9999MW1051REMSYN10676680 31970 20103 10208 20084 37736 40126 56001 70500 80001 91750 333 10226 20070 30/// 56001 59002 82070=
0227766800999992020012821004+19400-099183FM-12+230399999V0200301N004012200019N015000199+02281+01021100651ADDAY101021AY201021GA1041+060001001GE19MSL   +99999+99999GF104991041999060001999999MA1999999077111MD1610011+9999MW1051REMSYN10076680 31965 40304 10228 20102 37711 40065 56001 70500 80001 92050 333 30/// 56005 59009 84070 99010=
0282766800999992020012900004+19400-099183FM-12+230399999V0200101N00501024001CN015000199+01981+00251100411ADDAA124000091AY121021AY201021GA1061+024001041GE19MSL   +99999+99999GF106991061999024001999999KA1120M+02461KA2120N+00701MA1999999077151MD1310041+9999MW1041REMSYN11876680 31865 60105 10198 20025 37715 40041 53004 70420 86020 90000 333 10246 20070 30/// 50811 56050 59017 70000 86458=
0221766800999992020012903004+19400-099183FM-12+230399999V0200101N001012200019N008000199+01611+00381100581ADDAY121021AY201021GA1041+024001031GE19MSL   +99999+99999GF104991041999024001999999MA1999999077401MD1210251+9999MW1041REMSYN09476680 31858 40101 10161 20038 37740 40058 52025 70420 84030 90300 333 30/// 56050 59007 84358=
0240766800999992020012909004+19400-099183FM-12+230399999V0209999C999999999999N008000199+01181+00491100991ADDAY111021AY221021GA1052+060001021GE19MSL   +99999+99999GF104992052999060001999999MA1999999077491MD1210041+9999MW1041REMSYN09476680 31958 40000 10118 20049 37749 40099 52004 70412 80008 90855 333 30/// 56005 59005 85270=EQDQ01 060003SCOCIG
0194766800999992020012912004+19400-099183FM-12+230399999V0202701N003019999999N007000199+00921+00471101211ADDAA124000091AY101021AY201021KA1240M+02461KA2240N+00801MA1999999077461MD1710031-0081MW1041REMSYN09476680 31957 02703 10092 20047 37746 40121 57003 70400 91150 333 10246 20080 30006 59008 70000=
0139766800999992020012915004+19400-099183FM-12+230399999V0203601N002019999999N006000199+01081+00591101581ADDAY141021AY201021MA1999999077601MD1210141-0141MW1041REMSYN07676680 31956 03602 10108 20059 37760 40158 52014 70440 91450 333 30/// 59014=
0177766800999992020012918004+19400-099183FM-12+230399999V0200101N001019999999N002000199+01881+01081101311ADDAY101021AY201021KA1120M+01951KA2120N+00801MA1999999077411MD1610011-0021MW1051REMSYN08876680 31920 00101 10188 20108 37741 40131 56001 70500 91750 333 10195 20080 30/// 59002=
0139766800999992020012921004+19400-099183FM-12+230399999V0200101N009019999999N010000199+02241+01011100671ADDAY101021AY201021MA1999999077101MD1610011+0011MW1051REMSYN07676680 31960 00109 10224 20101 37710 40067 56001 70500 92050 333 30/// 58001=
0304766800999992020013000004+19400-099183FM-12+230399999V0200101N004012200019N015000199+02101+00481100511ADDAA124000091AY121021AY201021GA1021+024001031GA2011+060001001GE19MSL   +99999+99999GF103991021999024001999999KA1120M+02461KA2120N+00801MA1999999077191MD1310091+9999MW1041REMSYN12476680 31865 30104 10210 20048 37719 40051 53009 70420 82031 90000 333 10246 20080 30/// 50511 56055 58004 70000 82358 81070=
0237766800999992020013015004+19400-099183FM-12+230399999V0203601N003019999999N012000199+01381+00551101291ADDAY141021AY201021GA1031+024001031GA2999+999999021GE19MSL   +99999+99999GF105991031999024001999999MA1999999077411MD1310161+9999MW1041REMSYN09476680 31862 53603 10138 20055 37741 40129 53016 70440 83056 91450 333 30/// 56055 59019 83358=
0281766800999992020013018004+19400-099183FM-12+230399999V0200101N00101060001CN005000199+01961+00991101151ADDAY111021AY211021GA1031+024001041GA2031+060001001GE19MSL   +99999+99999GF106991031999024001999999KA1120M+02051KA2120N+01001MA1999999077331MD1610011+9999MW1051REMSYN11276680 31850 60101 10196 20099 37733 40115 56001 70511 83016 91750 333 10205 20100 30/// 56055 59002 83458 83070=
0243766800999992020013021004+19400-099183FM-12+230399999V0200101N006019999999N010000199+02061+00971100711ADDAY111021AY211021GA1011+007501061GA2041+008401081GE19MSL   +99999+99999GF107991011999007501999999MA1999999077151MD1610011+9999MW1051REMSYN10076680 31560 70106 10206 20097 37715 40071 56001 70511 85810 92050 333 30/// 56550 58005 81625 84828=
0304766800999992020013100004+19400-099183FM-12+230399999V0200101N00601024001CN015000199+01801+00411100681ADDAA124000091AY121021AY201021GA1031+007501061GA2041+024001041GE19MSL   +99999+99999GF107991031999007501999999KA1120M+02211KA2120N+01001MA1999999077281MD1210131+9999MW1041REMSYN12476680 31565 70106 10180 20041 37728 40068 52013 70420 83420 90000 333 10221 20100 30/// 50651 56550 58009 70000 83625 84458=
0243766800999992020013103004+19400-099183FM-12+230399999V0200101N00401024001CN012000199+01601+00271100791ADDAY121021AY201021GA1031+008101081GA2031+024001041GE19MSL   +99999+99999GF106991031999008101999999MA1999999077441MD1210161+9999MW1041REMSYN10076680 31562 60104 10160 20027 37744 40079 52016 70420 83220 90300 333 30/// 56550 58013 83827 83458=
0271766800999992020013106004+19400-099183FM-12+230399999V0201401N00201024001CN018000199+01461+00551100781ADDAY111021AY221021GA1051+024001041GE19MSL   +99999+99999GF105991051999024001999999KA1240M+02211KA2240N+01001MA1999999077421MD1210021+9999MW1041REMSYN11876680 31868 51402 10146 20055 37742 40078 52002 70412 85010 90555 333 10221 20100 30/// 55065 21600 56050 58013 85458=
0276766800999992020013112004+19400-099183FM-12+230399999V0209999C999992200019N008000199+01121+00501101001ADDAA124000091AY111021AY221021GA1041+024001041GE19MSL   +99999+99999GF104991041999024001999999KA1240M+02211KA2240N+01041MA1999999077351MD1310041+9999MW1041REMSYN11276680 31858 40000 10112 20050 37735 40100 53004 70412 84010 91150 333 10221 20104 30009 56050 58010 70000 84458=
0221766800999992020013115004+19400-099183FM-12+230399999V0203601N002012200019N015000199+01281+00781101361ADDAY141021AY201021GA1041+024001031GE19MSL   +99999+99999GF104991041999024001999999MA1999999077541MD1310191+9999MW1041REMSYN09476680 31865 43602 10128 20078 37754 40136 53019 70440 84050 91450 333 30/// 56050 58013 84358=
0275766800999992020013118004+19400-099183FM-12+230399999V0200101N003012200019N015000199+02081+01211101161ADDAY111021AY211021GA1031+008401081GA2999+999999031GE19MSL   +99999+99999GF104991031999008401999999KA1120M+02161KA2120N+01071MA1999999077451MD1610011+9999MW1051REMSYN10676680 31565 40103 10208 20121 37745 40116 56001 70511 83130 91750 333 10216 20107 30/// 56550 58001 83828=
0243766800999992020013121004+19400-099183FM-12+230399999V0200101N00301008401CN015000199+02101+01301100701ADDAY111021AY211021GA1021+007501061GA2051+008401081GE19MSL   +99999+99999GF107991021999007501999999MA1999999077231MD1610011+9999MW1051REMSYN10076680 31565 70103 10210 20130 37723 40070 56001 70511 87800 92050 333 30/// 56500 58008 82625 85828=
0304766800999992020020100004+19400-099183FM-12+230399999V0201301N00401007501CN018000199+01891+00791100621ADDAA124000091AY121021AY201021GA1051+007501061GA2031+024001041GE19MSL   +99999+99999GF108991051999007501999999KA1120M+02421KA2120N+01041MA1999999077311MD1210081+9999MW1041REMSYN12476680 31568 81304 10189 20079 37731 40062 52008 70420 85420 90005 333 10242 20104 30/// 50581 56550 58003 70000 85625 83458=
0243766800999992020020103004+19400-099183FM-12+230399999V0202001N00501024001CN008000199+01621+00731100801ADDAY121021AY201021GA1021+007501061GA2051+024001041GE19MSL   +99999+99999GF107991021999007501999999MA1999999077551MD1210241+9999MW1041REMSYN10076680 31558 72005 10162 20073 37755 40080 52024 70420 82420 90300 333 30/// 56550 58011 82625 85458=
0221766800999992020020115004+19400-099183FM-12+230399999V0203401N003012200019N003000199+01101+00831101811ADDAY141021AY201021GA1021+060001001GE19MSL   +99999+99999GF102991021999060001999999MA1999999077861MD1210191+9999MW1041REMSYN09476680 31930 23403 10110 20083 37786 40181 52019 70440 80001 91450 333 30/// 56001 59032 82070=
0291766800999992020020118004+19400-099183FM-12+230399999V0200901N001019999999N002000199+01881+01141101761ADDAY141021AY221021GA1021+007501061GA2999+999999051GA3999+999999021GE19MSL   +99999+99999GF108991021999007501999999KA1120M+01951KA2120N+01051MA1999999077841MD1990021+9999MW1041REMSYN10676680 31520 80901 10188 20114 37784 40176 50002 70442 83828 91750 333 10195 20105 30/// 56555 58039 82625=
0243766800999992020020121004+19400-099183FM-12+230399999V0201601N00201008101CN004000199+02071+01001101271ADDAY121021AY201021GA1011+007501061GA2051+008101081GE19MSL   +99999+99999GF106991011999007501999999MA1999999077571MD1710271+9999MW1041REMSYN10076680 31540 61602 10207 20100 37757 40127 57027 70420 86800 92100 333 30/// 56100 58034 81625 85827=
0304766800999992020020200004+19400-099183FM-12+230399999V0203101N00401007501CN006000199+01691+00981101261ADDAA124000091AY121021AY201021GA1051+007501061GA2031+024001041GE19MSL   +99999+99999GF108991051999007501999999KA1120M+02171KA2120N+01051MA1999999077681MD1210111+9999MW1041REMSYN12476680 31556 83104 10169 20098 37768 40126 52011 70420 85420 90000 333 10217 20105 30/// 5//// 56110 58037 70000 85625 83458=
0243766800999992020020203004+19400-099183FM-12+230399999V0203001N00201008101CN006000199+01361+00901101511ADDAY121021AY201021GA1031+007501061GA2031+008101081GE19MSL   +99999+99999GF108991031999007501999999MA1999999077931MD1210251+9999MW1041REMSYN10076680 31556 83002 10136 20090 37793 40151 52025 70420 86820 90255 333 30/// 56110 58038 83625 83827=
0194766800999992020020212004+19400-099183FM-12+230399999V0209999C999999999999N006000199+01121+00851101761ADDAA124000091AY101021AY201021KA1240M+02171KA2240N+01081MA1999999077881MD1310031+0211MW1041REMSYN09476680 31956 00000 10112 20085 37788 40176 53003 70400 91155 333 10217 20108 30010 58021 70000=
0243766800999992020020215004+19400-099183FM-12+230399999V0209999C99999060001CN003000199+01161+00861102111ADDAY121021AY221021GA1031+024001041GA2051+060001021GE19MSL   +99999+99999GF108991031999024001999999MA1999999077991MD1210111+9999MW1041REMSYN10076680 31830 80000 10116 20086 37799 40211 52011 70422 83025 91445 333 30/// 56055 58013 83458 85270=
0281766800999992020020218004+19400-099183FM-12+230399999V0203201N001019999999N003000199+01861+01161101791ADDAY121021AY221021GA1011+024001041GA2041+060001001GE19MSL   +99999+99999GF105991011999024001999999KA1120M+01931KA2120N+01061MA1999999077811MD1810181+9999MW1041REMSYN11276680 31830 53201 10186 20116 37781 40179 58018 70422 81014 91750 333 10193 20106 30/// 56055 59003 81458 84070=
0259766800999992020020221004+19400-099183FM-12+230399999V0201401N001019999999N004000199+02101+01201101211ADDAY121021AY221021GA1011+008401081GA2031+024001031GA3999+999999021GE19MSL   +99999+99999GF108991011999008401999999MA1999999077521MD1710291+9999MW1041REMSYN10076680 31540 81401 10210 20120 37752 40121 57029 70422 81255 92050 333 30/// 56555 59005 81828 83358=
0304766800999992020020300004+19400-099183FM-12+230399999V0209999C99999060001CN004000199+02101+01181100921ADDAA124000091AY121021AY221021GA1031+024001041GA2051+060001021GE19MSL   +99999+99999GF108991031999024001999999KA1120M+02171KA2120N+01061MA1999999077471MD1510051+9999MW1041REMSYN12476680 31840 80000 10210 20118 37747 40092 55005 70422 83026 92345 333 10217 20106 30/// 50361 56055 59021 70000 83458 85270=
0139766800999992020020303004+19400-099183FM-12+230399999V0202901N002019999999N006000199+01681+00981100961ADDAY121021AY201021MA1999999077631MD1210161-0301MW1041REMSYN07676680 31956 02902 10168 20098 37763 40096 52016 70420 90255 333 30/// 59030=
0237766800999992020020315004+19400-099183FM-12+230399999V0201401N005012200019N015000199+01561+01131101331ADDAY141021AY201021GA1011+008401081GA2999+999999001GE19MSL   +99999+99999GF103991011999008401999999MA1999999077581MD1310091+9999MW1041REMSYN09476680 31565 31405 10156 20113 37758 40133 53009 70440 81101 91450 333 30/// 56505 59041 81828=
0281766800999992020020318004+19400-099183FM-12+230399999V0201401N00501060001CN012000199+02151+01081101301ADDAY101021AY211021GA1021+008401081GA2051+060001021GE19MSL   +99999+99999GF107991021999008401999999KA1120M+02191KA2120N+01201MA1999999077621MD1990041+9999MW1041REMSYN11276680 31562 71405 10215 20108 37762 40130 50004 70401 82206 91750 333 10219 20120 30/// 56505 59019 82828 85270=
0255766800999992020020321004+19400-099183FM-12+230399999V0201801N00401060001CN015000199+02001+00951100961ADDAY121021AY221021GA1021+008401081GA2051+060001021GE19MSL   +99999+99999GF107991021999008401999999MA1999999077471MD1710151+9999MW1041REMSYN11276680 31565 71804 10200 20095 37747 40096 57015 70422 82206 92050 333 30/// 56505 59005 82828 85270 94825 94225=
0320766800999992020020400004+19400-099183FM-12+230399999V0201101N002019999999N012000199+01821+01081100901ADDAA124000091AY121021AY221021GA1011+008101081GA2031+024001031GA3999+999999021GE19MSL   +99999+99999GF108991011999008101999999KA1120M+02231KA2120N+01201MA1999999077531MD1310061+9999MW1041REMSYN12476680 31562 81102 10182 20108 37753 40090 53006 70422 81156 92345 333 10223 20120 30/// 50391 56555 58006 70000 81827 83358=
0243766800999992020020403004+19400-099183FM-12+230399999V0201101N00201024001CN008000199+01641+01011101021ADDAY121021AY221021GA1011+008401081GA2051+024001031GE19MSL   +99999+99999GF106991011999008401999999MA1999999077681MD1210151+9999MW1041REMSYN10076680 31558 61102 10164 20101 37768 40102 52015 70422 81170 90245 333 30/// 56550 58005 81828 85358=
0293766800999992020020406004+19400-099183FM-12+230399999V0209999C99999024001CN014000199+01441+00981101211ADDAY111021AY221021GA1021+008401081GA2041+024001041GE19MSL   +99999+99999GF106991021999008401999999KA1240M+02231KA2240N+00121MA1999999077741MD1990061+9999MW1041REMSYN12476680 31564 60000 10144 20098 37774 40121 50006 70412 82110 90555 333 10223 20012 30/// 55051 2//// 56550 58010 82828 84458=
0221766800999992020020409004+19400-099183FM-12+230399999V0202301N002012200019N012000199+01291+00931101121ADDAY111021AY211021GA1041+024001041GE19MSL   +99999+99999GF104991041999024001999999MA1999999077561MD1710141+9999MW1041REMSYN09476680 31862 42302 10129 20093 37756 40112 57014 70411 84010 90855 333 30/// 56050 58000 84458=
0298766800999992020020412004+19400-099183FM-12+230399999V0209999C99999024001CN010000199+01221+01011101281ADDAA124000091AY111021AY221021GA1011+008401081GA2051+024001041GE19MSL   +99999+99999GF106991011999008401999999KA1240M+02231KA2240N+00981MA1999999077571MD1310011+9999MW1041REMSYN11876680 31560 60000 10122 20101 37757 40128 53001 70412 81110 91150 333 10223 20098 30009 56550 58008 70000 81828 85458=
0237766800999992020020415004+19400-099183FM-12+230399999V0209999C999992200019N008000199+01401+00981101471ADDAY141021AY201021GA1011+008401081GA2999+999999031GE19MSL   +99999+99999GF102991011999008401999999MA1999999077641MD1310071+9999MW1041REMSYN09476680 31558 20000 10140 20098 37764 40147 53007 70440 81150 91450 333 30/// 56550 58006 81828=
0275766800999992020020418004+19400-099183FM-12+230399999V0201301N002019999999N015000199+02201+01351101271ADDAY111021AY211021GA1041+008401081GA2999+999999031GE19MSL   +99999+99999GF106991041999008401999999KA1120M+02251KA2120N+00981MA1999999077571MD1610011+9999MW1051REMSYN10676680 31565 61302 10220 20135 37757 40127 56001 70511 84130 91750 333 10225 20098 30/// 56550 59005 84828=
0237766800999992020020515004+19400-099183FM-12+230399999V0209999C999999999999N010000199+01361+01041100991ADDAY141021AY201021GA1011+007501061GA2999+999999031GE19MSL   +99999+99999GF105991011999007501999999MA1999999077351MD1210111+9999MW1041REMSYN09476680 31560 50000 10136 20104 37735 40099 52011 70440 83830 91450 333 30/// 56550 59029 81625=
0281766800999992020020518004+19400-099183FM-12+230399999V0202101N00501008401CN020000199+01841+01131101031ADDAY111021AY211021GA1041+007501081GA2031+008401061GE19MSL   +99999+99999GF107991041999007501999999KA1120M+01991KA2120N+01201MA1999999077421MD1610021+9999MW1051REMSYN11276680 31570 72105 10184 20113 37742 40103 56002 70511 87800 91750 333 10199 20120 30/// 56500 59005 84825 83628=
0243766800999992020020521004+19400-099183FM-12+230399999V0202101N00501008401CN020000199+01801+01321100631ADDAY111021AY211021GA1041+007501061GA2041+008401081GE19MSL   +99999+99999GF108991041999007501999999MA1999999077171MD1610021+9999MW1051REMSYN10076680 31570 82105 10180 20132 37717 40063 56002 70511 88800 92050 333 30/// 56500 59002 84625 84828=
0304766800999992020020600004+19400-099183FM-12+230399999V0202201N00501007501CN015000199+01641+01051100571ADDAA124000091AY121021AY201021GA1051+007501061GA2011+008101091GE19MSL   +99999+99999GF106991051999007501999999KA1120M+02001KA2120N+01201MA1999999077191MD1310021+9999MW1041REMSYN12476680 31565 62205 10164 20105 37719 40057 53002 70420 86900 90005 333 10200 20120 30/// 5//// 56500 59025 70000 85625 81927=
0243766800999992020020603004+19400-099183FM-12+230399999V0202901N00401024001CN015000199+01571+00911100601ADDAY121021AY201021GA1041+008101081GA2011+024001041GE19MSL   +99999+99999GF105991041999008101999999MA1999999077241MD1210051+9999MW1041REMSYN10076680 31565 52904 10157 20091 37724 40060 52005 70420 84220 90300 333 30/// 56550 59024 84827 81458=
0271766800999992020020606004+19400-099183FM-12+230399999V0200901N00301024001CN018000199+01521+01011100771ADDAY111021AY221021GA1061+024001041GE19MSL   +99999+99999GF106991061999024001999999KA1240M+02001KA2240N+01201MA1999999077321MD1110081+9999MW1021REMSYN11876680 31868 60903 10152 20101 37732 40077 51008 70212 86020 90555 333 10200 20120 30011 55032 20945 56050 59019 86458=
0194766800999992020020612004+19400-099183FM-12+230399999V0203201N004019999999N020000199+01321+00681100741ADDAA124000091AY101021AY201021KA1240M+02001KA2240N+01301MA1999999077191MD1310041-0051MW1041REMSYN09476680 31970 03204 10132 20068 37719 40074 53004 70400 91150 333 10200 20130 30012 59005 70000=
0221766800999992020020615004+19400-099183FM-12+230399999V0202701N006012200019N015000199+01401+00621101031ADDAY101021AY201021GA1011+060001001GE19MSL   +99999+99999GF101991011999060001999999MA1999999077371MD1210181+9999MW1021REMSYN09476680 31965 12706 10140 20062 37737 40103 52018 70200 80001 91450 333 30/// 56005 59011 81070=
0259766800999992020020618004+19400-099183FM-12+230399999V0202301N004012200019N020000199+02061+01451100701ADDAY101021AY201021GA1011+060001031GE19MSL   +99999+99999GF101991011999060001999999KA1120M+02151KA2120N+01301MA1999999077181MD1610021+9999MW1051REMSYN10676680 31970 12304 10206 20145 37718 40070 56002 70500 80003 91750 333 10215 20130 30/// 56005 59002 81370=
0221766800999992020020621004+19400-099183FM-12+230399999V0202501N003010600019N020000199+02321+00801100311ADDAY111021AY211021GA1051+060001001GE19MSL   +99999+99999GF105991051999060001999999MA1999999077021MD1610011+9999MW1051REMSYN09476680 31970 52503 10232 20080 37702 40031 56001 70511 80001 92050 333 30/// 56005 59001 85070=
0304766800999992020020700004+19400-099183FM-12+230399999V0202601N00401060001CN020000199+02221+00301100131ADDAA124000091AY121021AY201021GA1041+024001041GA2031+060001001GE19MSL   +99999+99999GF107991041999024001999999KA1120M+02471KA2120N+01301MA1999999077031MD1310011+9999MW1041REMSYN12476680 31870 72604 10222 20030 37703 40013 53001 70420 84021 92355 333 10247 20130 30/// 50731 56055 59016 70000 84458 83070=
0243766800999992020020703004+19400-099183FM-12+230399999V0201901N00201024001CN008000199+01721+00671100271ADDAY121021AY201021GA1021+008101081GA2041+024001041GE19MSL   +99999+99999GF106991021999008101999999MA1999999077231MD1210201+9999MW1041REMSYN10076680 31558 61902 10172 20067 37723 40027 52020 70420 82220 90300 333 30/// 56550 59001 82827 84458=
0282766800999992020020712004+19400-099183FM-12+230399999V0203201N001012200019N010000199+01121+00891100891ADDAA124000091AY101021AY201021GA1031+057001021GE19MSL   +99999+99999GF103991031999057001999999KA1240M+02471KA2240N+01101MA1999999077301MD1710011+9999MW1041REMSYN11876680 31960 33201 10112 20089 37730 40089 57001 70400 80008 91150 333 10247 20110 30/// 55100 56005 58011 70000 83269=
0243766800999992020020715004+19400-099183FM-12+230399999V0209999C99999057001CN004000199+01301+00871101271ADDAY141021AY201021GA1031+024001031GA2031+057001021GE19MSL   +99999+99999GF106991031999024001999999MA1999999077471MD1310171+9999MW1041REMSYN10076680 31840 60000 10130 20087 37747 40127 53017 70440 83038 91450 333 30/// 56055 58010 83358 83269=
0281766800999992020020718004+19400-099183FM-12+230399999V0201301N001019999999N002000199+02061+01151101151ADDAY111021AY211021GA1021+007501081GA2031+060001001GE19MSL   +99999+99999GF105991021999007501999999KA1120M+02151KA2120N+01061MA1999999077441MD1610061+9999MW1051REMSYN11276680 31520 51301 10206 20115 37744 40115 56006 70511 82101 91750 333 10215 20106 30/// 56505 58002 82825 83070=
0243766800999992020020721004+19400-099183FM-12+230399999V0200401N002019999999N005000199+02541+01171100521ADDAY111021AY211021GA1011+024001041GA2041+060001001GE19MSL   +99999+99999GF105991011999024001999999MA1999999077151MD1610011+9999MW1051REMSYN10076680 31850 50402 10254 20117 37715 40052 56001 70511 81011 92050 333 30/// 56005 59001 81458 84070=
0326766800999992020020800004+19400-099183FM-12+230399999V0202001N00601060001CN015000199+02321+00991100361ADDAA124000091AY121021AY201021GA1011+008101081GA2031+024001041GA3031+060001001GE19MSL   +99999+99999GF107991011999008101999999KA1120M+02761KA2120N+01061MA1999999077261MD1310111+9999MW1041REMSYN13076680 31565 72006 10232 20099 37726 40036 53011 70420 81221 90000 333 10276 20106 30/// 50651 56555 58023 70000 81827 83458 83070=
0221766800999992020020803004+19400-099183FM-12+230399999V0201801N00201024001CN008000199+01861+00981100501ADDAY121021AY201021GA1051+024001041GE19MSL   +99999+99999GF105991051999024001999999MA1999999077501MD1210221+9999MW1041REMSYN09476680 31858 51802 10186 20098 37750 40050 52022 70420 85020 90300 333 30/// 56050 58027 85458=
0271766800999992020020806004+19400-099183FM-12+230399999V0209999C999992200019N011000199+01581+01051100721ADDAY111021AY221021GA1041+024001041GE19MSL   +99999+99999GF104991041999024001999999KA1240M+02761KA2240N+01061MA1999999077621MD1210121+9999MW1041REMSYN11876680 31861 40000 10158 20105 37762 40072 52012 70412 84010 90555 333 10276 20106 30010 55083 21782 56050 58028 84458=
0139766800999992020020809004+19400-099183FM-12+230399999V0209999C999999999999N008000199+01331+00691100861ADDAY101021AY201021MA1999999077551MD1710071+0241MW1041REMSYN07676680 31958 00000 10133 20069 37755 40086 57007 70400 90855 333 30/// 58024=
0194766800999992020020812004+19400-099183FM-12+230399999V0209999C999999999999N007000199+01121+00461101211ADDAA124000091AY101021AY201021KA1240M+02761KA2240N+01051MA1999999077591MD1210041+0291MW1041REMSYN09476680 31957 00000 10112 20046 37759 40121 52004 70400 91150 333 10276 20105 30009 58029 70000=
0227766800999992020020815004+19400-099183FM-12+230399999V0200201N001012200019N006000199+01341+00771101631ADDAY101021AY201021GA1021+060001001GE19MSL   +99999+99999GF102991021999060001999999MA1999999077771MD1210181+9999MW1041REMSYN10076680 31956 20201 10134 20077 37777 40163 52018 70400 80001 91445 333 30/// 56005 58030 82070 99250=
0265766800999992020020818004+19400-099183FM-12+230399999V0209999C999990600019N006000199+02221+01201101461ADDAY121021AY221021GA1071+060001021GE19MSL   +99999+99999GF107991071999060001999999KA1120M+02281KA2120N+01021MA1999999077701MD1610071+9999MW1041REMSYN11276680 31956 70000 10222 20120 37770 40146 56007 70422 80006 91750 333 10228 20102 30/// 56005 58026 87270 99021=
0243766800999992020020821004+19400-099183FM-12+230399999V0203601N002019999999N006000199+02601+01091100861ADDAY121021AY221021GA1011+008401081GA2041+060001001GE19MSL   +99999+99999GF105991011999008401999999MA1999999077421MD1610281+9999MW1051REMSYN10076680 31556 53602 10260 20109 37742 40086 56028 70522 81101 92050 333 30/// 56005 58027 81828 84070=
0304766800999992020020900004+19400-099183FM-12+230399999V0200101N002012200019N006000199+02491+01341100561ADDAA124000091AY121021AY201021GA1011+008101081GA2031+060001001GE19MSL   +99999+99999GF104991011999008101999999KA1120M+02721KA2120N+01021MA1999999077421MD1410001+9999MW1041REMSYN12476680 31956 40102 10249 20134 37742 40056 54000 70420 81201 90000 333 10272 20102 30/// 50581 56505 58016 70000 81827 83070=
0139766800999992020020903004+19400-099183FM-12+230399999V0203601N002019999999N008000199+01861+01221100671ADDAY101021AY201021MA1999999077641MD1210221+0141MW1001REMSYN07676680 31958 03602 10186 20122 37764 40067 52022 70000 90250 333 30/// 58014=
0139766800999992020020915004+19400-099183FM-12+230399999V0209999C999999999999N012000199+01461+00911101641ADDAY101021AY201021MA1999999077791MD1210141+0021MW1041REMSYN07676680 31962 00000 10146 20091 37779 40164 52014 70400 91445 333 30/// 58002=
0177766800999992020020918004+19400-099183FM-12+230399999V0201401N002019999999N010000199+02291+01331101451ADDAY101021AY201021KA1120M+02341KA2120N+01051MA1999999077721MD1810071+0021MW1041REMSYN08876680 31960 01402 10229 20133 37772 40145 58007 70400 91750 333 10234 20105 30/// 58002=
0139766800999992020020921004+19400-099183FM-12+230399999V0202701N002019999999N008000199+02581+01501100831ADDAY101021AY201021MA1999999077441MD1710281+0021MW1041REMSYN07676680 31958 02702 10258 20150 37744 40083 57028 70400 92050 333 30/// 58002=
0200766800999992020021000004+19400-099183FM-12+230399999V0200901N002019999999N008000199+02501+01501100471ADDAA124000091AY101021AY201021KA1120M+02731KA2120N+01051MA1999999077391MD1510051+9999MW1041REMSYN10076680 31958 00902 10250 20150 37739 40047 55005 70400 90000 333 10273 20105 30/// 50451 59003 70000=
0139766800999992020021003004+19400-099183FM-12+230399999V0201601N002019999999N008000199+01941+01351100511ADDAY101021AY201021MA1999999077561MD1210171-0081MW1041REMSYN07676680 31958 01602 10194 20135 37756 40051 52017 70400 90250 333 30/// 59008=
0189766800999992020021006004+19400-099183FM-12+230399999V0202701N002019999999N020000199+01661+01171100691ADDAY101021AY201021KA1240M+02731KA2240N+01051MA1999999077651MD1110091+9999MW1041REMSYN10076680 31970 02702 10166 20117 37765 40069 51009 70400 90555 333 10273 20105 30009 55103 2//// 59003=
0194766800999992020021012004+19400-099183FM-12+230399999V0209999C999999999999N010000199+01301+00941101091ADDAA124000091AY101021AY201021KA1240M+02731KA2240N+01261MA1999999077591MD1310011-0061MW1041REMSYN09476680 31960 00000 10130 20094 37759 40109 53001 70400 91150 333 10273 20126 30/// 59006 70000=
0133766800999992020021015004+19400-099183FM-12+230399999V0200901N001019999999N006000199+99999+01101101411ADDAY141021AY201021MA1999999077701MD1310111-0091MW1041REMSYN07076680 31956 00901 20110 37770 40141 53011 70440 91450 333 30/// 59009=
0177766800999992020021018004+19400-099183FM-12+230399999V0201001N002019999999N003000199+02321+01551101201ADDAY101021AY201021KA1120M+02451KA2120N+01201MA1999999077611MD1610021-0011MW1051REMSYN08876680 31930 01002 10232 20155 37761 40120 56002 70500 91750 333 10245 20120 30/// 59001=
0221766800999992020021021004+19400-099183FM-12+230399999V0202401N002012200019N003000199+02801+02031100591ADDAY101021AY201021GA1011+007501081GE19MSL   +99999+99999GF101991011999007501999999MA1999999077321MD1610021+9999MW1051REMSYN09476680 31530 12402 10280 20203 37732 40059 56002 70500 81100 92050 333 30/// 56500 59001 81825=
0282766800999992020021100004+19400-099183FM-12+230399999V0201301N002012200019N004000199+02581+01591100301ADDAA124000091AY101021AY201021GA1031+008101081GE19MSL   +99999+99999GF103991031999008101999999KA1120M+02921KA2120N+01201MA1999999077321MD1510011+9999MW1041REMSYN11876680 31540 31302 10258 20159 37732 40030 55001 70400 83100 90000 333 10292 20120 30/// 50511 56100 59007 70000 83827=
0215766800999992020021103004+19400-099183FM-12+230399999V0203201N00301054001WN003000199+02011+01051100411ADDAY101021AY201021GA1091+054001999GE19MSL   +99999+99999GF109991091999054001999999MA1999999077541MD1210221+9999MW1051REMSYN08876680 31/30 93203 10201 20105 37754 40041 52022 70500 90310 333 30/// 56999 59002 89/68=
0200766800999992020021112004+19400-099183FM-12+230399999V0209999C999999999999N006000199+01381+01001101001ADDAA124000091AY101021AY201021KA1240M+02921KA2240N+01301MA1999999077541MD1710011+9999MW1041REMSYN10076680 31956 00000 10138 20100 37754 40100 57001 70400 91150 333 10292 20130 30/// 55086 59005 70000=
0139766800999992020021115004+19400-099183FM-12+230399999V0209999C999999999999N003000199+01641+01151101271ADDAY141021AY201021MA1999999077631MD1310091-0071MW1041REMSYN07676680 31930 00000 10164 20115 37763 40127 53009 70440 91450 333 30/// 59007=
0177766800999992020021118004+19400-099183FM-12+230399999V0200901N002019999999N003000199+02401+01551101101ADDAY101021AY201021KA1120M+02471KA2120N+01301MA1999999077571MD1610011-0041MW1051REMSYN08876680 31930 00902 10240 20155 37757 40110 56001 70500 91750 333 10247 20130 30/// 59004=
0221766800999992020021121004+19400-099183FM-12+230399999V0201501N001012200019N003000199+02761+01611100471ADDAY101021AY201021GA1011+007501081GE19MSL   +99999+99999GF101991011999007501999999MA1999999077271MD1610021+9999MW1051REMSYN09476680 31530 11501 10276 20161 37727 40047 56002 70500 81100 92050 333 30/// 56500 59005 81825=
0304766800999992020021200004+19400-099183FM-12+230399999V0202601N005012200019N008000199+02561+01271100081ADDAA124000091AY121021AY201021GA1011+008101081GA2031+060001001GE19MSL   +99999+99999GF104991011999008101999999KA1120M+02911KA2120N+01301MA1999999077191MD1310081+9999MW1041REMSYN12476680 31558 42605 10256 20127 37719 40008 53008 70420 81201 90000 333 10291 20130 30/// 50681 56303 59013 70000 81827 83070=
0209766800999992020021203004+19400-099183FM-12+230399999V0201501N002019999999N008000199+01961+01141100161ADDAY101021AY201021GA1001+999999999GE19MSL   +99999+99999GF199999001999999999999999MA1999999077361MD1210171-0181MW1041REMSYN08276680 31958 01502 10196 20114 37736 40016 52017 70400 80000 90255 333 30/// 59018=
0189766800999992020021206004+19400-099183FM-12+230399999V0202301N002019999999N012000199+01681+01091100291ADDAY101021AY201021KA1240M+02911KA2240N+01301MA1999999077401MD1110041+9999MW1041REMSYN10076680 31962 02302 10168 20109 37740 40029 51004 70400 90555 333 10291 20130 30012 55102 21782 59019=
0139766800999992020021209004+19400-099183FM-12+230399999V0201801N001019999999N009000199+01471+01011100401ADDAY101021AY201021MA1999999077301MD1710251-0251MW1041REMSYN07676680 31959 01801 10147 20101 37730 40040 57025 70400 90855 333 30/// 59025=
0194766800999992020021212004+19400-099183FM-12+230399999V0209999C999999999999N007000199+01281+00961100721ADDAA124000091AY101021AY201021KA1240M+02911KA2240N+01231MA1999999077311MD1310011-0231MW1041REMSYN09476680 31957 00000 10128 20096 37731 40072 53001 70400 91150 333 10291 20123 30011 59023 70000=
0139766800999992020021215004+19400-099183FM-12+230399999V0202301N004019999999N006000199+01501+01061101081ADDAY141021AY201021MA1999999077461MD1210151-0171MW1041REMSYN07676680 31956 02304 10150 20106 37746 40108 52015 70440 91450 333 30/// 59017=
0177766800999992020021218004+19400-099183FM-12+230399999V0200801N001019999999N002000199+02241+01391100891ADDAY101021AY201021KA1120M+02301KA2120N+01231MA1999999077341MD1610011-0021MW1051REMSYN08876680 31920 00801 10224 20139 37734 40089 56001 70500 91750 333 10230 20123 30/// 59002=
0139766800999992020021221004+19400-099183FM-12+230399999V0202601N005019999999N008000199+02541+01241100371ADDAY101021AY201021MA1999999077111MD1610011-0011MW1051REMSYN07676680 31958 02605 10254 20124 37711 40037 56001 70500 92050 333 30/// 59001=
0304766800999992020021300004+19400-099183FM-12+230399999V0202601N006012200019N008000199+02191+01221100211ADDAA124000091AY121021AY201021GA1011+008101081GA2031+060001001GE19MSL   +99999+99999GF104991011999008101999999KA1120M+02611KA2120N+01231MA1999999077151MD1310041+9999MW1041REMSYN12476680 31558 42606 10219 20122 37715 40021 53004 70420 81201 90000 333 10261 20123 30/// 50761 56101 59004 70000 81827 83070=
0221766800999992020021303004+19400-099183FM-12+230399999V0202501N002012200019N010000199+01801+01161100391ADDAY121021AY201021GA1011+060001001GE19MSL   +99999+99999GF101991011999060001999999MA1999999077391MD1210241+9999MW1041REMSYN09476680 31960 12502 10180 20116 37739 40039 52024 70420 80001 90300 333 30/// 56001 58003 81070=
0200766800999992020021312004+19400-099183FM-12+230399999V0209999C999999999999N008000199+01241+00911100921ADDAA124000091AY101021AY201021KA1240M+02611KA2240N+01201MA1999999077371MD1210011+9999MW1041REMSYN10076680 31958 00000 10124 20091 37737 40092 52001 70400 91150 333 10261 20120 30/// 55106 58006 70000=
0221766800999992020021315004+19400-099183FM-12+230399999V0202301N003012200019N003000199+01421+00971101251ADDAY141021AY201021GA1021+060001001GE19MSL   +99999+99999GF102991021999060001999999MA1999999077511MD1310141+9999MW1041REMSYN09476680 31930 22303 10142 20097 37751 40125 53014 70440 80001 91450 333 30/// 56007 58005 82070=
0259766800999992020021318004+19400-099183FM-12+230399999V0200501N002012200019N002000199+02021+01311101191ADDAY141021AY221021GA1011+008401081GE19MSL   +99999+99999GF101991011999008401999999KA1120M+02151KA2120N+01161MA1999999077511MD1990001+9999MW1041REMSYN10676680 31520 10502 10202 20131 37751 40119 50000 70442 81100 91750 333 10215 20116 30/// 56500 58017 81828=
0221766800999992020021321004+19400-099183FM-12+230399999V0200301N00201007501CN002000199+02261+01391100641ADDAY101021AY211021GA1071+007501081GE19MSL   +99999+99999GF107991071999007501999999MA1999999077241MD1610011+9999MW1051REMSYN09476680 31520 70302 10226 20139 37724 40064 56001 70501 87100 92050 333 30/// 56500 58001 87825=
0282766800999992020021400004+19400-099183FM-12+230399999V0201401N00201007501CN006000199+02341+01291100411ADDAA124000091AY121021AY201021GA1051+007501061GE19MSL   +99999+99999GF105991051999007501999999KA1120M+02451KA2120N+01161MA1999999077251MD1310011+9999MW1041REMSYN11876680 31556 51402 10234 20129 37725 40041 53001 70420 85400 90000 333 10245 20116 30/// 50491 56500 58010 70000 85625=
0243766800999992020021403004+19400-099183FM-12+230399999V0203201N00201024001CN006000199+01661+01201100691ADDAY121021AY201021GA1021+007501061GA2031+024001041GE19MSL   +99999+99999GF105991021999007501999999MA1999999077551MD1210301+9999MW1041REMSYN10076680 31556 53202 10166 20120 37755 40069 52030 70420 82420 90300 333 30/// 56110 58016 82625 83458=
0139766800999992020021409004+19400-099183FM-12+230399999V0209999C999999999999N006000199+01331+01061100981ADDAY101021AY201021MA1999999077571MD1710041+0211MW1041REMSYN07676680 31956 00000 10133 20106 37757 40098 57004 70400 90855 333 30/// 58021=
0194766800999992020021412004+19400-099183FM-12+230399999V0209999C999999999999N005000199+01181+00951101321ADDAA124000091AY101021AY201021KA1240M+02451KA2240N+01131MA1999999077631MD1210061+0261MW1041REMSYN09476680 31950 00000 10118 20095 37763 40132 52006 70400 91150 333 10245 20113 30010 58026 70000=
0139766800999992020021415004+19400-099183FM-12+230399999V0209999C999999999999N003000199+01341+01091101651ADDAY141021AY201021MA1999999077771MD1310141+0261MW1041REMSYN07676680 31930 00000 10134 20109 37777 40165 53014 70440 91450 333 30/// 58026=
0177766800999992020021418004+19400-099183FM-12+230399999V0200501N001019999999N002000199+02001+01481101531ADDAY101021AY201021KA1120M+02101KA2120N+01131MA1999999077731MD1610011+0021MW1051REMSYN08876680 31920 00501 10200 20148 37773 40153 56001 70500 91750 333 10210 20113 30/// 58002=
0221766800999992020021421004+19400-099183FM-12+230399999V0200301N002012200019N002000199+02541+01611100931ADDAY101021AY201021GA1021+007501081GE19MSL   +99999+99999GF102991021999007501999999MA1999999077441MD1610021+9999MW1051REMSYN09476680 31520 20302 10254 20161 37744 40093 56002 70500 82100 92050 333 30/// 56500 58002 82825=
0198766800999992020021500004+19400-099183FM-12+230399999V0202101N007019999999N003000199+01851+01331100741ADDAA106000531AY121021AY201021GA1999+008001999GE19MSL   +99999+99999GF108991999999008001999999MA1999999077471MD1310031+9999MW1501REMSYN06076680 01530 82107 10185 20133 37747 40074 53003 69951 75020=
0254766800999992020021503004+19400-099183FM-12+230399999V0201801N00301024001CN003000199+01441+01321101111ADDAA103007031AY151021AY221021GA1031+007501061GA2031+024001041GE19MSL   +99999+99999GF106991031999007501999999MA1999999077801MD1210331+9999MW1041REMSYN10076680 21530 61803 10144 20132 37780 40111 52033 70452 83420 90300 333 30/// 56550 60077 83625 83458=
0178766800999992020021512004+19400-099183FM-12+230399999V0209999C999999999999N003000199+01161+01061999999ADDGE19MSL   +99999+99999GF108991999999999999999999REMSYN11876680 31930 80000 10116 20106 1150 37773 40161 52002 70500 8610 9 333 10261 20110 32/// 55084 56550 58010 70075 86725=
0221766800999992020021515004+19400-099183FM-12+230399999V0202301N002012200019N002000199+01301+01111101851ADDAY141021AY201021GA1011+060001001GE19MSL   +99999+99999GF101991011999060001999999MA1999999077871MD1310141+9999MW1051REMSYN09476680 31920 12302 10130 20111 37787 40185 53014 70540 80004 91450 333 30/// 56003 58010 81070=
0259766800999992020021518004+19400-099183FM-12+230399999V0201601N001012200019N002000199+01961+01401101731ADDAY141021AY241021GA1021+057001021GE19MSL   +99999+99999GF102991021999057001999999KA1120M+02041KA2120N+01101MA1999999077851MD1990021+9999MW1041REMSYN10676680 31920 21601 10196 20140 37785 40173 50002 70444 80008 91750 333 10204 20110 30/// 56005 58012 82269=
0221766800999992020021521004+19400-099183FM-12+230399999V0203601N003012200019N002000199+02461+01471101091ADDAY121021AY201021GA1041+008101081GE19MSL   +99999+99999GF104991041999008101999999MA1999999077541MD1710311+9999MW1041REMSYN09476680 31520 43603 10246 20147 37754 40109 57031 70420 84200 92100 333 30/// 56500 58010 84827=
0304766800999992020021600004+19400-099183FM-12+230399999V0200601N00401024001CN004000199+02301+01401100741ADDAA124007031AY121021AY201021GA1041+007501061GA2031+024001041GE19MSL   +99999+99999GF107991041999007501999999KA1120M+02561KA2120N+01101MA1999999077481MD1710061+9999MW1041REMSYN12476680 31540 70604 10230 20140 37748 40074 57006 70420 84420 90000 333 10256 20110 30/// 50401 56110 58001 70070 84625 83458=
0243766800999992020021603004+19400-099183FM-12+230399999V0200101N00201024001CN008000199+01981+01071100821ADDAY121021AY201021GA1031+007501061GA2031+024001041GE19MSL   +99999+99999GF106991031999007501999999MA1999999077591MD1210111+9999MW1041REMSYN10076680 31558 60102 10198 20107 37759 40082 52011 70420 83420 90300 333 30/// 56110 59020 83625 83458=
0139766800999992020021609004+19400-099183FM-12+230399999V0203201N001019999999N012000199+01451+01161100911ADDAY101021AY201021MA1999999077631MD1710101-0081MW1041REMSYN07676680 31962 03201 10145 20116 37763 40091 57010 70400 90855 333 30/// 59008=
0194766800999992020021612004+19400-099183FM-12+230399999V0202301N001019999999N008000199+01241+00931101101ADDAA124000091AY101021AY201021KA1240M+02561KA2240N+01151MA1999999077591MD1710041-0141MW1041REMSYN09476680 31958 02301 10124 20093 37759 40110 57004 70400 91150 333 10256 20115 30010 59014 70000=
0221766800999992020021615004+19400-099183FM-12+230399999V0209999C999992200019N003000199+01521+01051101441ADDAY101021AY201021GA1041+060001001GE19MSL   +99999+99999GF104991041999060001999999MA1999999077721MD1310131+9999MW1051REMSYN09476680 31930 40000 10152 20105 37772 40144 53013 70500 80004 91450 333 30/// 56005 59015 84070=
0221766800999992020021715004+19400-099183FM-12+230399999V0200501N002012200019N012000199+01541+00931101261ADDAY141021AY201021GA1011+060001001GE19MSL   +99999+99999GF101991011999060001999999MA1999999077531MD1310101+9999MW1041REMSYN09476680 31962 10502 10154 20093 37753 40126 53010 70440 80001 91450 333 30/// 56005 59019 81070=
0259766800999992020021718004+19400-099183FM-12+230399999V0203601N001012200019N005000199+02421+01371101021ADDAY141021AY201021GA1011+060001001GE19MSL   +99999+99999GF101991011999060001999999KA1120M+02551KA2120N+01101MA1999999077431MD1810101+9999MW1041REMSYN10676680 31950 13601 10242 20137 37743 40102 58010 70440 80001 91750 333 10255 20110 30/// 56001 59030 81070=
0243766800999992020021721004+19400-099183FM-12+230399999V0202201N003012200019N008000199+02881+01151100371ADDAY101021AY201021GA1011+008101081GA2021+060001001GE19MSL   +99999+99999GF103991011999008101999999MA1999999077151MD1710281+9999MW1041REMSYN10076680 31558 32203 10288 20115 37715 40037 57028 70400 81201 92100 333 30/// 56101 59035 81827 82070=
0270766800999992020021800004+19400-099183FM-12+230399999V0202101N002019999999N010000199+02821+00961099941ADDAA124000091AY101021AY201021GA1001+999999999GE19MSL   +99999+99999GF199999001999999999999999KA1120M+03051KA2120N+01101MA1999999077081MD1710071+9999MW1001REMSYN10676680 31960 02102 10282 20096 37708 49994 57007 70000 80000 90000 333 10305 20110 30/// 5//// 59022 70000=
0209766800999992020021803004+19400-099183FM-12+230399999V0200801N004019999999N010000199+02031+00951100081ADDAY101021AY201021GA1001+999999999GE19MSL   +99999+99999GF199999001999999999999999MA1999999077351MD1210271-0041MW1001REMSYN08276680 31960 00804 10203 20095 37735 40008 52027 70000 80000 90300 333 30/// 59004=
0200766800999992020021809004+19400-099183FM-12+230399999V0200101N999992200019N013000199+99999+00861100441ADDAY101021AY201021GE19MSL   +99999+99999GF101991999999999999999999MA1999999077401MD1990001-0141MW1041REMSYN07076680 31963 10148 20086 37740 40044 50000 70400 90855 333 30/// 59014=EQDQ010004803WOSPD 
0194766800999992020021812004+19400-099183FM-12+230399999V0209999C999999999999N010000199+01261+00701100821ADDAA124000091AY101021AY201021KA1240M+03051KA2240N+01161MA1999999077431MD1510031+0001MW1041REMSYN09476680 31960 00000 10126 20070 37743 40082 55003 70400 91150 333 10305 20116 30010 58000 70000=
0139766800999992020021815004+19400-099183FM-12+230399999V0203601N001019999999N006000199+01601+01071101241ADDAY141021AY201021MA1999999077591MD1310161+0061MW1041REMSYN07676680 31956 03601 10160 20107 37759 40124 53016 70440 91450 333 30/// 58006=
0177766800999992020021818004+19400-099183FM-12+230399999V0209999V002019999999N004000199+02461+01351101111ADDAY141021AY201021KA1120M+02551KA2120N+01161MA1999999077551MD1810041+0121MW1041REMSYN08876680 31940 09902 10246 20135 37755 40111 58004 70440 91750 333 10255 20116 30/// 58012=
0139766800999992020021821004+19400-099183FM-12+230399999V0201601N003019999999N008000199+02821+01431100531ADDAY101021AY201021MA1999999077301MD1710251+0151MW1041REMSYN07676680 31958 01603 10282 20143 37730 40053 57025 70400 92100 333 30/// 58015=
0200766800999992020021900004+19400-099183FM-12+230399999V0203001N002019999999N008000199+02801+01271100131ADDAA124000091AY101021AY201021KA1120M+02981KA2120N+01161MA1999999077251MD1510051+9999MW1041REMSYN10076680 31958 03002 10280 20127 37725 40013 55005 70400 90000 333 10298 20116 30/// 50711 58017 70000=
0139766800999992020021915004+19400-099183FM-12+230399999V0202301N001019999999N004000199+01541+00861101511ADDAY141021AY201021MA1999999077781MD1310471+0191MW1041REMSYN07676680 31940 02301 10154 20086 37778 40151 53047 70440 91450 333 30/// 58019=
0177766800999992020021918004+19400-099183FM-12+230399999V0200501N002019999999N002000199+02281+01131101381ADDAY101021AY201021KA1120M+02371KA2120N+01151MA1999999077741MD1610011+0011MW1051REMSYN08876680 31920 00502 10228 20113 37774 40138 56001 70500 91750 333 10237 20115 30/// 58001=
0139766800999992020021921004+19400-099183FM-12+230399999V0203001N001019999999N003000199+02701+01401100791ADDAY101021AY201021MA1999999077471MD1610011+0011MW1051REMSYN07676680 31930 03001 10270 20140 37747 40079 56001 70500 92050 333 30/// 58001=
0270766800999992020022000004+19400-099183FM-12+230399999V0203601N004019999999N004000199+02561+00881100441ADDAA124000091AY101021AY201021GA1001+999999999GE19MSL   +99999+99999GF199999001999999999999999KA1120M+02911KA2120N+01151MA1999999077431MD1310041+9999MW1041REMSYN10676680 31940 03604 10256 20088 37743 40044 53004 70400 80000 90000 333 10291 20115 30/// 50751 59004 70000=
0209766800999992020022003004+19400-099183FM-12+230399999V0202001N002019999999N008000199+01941+01111100601ADDAY101021AY201021GA1001+999999999GE19MSL   +99999+99999GF199999001999999999999999MA1999999077681MD1210251+0211MW1041REMSYN08276680 31958 02002 10194 20111 37768 40060 52025 70400 80000 90300 333 30/// 58021=
0189766800999992020022006004+19400-099183FM-12+230399999V0203601N002019999999N012000199+01591+01041100781ADDAY101021AY201021KA1240M+02911KA2240N+01151MA1999999077761MD1110081+9999MW1041REMSYN10076680 31962 03602 10159 20104 37776 40078 51008 70400 90555 333 10291 20115 30/// 55095 21891 58017=
0194766800999992020022012004+19400-099183FM-12+230399999V0209999C999999999999N005000199+01201+00871101251ADDAA124000091AY101021AY201021KA1240M+02911KA2240N+01121MA1999999077671MD1510021+0361MW1041REMSYN09476680 31950 00000 10120 20087 37767 40125 55002 70400 91150 333 10291 20112 30/// 58036 70000=
0221766800999992020022015004+19400-099183FM-12+230399999V0200901N002012200019N003000199+01441+01191101661ADDAY141021AY201021GA1011+060001001GE19MSL   +99999+99999GF101991011999060001999999MA1999999077841MD1310171+9999MW1041REMSYN09476680 31930 10902 10144 20119 37784 40166 53017 70440 80004 91450 333 30/// 56005 59006 81070=
0177766800999992020022018004+19400-099183FM-12+230399999V0203601N003019999999N002000199+02221+01581101581ADDAY101021AY201021KA1120M+02261KA2120N+01121MA1999999077821MD1610061+0081MW1051REMSYN08876680 31920 03603 10222 20158 37782 40158 56006 70500 91750 333 10226 20112 30/// 58008=
0139766800999992020022021004+19400-099183FM-12+230399999V0203301N005019999999N004000199+02481+01411101031ADDAY101021AY201021MA1999999077571MD1610021+0011MW1051REMSYN07676680 31940 03305 10248 20141 37757 40103 56002 70500 92050 333 30/// 58001=
0276766800999992020022100004+19400-099183FM-12+230399999V0200201N010019999999N010000199+02301+01121100811ADDAA124000091AY101021AY201021GA1001+999999999GE19MSL   +99999+99999GF199999001999999999999999KA1120M+02611KA2120N+01121MA1999999077601MD1310031+9999MW1041REMSYN11276680 31960 00210 10230 20112 37760 40081 53003 70400 80000 90000 333 10261 20112 30/// 50811 56/// 58017 70000=
0221766800999992020022103004+19400-099183FM-12+230399999V0202201N005012200019N008000199+01551+00701101151ADDAY101021AY201021GA1031+024001041GE19MSL   +99999+99999GF103991031999024001999999MA1999999077971MD1210371+9999MW1041REMSYN09476680 31858 32205 10155 20070 37797 40115 52037 70400 83020 90305 333 30/// 56050 58029 83458=
0221766800999992020022115004+19400-099183FM-12+230399999V0202901N00301007501CN010000199+01321+01031102211ADDAY101021AY211021GA1051+007501081GE19MSL   +99999+99999GF105991051999007501999999MA1999999078151MD1310011+9999MW1051REMSYN09476680 31560 52903 10132 20103 37815 40221 53001 70501 85100 91450 333 30/// 56500 58003 85825=
0259766800999992020022118004+19400-099183FM-12+230399999V0200601N002012200019N008000199+01801+01351102081ADDAY101021AY211021GA1021+007501081GE19MSL   +99999+99999GF102991021999007501999999KA1120M+01901KA2120N+01051MA1999999078101MD1610091+9999MW1051REMSYN10676680 31558 20602 10180 20135 37810 40208 56009 70501 82100 91750 333 10190 20105 30/// 56500 58002 82825=
0139766800999992020022121004+19400-099183FM-12+230399999V0200501N002019999999N003000199+02381+01741101421ADDAY101021AY211021MA1999999077761MD1610021+0011MW1051REMSYN07676680 31930 00502 10238 20174 37776 40142 56002 70501 92050 333 30/// 58001=
0282766800999992020022200004+19400-099183FM-12+230399999V0201401N004012200019N006000199+02361+01431101031ADDAA124000091AY121021AY201021GA1041+008101081GE19MSL   +99999+99999GF104991041999008101999999KA1120M+02631KA2120N+01051MA1999999077671MD1310091+9999MW1041REMSYN11876680 31556 41404 10236 20143 37767 40103 53009 70420 84200 90000 333 10263 20105 30/// 50531 56500 58007 70000 84827=
0221766800999992020022203004+19400-099183FM-12+230399999V0203301N006012200019N006000199+01281+00671101381ADDAY121021AY201021GA1021+024001041GE19MSL   +99999+99999GF102991021999024001999999MA1999999078031MD1210361+9999MW1041REMSYN09476680 31856 23306 10128 20067 37803 40138 52036 70420 82020 90300 333 30/// 56050 58006 82458=
0271766800999992020022206004+19400-099183FM-12+230399999V0203201N002012200019N014000199+01121+00891101601ADDAY101021AY211021GA1031+024001041GE19MSL   +99999+99999GF103991031999024001999999KA1240M+02631KA2240N+01051MA1999999078121MD1210091+9999MW1041REMSYN11876680 31864 33202 10112 20089 37812 40160 52009 70401 83010 90555 333 10263 20105 30/// 55094 21891 56010 58008 83458=
0221766800999992020022209004+19400-099183FM-12+230399999V0209999C99999024001CN011000199+01081+00831101711ADDAY111021AY221021GA1061+024001041GE19MSL   +99999+99999GF106991061999024001999999MA1999999078011MD1710111+9999MW1041REMSYN09476680 31861 60000 10108 20083 37801 40171 57011 70412 86010 90855 333 30/// 56050 58003 86458=
0276766800999992020022212004+19400-099183FM-12+230399999V0209999C99999024001CN009000199+01051+00821101981ADDAA124000091AY111021AY221021GA1061+024001041GE19MSL   +99999+99999GF106991061999024001999999KA1240M+02631KA2240N+01011MA1999999077971MD1510041+9999MW1041REMSYN11276680 31859 60000 10105 20082 37797 40198 55004 70412 86010 91150 333 10263 20101 30009 56050 59001 70000 86458=
0221766800999992020022215004+19400-099183FM-12+230399999V0209999C999992200019N004000199+01291+00921102301ADDAY101021AY201021GA1011+008401001GE19MSL   +99999+99999GF101991011999008401999999MA1999999078111MD1310141+9999MW1041REMSYN09476680 31540 10000 10129 20092 37811 40230 53014 70400 81100 91450 333 30/// 56100 59004 81028=
0278766800999992020022218004+19400-099183FM-12+230399999V0203601N003012200019N004000199+02181+01391102011ADDAY101021AY201021GA1011+008401081GE19MSL   +99999+99999GF101991011999008401999999KA1120M+02271KA2120N+01011MA1999999078021MD1790299+9999MW1041REMSYN10676680 31540 13603 10218 20139 37802 40201 54009 70400 81100 91750 333 10227 20101 30/// 56100 59008 81828=EQDQ01.9    3APC3  
0221766800999992020022221004+19400-099183FM-12+230399999V0201401N003012200019N004000199+02341+01411101331ADDAY101021AY201021GA1011+008401081GE19MSL   +99999+99999GF101991011999008401999999MA1999999077721MD1710301+9999MW1051REMSYN09476680 31540 11403 10234 20141 37772 40133 57030 70500 81100 92050 333 30/// 56100 59004 81828=
0200766800999992020022300004+19400-099183FM-12+230399999V0209999C999999999999N005000199+02501+01531100911ADDAA124000091AY101021AY201021KA1120M+02661KA2120N+01011MA1999999077641MD1510081+9999MW1041REMSYN10076680 31950 00000 10250 20153 37764 40091 55008 70400 92350 333 10266 20101 30/// 50391 59003 70000=
0209766800999992020022303004+19400-099183FM-12+230399999V0200201N003019999999N006000199+01981+01261100991ADDAY101021AY201021GA1001+999999999GE19MSL   +99999+99999GF199999001999999999999999MA1999999077881MD1210241+0051MW1041REMSYN08276680 31956 00203 10198 20126 37788 40099 52024 70400 80000 90300 333 30/// 58005=
0200766800999992020022312004+19400-099183FM-12+230399999V0209999C999999999999N008000199+01341+00971101101ADDAA124000091AY101021AY201021KA1240M+02661KA2240N+01321MA1999999077781MD1610071+9999MW1041REMSYN10076680 31958 00000 10134 20097 37778 40110 56007 70400 91150 333 10266 20132 30/// 55101 59019 70000=
0139766800999992020022315004+19400-099183FM-12+230399999V0201801N002019999999N003000199+01581+01051101721ADDAY101021AY201021MA1999999077921MD1310141-0191MW1041REMSYN07676680 31930 01802 10158 20105 37792 40172 53014 70400 91445 333 30/// 59019=
0177766800999992020022318004+19400-099183FM-12+230399999V0202701N002019999999N003000199+02251+01451101521ADDAY101021AY201021KA1120M+02321KA2120N+01261MA1999999077851MD1810071-0171MW1041REMSYN08876680 31930 02702 10225 20145 37785 40152 58007 70400 91750 333 10232 20126 30/// 59017=
0221766800999992020022321004+19400-099183FM-12+230399999V0200901N002012200019N003000199+02701+01691100821ADDAY101021AY201021GA1011+008401081GE19MSL   +99999+99999GF101991011999008401999999MA1999999077511MD1710341+9999MW1051REMSYN09476680 31530 10902 10270 20169 37751 40082 57034 70500 81100 92050 333 30/// 56500 59021 81828=
