0298766800999992019010100004+19400-099183FM-12+230399999V0201401N005012200019N005000199+02041+01301100611ADDAA124000091AY141021AY201021GA1011+008101081GA2999+999999001GE19AGL   +99999+99999GF103991011999008101999999KA1120M+02451KA2120N+00951MA1999999077321MD1610111+9999MW1041REMSYN11876680 31550 31405 10204 20130 37732 40061 56011 70440 81054 92350 333 10245 20095 30/// 5//// 56500 58008 70000 81827=
0165766800999992019010103004+19400-099183FM-12+230399999V0201601N002019999999N012000199+01661+01231100661ADDAY141021AY201021GF100995999999999999999999MA1999999077461MD1310141+0071MW1041REMSYN07676680 31962 01602 10166 20123 37746 40066 53014 70440 90250 333 30/// 58007=
0165766800999992019010115004+19400-099183FM-12+230399999V0203601N001019999999N002000199+01101+00691101631ADDAY101021AY201021GF100995999999999999999999MA1999999077501MD1210161-0081MW1051REMSYN07676680 31920 03601 10110 20069 37750 40163 52016 70500 91450 333 30/// 59008=
0203766800999992019010118004+19400-099183FM-12+230399999V0203601N001019999999N002000199+01841+01061101361ADDAY101021AY201021GF100995999999999999999999KA1120M+01891KA2120N+00841MA1999999077421MD1810081-0021MW1041REMSYN08876680 31920 03601 10184 20106 37742 40136 58008 70400 91750 333 10189 20084 30/// 59002=
0282766800999992019010200004+19400-099183FM-12+230399999V0201401N005012200019N006000199+02121+01251100531ADDAA124000091AY141021AY201021GA1031+060001001GE19AGL   +99999+99999GF103991031999060001999999KA1120M+02491KA2120N+00841MA1999999077211MD1210081+9999MW1051REMSYN11876680 31956 31405 10212 20125 37721 40053 52008 70540 80001 92350 333 10249 20084 30/// 50361 56005 59011 70000 83070=
0221766800999992019010203004+19400-099183FM-12+230399999V0203201N001012200019N012000199+01521+01051100611ADDAY141021AY201021GA1011+060001001GE19AGL   +99999+99999GF101991011999060001999999MA1999999077411MD1210201+9999MW1041REMSYN09476680 31962 13201 10152 20105 37741 40061 52020 70440 80004 90250 333 30/// 56005 59002 81070=
0221766800999992019010215004+19400-099183FM-12+230399999V0200501N001012200019N001000199+01021+00781101731ADDAY101021AY211021GA1021+060001001GE19AGL   +99999+99999GF102991021999060001999999MA1999999077641MD1310021+9999MW1051REMSYN09476680 31910 20501 10102 20078 37764 40173 53002 70501 80001 91450 333 30/// 56005 58014 82070=
0281766800999992019010218004+19400-099183FM-12+230399999V0200601N00101060001CN002000199+01701+01081101521ADDAY111021AY211021GA1031+024001021GA2031+060001021GE19AGL   +99999+99999GF106991031999024001999999KA1120M+01791KA2120N+00721MA1999999077521MD1710111+9999MW1051REMSYN11276680 31820 60601 10170 20108 37752 40152 57011 70511 83018 91755 333 10179 20072 30/// 56011 58010 83258 83270=
0243766800999992019010221004+19400-099183FM-12+230399999V0201801N00101008401CN002000199+02081+01171100921ADDAY111021AY211021GA1021+007501061GA2041+008401081GE19AGL   +99999+99999GF108991021999007501999999MA1999999077201MD1710181+9999MW1051REMSYN10076680 31220 81801 10208 20117 37720 40092 57018 70511 86810 92205 333 30/// 56550 59022 82625 84828=
0221766800999992019010303004+19400-099183FM-12+230399999V0202501N003012200019N012000199+01441+00811100771ADDAY101021AY201021GA1011+060001021GE19AGL   +99999+99999GF101991011999060001999999MA1999999077411MD1310181+9999MW1001REMSYN09476680 31962 12503 10144 20081 37741 40077 53018 70000 80007 90250 333 30/// 56005 58000 81270=
0243766800999992019010315004+19400-099183FM-12+230399999V0203201N00101007501CN003000199+00961+00571101691ADDAY111021AY211021GA1051+007501081GA2031+008401061GE19AGL   +99999+99999GF108991051999007501999999MA1999999077681MD1310021+9999MW1051REMSYN10076680 31530 83201 10096 20057 37768 40169 53002 70511 88800 91450 333 30/// 56100 58004 85825 83628=
0275766800999992019010318004+19400-099183FM-12+230399999V0200601N001019999999N003000199+01741+00981101631ADDAY111021AY211021GA1041+007501081GA2999+999999001GE19AGL   +99999+99999GF106991041999007501999999KA1120M+01801KA2120N+00701MA1999999077541MD1610161+9999MW1051REMSYN10676680 31830 60601 10174 20098 37754 40163 56016 70511 84101 91755 333 10180 20070 30/// 56101 58002 84825=
0243766800999992019010321004+19400-099183FM-12+230399999V0202401N00201024001CN003000199+02081+01171101101ADDAY111021AY211021GA1041+007501081GA2031+024001041GE19AGL   +99999+99999GF107991041999007501999999MA1999999077321MD1610161+9999MW1051REMSYN10076680 31530 72402 10208 20117 37732 40110 56016 70511 84110 92205 333 30/// 56110 58012 84825 83458=
0301766800999992019010400004+19400-099183FM-12+230399999V0201401N002010570019N003000199+02141+01311100781ADDAA124000091AY141021AY201021GA1051+057001021GE19AGL   +99999+99999GF105991051999057001999999KA1120M+02351KA2120N+00701MA1999999077321MD1790329+9999MW1041REMSYN11876680 31930 51402 10214 20131 37732 40078 56000 70440 80004 92350 333 10235 20070 30/// 50231 56005 58009 70000 85269=EQDQ010     3APC3  
0221766800999992019010403004+19400-099183FM-12+230399999V0209999C999992200019N012000199+01561+01191100851ADDAY141021AY201021GA1041+060001021GE19AGL   +99999+99999GF104991041999060001999999MA1999999077521MD1310021+9999MW1041REMSYN09476680 31962 40000 10156 20119 37752 40085 53002 70440 80007 90250 333 30/// 56005 58011 84270=
0221766800999992019010415004+19400-099183FM-12+230399999V0200101N001012200019N003000199+01201+00761101821ADDAY101021AY201021GA1011+060001001GE19AGL   +99999+99999GF101991011999060001999999MA1999999077701MD1310051+9999MW1051REMSYN09476680 31930 10101 10120 20076 37770 40182 53005 70500 80001 91450 333 30/// 56003 58002 81070=
0259766800999992019010418004+19400-099183FM-12+230399999V0200201N002012200019N003000199+01881+01141101681ADDAY101021AY201021GA1011+060001001GE19AGL   +99999+99999GF101991011999060001999999KA1120M+01951KA2120N+00751MA1999999077671MD1610071+9999MW1051REMSYN10676680 31930 10202 10188 20114 37767 40168 56007 70500 80001 91750 333 10195 20075 30/// 56001 58013 81070=
0221766800999992019010421004+19400-099183FM-12+230399999V0202601N002012200019N003000199+02321+01351101091ADDAY101021AY201021GA1021+060001001GE19AGL   +99999+99999GF102991021999060001999999MA1999999077421MD1610121+9999MW1051REMSYN09476680 31930 22602 10232 20135 37742 40109 56012 70500 80001 92050 333 30/// 56003 58010 82070=
0298766800999992019010500004+19400-099183FM-12+230399999V0202901N002019999999N002000199+02101+01491100861ADDAA124000091AY141021AY201021GA1021+007501061GA2999+999999031GE19AGL   +99999+99999GF105991021999007501999999KA1120M+02401KA2120N+00751MA1999999077481MD1510061+9999MW1051REMSYN11876680 31520 52902 10210 20149 37748 40086 55006 70540 83870 92350 333 10240 20075 30/// 50421 56550 58016 70000 82625=
0150766800999992019010502504+19404-099196FM-12+230999999V0200201N0010122000199012000199+01701+01181100921ADDAY141031AY201031GA1021+060001001GE19AGL   +99999+99999GF102991021999060001999999MA1999999077661MD1999999+0141MW1041REMSYN004BUFREQDQ012     3APCTEN
0221766800999992019010503004+19400-099183FM-12+230399999V0200201N001012200019N012000199+01701+01181100921ADDAY141021AY201021GA1021+060001001GE19AGL   +99999+99999GF102991021999060001999999MA1999999077661MD1210181+9999MW1041REMSYN09476680 31962 20201 10170 20118 37766 40092 52018 70440 80004 90250 333 30/// 56005 58014 82070=
0154766800999992019010515004+19400-099183FM-12+230399999V0200501N001012200019N002000199+01201+99999999999ADDGE19AGL   +99999+99999GF103991999999999999999999REMSYN09476680 31920 30501 10120 2083 1450 37788 40187 53019 70440 80008 9 333 30/// 56005 58018 83269=
0259766800999992019010518004+19400-099183FM-12+230399999V0200201N002012200019N002000199+02021+01221101741ADDAY101021AY201021GA1031+060001001GE19AGL   +99999+99999GF103991031999060001999999KA1120M+02091KA2120N+00861MA1999999077811MD1810071+9999MW1051REMSYN10676680 31920 30202 10202 20122 37781 40174 58007 70500 80001 91750 333 10209 20086 30/// 56005 58014 83070=
0221766800999992019010521004+19400-099183FM-12+230399999V0203201N002012200019N003000199+02361+01421101191ADDAY101021AY201021GA1021+060001001GE19AGL   +99999+99999GF102991021999060001999999MA1999999077561MD1710251+9999MW1051REMSYN09476680 31930 23202 10236 20142 37756 40119 57025 70500 80001 92050 333 30/// 56005 58014 82070=
0314766800999992019010600004+19400-099183FM-12+230399999V0203201N002012200019N005000199+02131+01281100961ADDAA124000091AY101021AY201021GA1021+008401081GA2999+999999041GA3999+999999001GE19AGL   +99999+99999GF104991021999008401999999KA1120M+02441KA2120N+00861MA1999999077581MD1310021+9999MW1051REMSYN11876680 31550 43202 10213 20128 37758 40096 53002 70500 82111 92350 333 10244 20086 30/// 50491 56555 58010 70000 82828=
0165766800999992019010603004+19400-099183FM-12+230399999V0202901N003019999999N006000199+01681+01021101111ADDAY101021AY201021GF100995999999999999999999MA1999999077821MD1210241+0161MW1001REMSYN07676680 31956 02903 10168 20102 37782 40111 52024 70000 90250 333 30/// 58016=
0231766800999992019010612004+19400-099183FM-12+230399999V0202301N001019999999N008000199+01101+00781101371ADDAA124000091AY101021AY201021GF100995999999999999999999KA1240M+02441KA2240N+01091MA1999999077771MW1041REMSYN10076680 31958 02301 10110 20078 37777 40137 54001 70400 91210 333 10244 20109 30009 55084 59004 70000=EQDQ014     3APCTEN
0221766800999992019010615004+19400-099183FM-12+230399999V0209999C999992200019N003000199+01221+00821101971ADDAY101021AY201021GA1011+024001041GE19AGL   +99999+99999GF101991011999024001999999MA1999999077921MD1210151+9999MW1051REMSYN09476680 31830 10000 10122 20082 37792 40197 52015 70500 81010 91450 333 30/// 56050 58004 81458=
0203766800999992019010618004+19400-099183FM-12+230399999V0202901N002019999999N003000199+02051+01271101731ADDAY101021AY201021GF100995999999999999999999KA1120M+02131KA2120N+01031MA1999999077831MD1810091+0021MW1041REMSYN08876680 31930 02902 10205 20127 37783 40173 58009 70400 91750 333 10213 20103 30/// 58002=
0221766800999992019010621004+19400-099183FM-12+230399999V0203601N004012200019N005000199+02341+01271101161ADDAY101021AY201021GA1011+060001001GE19AGL   +99999+99999GF101991011999060001999999MA1999999077561MD1710271+9999MW1051REMSYN09476680 31950 13604 10234 20127 37756 40116 57027 70500 80001 92050 333 30/// 56005 58000 81070=
0282766800999992019010700004+19400-099183FM-12+230399999V0203201N003012200019N006000199+02141+01141100921ADDAA124000091AY101021AY201021GA1031+060001001GE19AGL   +99999+99999GF103991031999060001999999KA1120M+02441KA2120N+01031MA1999999077571MD1310011+9999MW1051REMSYN11876680 31956 33203 10214 20114 37757 40092 53001 70500 80001 92350 333 10244 20103 30/// 50411 56005 59026 70000 83070=
0165766800999992019010703004+19400-099183FM-12+230399999V0203601N001019999999N008000199+01711+01101101021ADDAY101021AY201021GF100995999999999999999999MA1999999077771MD1210201-0051MW1051REMSYN07676680 31958 03601 10171 20110 37777 40102 52020 70500 90250 333 30/// 59005=
0221766800999992019010715004+19400-099183FM-12+230399999V0200501N002012200019N002000199+01281+00811101871ADDAY141021AY201021GA1011+060001001GE19AGL   +99999+99999GF101991011999060001999999MA1999999077901MD1210101+9999MW1041REMSYN09476680 31920 10502 10128 20081 37790 40187 52010 70440 80001 91450 333 30/// 56007 59002 81070=
0259766800999992019010718004+19400-099183FM-12+230399999V0203401N004012200019N002000199+02061+01211101641ADDAY101021AY201021GA1021+060001001GE19AGL   +99999+99999GF102991021999060001999999KA1120M+02061KA2120N+00951MA1999999077771MD1610141+9999MW1051REMSYN10676680 31920 23404 10206 20121 37777 40164 56014 70500 80001 91750 333 10206 20095 30/// 56003 59006 82070=
0221766800999992019010721004+19400-099183FM-12+230399999V0200101N004012200019N003000199+02261+01251101131ADDAY101021AY201021GA1021+060001001GE19AGL   +99999+99999GF102991021999060001999999MA1999999077541MD1610131+9999MW1051REMSYN09476680 31930 20104 10226 20125 37754 40113 56013 70500 80001 92050 333 30/// 56003 59002 82070=
0282766800999992019010800004+19400-099183FM-12+230399999V0203501N005010600019N005000199+02081+01031100961ADDAA124000091AY121021AY221021GA1071+060001001GE19AGL   +99999+99999GF107991071999060001999999KA1120M+02351KA2120N+00951MA1999999077591MD1310051+9999MW1051REMSYN11876680 31950 73505 10208 20103 37759 40096 53005 70522 80001 92350 333 10235 20095 30/// 50521 56005 58002 70000 87070=
0237766800999992019010803004+19400-099183FM-12+230399999V0200201N002012200019N015000199+01661+00731101091ADDAY121021AY221021GA1031+024001041GA2999+999999001GE19AGL   +99999+99999GF104991031999024001999999MA1999999077811MD1210221+9999MW1051REMSYN09476680 31865 40202 10166 20073 37781 40109 52022 70522 83011 90250 333 30/// 56055 58004 83458=
0220766800999992019010812004+19400-099183FM-12+230399999V0201201N001019999999N012000199+00861+00461101711ADDAA124000091AY101021AY201021GF100995999999999999999999KA1240M+02351KA2240N+00781MA1999999077801MD1210071+9999MW1041REMSYN09476680 31962 01201 10086 20046 37780 40171 52007 70400 91150 333 10235 20078 30006 59800 70000=
0154766800999992019010815004+19400-099183FM-12+230399999V0201601N002012200019N006000199+01001+99999999999ADDGE19AGL   +99999+99999GF103991999999999999999999REMSYN09476680 31956 31602 10100 2065 1450 37794 40212 53014 70440 80001 9 333 30/// 56005 58004 83070=
0259766800999992019010818004+19400-099183FM-12+230399999V0200101N001012200019N003000199+01721+00811102051ADDAY101021AY201021GA1011+060001001GE19AGL   +99999+99999GF101991011999060001999999KA1120M+01801KA2120N+00701MA1999999077901MD1610041+9999MW1051REMSYN10676680 31930 10101 10172 20081 37790 40205 56004 70500 80001 91750 333 10180 20070 30/// 56001 58013 81070=
0165766800999992019010821004+19400-099183FM-12+230399999V0203101N002019999999N003000199+02221+00771101491ADDAY101021AY201021GF100995999999999999999999MA1999999077631MD1610161+0091MW1051REMSYN07676680 31930 03102 10222 20077 37763 40149 56016 70500 92050 333 30/// 58009=
0226766800999992019010900004+19400-099183FM-12+230399999V0203401N005019999999N008000199+02081+00831101221ADDAA124000091AY101021AY201021GF100995999999999999999999KA1120M+02371KA2120N+00701MA1999999077651MD1310031+9999MW1051REMSYN10076680 31958 03405 10208 20083 37765 40122 53003 70500 92350 333 10237 20070 30/// 50541 58006 70000=
0165766800999992019010903004+19400-099183FM-12+230399999V0203001N004019999999N015000199+01481+00371101311ADDAY101021AY201021GF100995999999999999999999MA1999999077861MD1210211+0051MW1051REMSYN07676680 31965 03004 10148 20037 37786 40131 52021 70500 90250 333 30/// 58005=
0165766800999992019010915004+19400-099183FM-12+230399999V0203201N002019999999N004000199+00801+00351102531ADDAY141021AY201021GF100995999999999999999999MA1999999078131MD1310161+0191MW1041REMSYN07676680 31940 03202 10080 20035 37813 40253 53016 70440 91450 333 30/// 58019=
0165766800999992019010921004+19400-099183FM-12+230399999V0200101N002019999999N002000199+01841+01031101891ADDAY101021AY201021GF100995999999999999999999MA1999999077771MD1610201+0141MW1051REMSYN07676680 31920 00102 10184 20103 37777 40189 56020 70500 92050 333 30/// 58014=
0245766800999992019011000004+19400-099183FM-12+230399999V0202801N002019999999N005000199+01891+01141101601ADDAA124000091AY101021AY201021GF100995999999999999999999KA1120M+02111KA2120N+00601MA1999999077761MD1790299+9999MW1051REMSYN10076680 31950 02802 10189 20114 37776 40160 54001 70500 92350 333 10211 20060 30/// 50431 58011 70000=EQDQ01.1    3APC3  
0165766800999992019011003004+19400-099183FM-12+230399999V0203101N004019999999N012000199+01201+00831101721ADDAY101021AY201021GF100995999999999999999999MA1999999077971MD1210211+0111MW1051REMSYN07676680 31962 03104 10120 20083 37797 40172 52021 70500 90250 333 30/// 58011=
0195766800999992019011009004+19400-099183FM-12+230399999V0203601N00201024001CN011000199+99999+00751101901ADDGA1041+008401081GA2041+024001041GE19AGL   +99999+99999GF108991041999008401999999MA1999999077961MW1041REMSYN08276680 31561 83602 20075 37796 40190 704// 84110 90650 333 30/// 56110 84828 84458=
0298766800999992019011012004+19400-099183FM-12+230399999V0200901N00201008401CN009000199+00991+00771102091ADDAA124000091AY101021AY221021GA1051+008401081GA2031+024001041GE19AGL   +99999+99999GF108991051999008401999999KA1240M+02111KA2240N+00941MA1999999077931MD1710031+9999MW1041REMSYN11876680 31559 80902 10099 20077 37793 40209 57003 70402 85110 91150 333 10211 20094 30008 56110 59004 70000 85828 83458=
0243766800999992019011015004+19400-099183FM-12+230399999V0201401N00201008401CN003000199+00961+00891102321ADDAY141021AY221021GA1031+007501061GA2031+008401081GE19AGL   +99999+99999GF108991031999007501999999MA1999999078031MD1310101+9999MW1101REMSYN10076680 31530 81402 10096 20089 37803 40232 53010 71042 86820 91450 333 30/// 56110 59010 83625 83828=
0259766800999992019011018004+19400-099183FM-12+230399999V0201001N003012200019N002000199+01601+01071102031ADDAY111021AY201021GA1011+008401081GE19AGL   +99999+99999GF101991011999008401999999KA1120M+01701KA2120N+00921MA1999999077881MD1610161+9999MW1051REMSYN10676680 31520 11003 10160 20107 37788 40203 56016 70510 81100 91750 333 10170 20092 30/// 56100 59021 81828=
0165766800999992019011021004+19400-099183FM-12+230399999V0200301N001019999999N002000199+01981+01161101481ADDAY101021AY201021GF100995999999999999999999MA1999999077621MD1610131-0151MW1051REMSYN07676680 31920 00301 10198 20116 37762 40148 56013 70500 92050 333 30/// 59015=
0282766800999992019011100004+19400-099183FM-12+230399999V0201001N002012200019N005000199+01981+01171101191ADDAA124000091AY101021AY201021GA1041+008101081GE19AGL   +99999+99999GF104991041999008101999999KA1120M+02251KA2120N+00921MA1999999077591MD1510031+9999MW1051REMSYN11876680 31550 41002 10198 20117 37759 40119 55003 70500 84100 92350 333 10225 20092 30/// 50441 56100 59017 70000 84827=
0221766800999992019011103004+19400-099183FM-12+230399999V0202801N00301008101CN010000199+01541+01001101201ADDAY121021AY221021GA1051+008101081GE19AGL   +99999+99999GF105991051999008101999999MA1999999077721MD1210131+9999MW1051REMSYN09476680 31560 52803 10154 20100 37772 40120 52013 70522 85100 90250 333 30/// 56100 59025 85827=
0165766800999992019011115004+19400-099183FM-12+230399999V0200901N001019999999N002000199+01221+00781101751ADDAY101021AY201021GF100995999999999999999999MA1999999077761MD1310121-0271MW1051REMSYN07676680 31920 00901 10122 20078 37776 40175 53012 70500 91450 333 30/// 59027=
0259766800999992019011118004+19400-099183FM-12+230399999V0201401N001012200019N002000199+01901+01101101531ADDAY101021AY201021GA1011+007501081GE19AGL   +99999+99999GF101991011999007501999999KA1120M+01961KA2120N+00881MA1999999077641MD1610131+9999MW1051REMSYN10676680 31520 11401 10190 20110 37764 40153 56013 70500 81100 91750 333 10196 20088 30/// 56500 59024 81825=
0221766800999992019011121004+19400-099183FM-12+230399999V0200901N001012200019N002000199+02281+01301100921ADDAY101021AY201021GA1021+007501081GE19AGL   +99999+99999GF102991021999007501999999MA1999999077341MD1610161+9999MW1051REMSYN09476680 31520 20901 10228 20130 37734 40092 56016 70500 82100 92050 333 30/// 56500 59028 82825=
0282766800999992019011200004+19400-099183FM-12+230399999V0202601N00401008101CN003000199+01901+01131100701ADDAA124000091AY121021AY221021GA1071+008101081GE19AGL   +99999+99999GF107991071999008101999999KA1120M+02401KA2120N+00881MA1999999077351MD1510021+9999MW1051REMSYN11876680 31530 72604 10190 20113 37735 40070 55002 70522 87100 92350 333 10240 20088 30/// 50461 56500 59024 70000 87827=
0221766800999992019011203004+19400-099183FM-12+230399999V0203401N00301008101CN012000199+01601+01051100791ADDAY121021AY221021GA1061+008101081GE19AGL   +99999+99999GF106991061999008101999999MA1999999077521MD1210171+9999MW1051REMSYN09476680 31562 63403 10160 20105 37752 40079 52017 70522 86100 90250 333 30/// 56500 59020 86827=
0271766800999992019011206004+19400-099183FM-12+230399999V0202701N00101008401CN012000199+01521+01031100911ADDAY101021AY221021GA1061+008401081GE19AGL   +99999+99999GF106991061999008401999999KA1240M+02401KA2240N+00881MA1999999077591MD1210071+9999MW1041REMSYN11876680 31562 62701 10152 20103 37759 40091 52007 70402 86100 90550 333 10240 20088 30/// 55083 21382 56500 59009 86828=
0221766800999992019011209004+19400-099183FM-12+230399999V0209999C99999008401CN010000199+01401+01031101061ADDAY101021AY221021GA1081+008401081GE19AGL   +99999+99999GF108991081999008401999999MA1999999077571MD1610021+9999MW1041REMSYN09476680 31560 80000 10140 20103 37757 40106 56002 70402 88100 90855 333 30/// 56500 59010 88828=
0243766800999992019011215004+19400-099183FM-12+230399999V0209999C99999008401CN002000199+01241+01021101631ADDAY141021AY201021GA1031+007501061GA2031+008401081GE19AGL   +99999+99999GF108991031999007501999999MA1999999077791MD1310201+9999MW1041REMSYN10076680 31520 80000 10124 20102 37779 40163 53020 70440 86820 91450 333 30/// 56550 58003 83625 83828=
0259766800999992019011218004+19400-099183FM-12+230399999V0201801N002012200019N003000199+01761+01211101601ADDAY101021AY221021GA1041+008101081GE19AGL   +99999+99999GF104991041999008101999999KA1120M+01891KA2120N+01161MA1999999077771MD1810021+9999MW1051REMSYN10676680 31530 41802 10176 20121 37777 40160 58002 70502 84100 91750 333 10189 20116 30/// 56500 58013 84827=
0221766800999992019011221004+19400-099183FM-12+230399999V0202201N00101008101CN003000199+01951+01171101071ADDAY121021AY211021GA1061+008101081GE19AGL   +99999+99999GF106991061999008101999999MA1999999077461MD1710311+9999MW1051REMSYN09476680 31530 62201 10195 20117 37746 40107 57031 70521 86200 92050 333 30/// 56500 58012 86827=
0217766800999992019011300004+19400-099183FM-12+230399999V0202701N005019999999N003000199+01531+01011101071ADDAA106000091AY121021AY221021GA1999+008001999GE19AGL   +99999+99999GF108991999999008001999999MA1999999077541MD1310081+9999MW1141REMSYN06076680 11530 82705 10153 20101 37754 40107 53008 69901 71422=EQDQ01  00002PRCP06
0221766800999992019011303004+19400-099183FM-12+230399999V0203401N00201008101CN004000199+01251+01091101391ADDAY121021AY221021GA1071+008101081GE19AGL   +99999+99999GF107991071999008101999999MA1999999077801MD1210261+9999MW1051REMSYN09476680 31540 73402 10125 20109 37780 40139 52026 70522 87200 90250 333 30/// 56100 58028 87827=
0243766800999992019011315004+19400-099183FM-12+230399999V0202301N00201008101CN003000199+01191+00981101971ADDAY121021AY221021GA1021+007501061GA2031+008101081GE19AGL   +99999+99999GF107991021999007501999999MA1999999077901MD1310131+9999MW1051REMSYN10076680 31530 72302 10119 20098 37790 40197 53013 70522 85820 91450 333 30/// 56550 58011 82625 83827=
0275766800999992019011318004+19400-099183FM-12+230399999V0202301N00201008101CN003000199+01531+01071101871ADDAY121021AY221021GA1051+008101081GA2999+999999041GE19AGL   +99999+99999GF106991051999008101999999KA1120M+01591KA2120N+01131MA1999999077861MD1810041+9999MW1011REMSYN10676680 31530 62302 10153 20107 37786 40187 58004 70122 85210 91750 333 10159 20113 30/// 56110 58009 85827=
0253766800999992019011321004+19400-099183FM-12+230399999V0200501N002019999999N003000199+01801+01141101441ADDAY121021AY221021GA1031+008101081GA2999+999999041GA3999+999999021GE19AGL   +99999+99999GF106991031999008101999999MA1999999077631MD1710231+9999MW1051REMSYN09476680 31530 60502 10180 20114 37763 40144 57023 70522 83216 92050 333 30/// 56111 58017 83827=
0339766800999992019011400004+19400-099183FM-12+230399999V0203401N00401024001CN003000199+01671+01111101301ADDAA124000091AY121021AY221021GA1041+008101061GA2031+024001041GA3999+999999001GE19AGL   +99999+99999GF108991041999008101999999KA1120M+01911KA2120N+01131MA1999999077631MD1410001+9999MW1021REMSYN12476680 31530 83404 10167 20111 37763 40130 54000 70222 84221 92350 333 10191 20113 30/// 50211 56111 58009 79999 84627 83458=EQDQ01  00002PRCP24
0238766800999992019011403004+19400-099183FM-12+230399999V0203201N00301008101CN004000199+01221+00961101541ADDAA103002031AY121021AY221021GA1081+008101081GE19AGL   +99999+99999GF108991081999008101999999MA1999999077851MD1210221+9999MW1051REMSYN10076680 21540 83203 10122 20096 37785 40154 52022 70522 88200 90250 333 30/// 56100 58005 60027 88827=
0276766800999992019011412004+19400-099183FM-12+230399999V0203201N00201006601CN012000199+01141+00841101961ADDAA124000231AY141021AY221021GA1061+006601061GE19AGL   +99999+99999GF108991061999006601999999KA1240M+01801KA2240N+00491MA1999999077861MD1610011+9999MW1041REMSYN11276680 31562 83202 10114 20084 37786 40196 56001 70442 88800 91150 333 10180 20049 300// 56700 59000 70002 86622=
0243766800999992019011415004+19400-099183FM-12+230399999V0203101N00301008401CN002000199+01041+00871102121ADDAY111021AY211021GA1021+007501081GA2041+008401061GE19AGL   +99999+99999GF108991021999007501999999MA1999999077981MD1310141+9999MW1051REMSYN10076680 31520 83103 10104 20087 37798 40212 53014 70511 86810 91450 333 30/// 56770 58008 82825 84628=
0281766800999992019011418004+19400-099183FM-12+230399999V0203001N00301008401CN002000199+01261+01101102091ADDAY111021AY211021GA1031+007501081GA2031+008401061GE19AGL   +99999+99999GF108991031999007501999999KA1120M+01301KA2120N+00951MA1999999077951MD1610081+9999MW1051REMSYN11276680 31520 83003 10126 20110 37795 40209 56008 70511 86810 91750 333 10130 20095 30/// 56110 58009 83825 83628=
0237766800999992019011421004+19400-099183FM-12+230399999V0202901N003012200019N002000199+01861+01221101581ADDAY111021AY201021GA1011+007501081GA2999+999999001GE19AGL   +99999+99999GF102991011999007501999999MA1999999077651MD1610201+9999MW1051REMSYN09476680 31520 22903 10186 20122 37765 40158 56020 70510 81101 92050 333 30/// 56101 58002 81825=
0298766800999992019011500004+19400-099183FM-12+230399999V0203301N003019999999N006000199+01741+01021101341ADDAA124002231AY121021AY201021GA1031+007501061GA2999+999999051GE19AGL   +99999+99999GF105991031999007501999999KA1120M+02051KA2120N+00951MA1999999077601MD1510051+9999MW1041REMSYN11876680 31556 53303 10174 20102 37760 40134 55005 70420 83420 90000 333 10205 20095 30/// 50501 56110 59003 70022 83625=
0243766800999992019011503004+19400-099183FM-12+230399999V0203001N00301024001CN008000199+01281+00851101501ADDAY121021AY201021GA1031+008101081GA2041+024001041GE19AGL   +99999+99999GF107991031999008101999999MA1999999077801MD1210201+9999MW1041REMSYN10076680 31558 73003 10128 20085 37780 40150 52020 70420 83220 90300 333 30/// 56110 59005 83827 84458=
0165766800999992019011515004+19400-099183FM-12+230399999V0203101N001019999999N002000199+00941+00731102251ADDAY101021AY201021GF100995999999999999999999MA1999999077941MD1310041-0041MW1051REMSYN07676680 31920 03101 10094 20073 37794 40225 53004 70500 91450 333 30/// 59004=
0259766800999992019011518004+19400-099183FM-12+230399999V0200901N002012200019N002000199+01581+01041102091ADDAY101021AY201021GA1021+060001001GE19AGL   +99999+99999GF102991021999060001999999KA1120M+01651KA2120N+00751MA1999999077871MD1610091+9999MW1051REMSYN10676680 31920 20902 10158 20104 37787 40209 56009 70500 80001 91750 333 10165 20075 30/// 56001 59008 82070=
0221766800999992019011521004+19400-099183FM-12+230399999V0202801N002012200019N002000199+01901+01201101521ADDAY101021AY201021GA1021+008401081GE19AGL   +99999+99999GF102991021999008401999999MA1999999077601MD1610171+9999MW1051REMSYN09476680 31520 22802 10190 20120 37760 40152 56017 70500 82100 92050 333 30/// 56100 59005 82828=
0301766800999992019011600004+19400-099183FM-12+230399999V0200501N002019999999N006000199+01841+01031101261ADDAA124000091AY121021AY201021GA1041+008101081GE19AGL   +99999+99999GF105991041999008101999999KA1120M+02101KA2120N+00751MA1999999077591MD1790269+9999MW1041REMSYN11876680 31556 50502 10184 20103 37759 40126 54001 70420 84200 90000 333 10210 20075 30/// 50311 56100 59001 70000 84827=EQDQ01.1    3APC3  
0276766800999992019011612004+19400-099183FM-12+230399999V0203201N00201008401CN012000199+01081+00881101851ADDAA124000091AY101021AY201021GA1061+008401061GE19AGL   +99999+99999GF108991061999008401999999KA1240M+02101KA2240N+00901MA1999999077861MD1310021+9999MW1021REMSYN11276680 31562 83202 10108 20088 37786 40185 53002 70200 88800 91150 333 10210 20090 30/// 56700 59004 70000 86628=
0221766800999992019011615004+19400-099183FM-12+230399999V0200501N001010600019N002000199+01181+00921102011ADDAY141021AY201021GA1061+060001001GE19AGL   +99999+99999GF106991061999060001999999MA1999999077941MD1310111+9999MW1041REMSYN09476680 31920 60501 10118 20092 37794 40201 53011 70440 80004 91450 333 30/// 56005 58000 86070=
0265766800999992019011618004+19400-099183FM-12+230399999V0201701N001010600019N002000199+01881+01181101821ADDAY111021AY211021GA1051+060001001GE19AGL   +99999+99999GF105991051999060001999999KA1120N+00751MA1999999077851MD1610091+9999MW1051REMSYN10676680 31920 51701 10188 20118 37785 40182 56009 70511 80008 91750 333 10165 20075 30/// 56001 59002 85070=EQDQ0116.5  2EATMX 
0243766800999992019011621004+19400-099183FM-12+230399999V0203301N00201024001CN002000199+02081+01271101261ADDAY111021AY211021GA1021+008401081GA2041+024001041GE19AGL   +99999+99999GF106991021999008401999999MA1999999077571MD1610171+9999MW1051REMSYN10076680 31520 63302 10208 20127 37757 40126 56017 70511 82110 92050 333 30/// 56110 59003 82828 84458=
0304766800999992019011700004+19400-099183FM-12+230399999V0202601N00101024001CN003000199+02001+01111101021ADDAA124000091AY121021AY201021GA1031+008101081GA2031+024001041GE19AGL   +99999+99999GF106991031999008101999999KA1120M+02161KA2120N+00981MA1999999077541MD1510031+9999MW1041REMSYN12476680 31530 62601 10200 20111 37754 40102 55003 70420 83220 90000 333 10216 20098 30/// 50401 56110 59005 70000 83827 83458=
0243766800999992019011703004+19400-099183FM-12+230399999V0203101N00301024001CN006000199+01641+01081101181ADDAY121021AY201021GA1021+008101081GA2061+024001041GE19AGL   +99999+99999GF108991021999008101999999MA1999999077771MD1210231+9999MW1041REMSYN10076680 31556 83103 10164 20108 37777 40118 52023 70420 82220 90300 333 30/// 56110 59001 82827 86458=
0243766800999992019011715004+19400-099183FM-12+230399999V0202901N00101060001CN002000199+01221+00991101901ADDAY141021AY201021GA1031+024001041GA2031+060001001GE19AGL   +99999+99999GF106991031999024001999999MA1999999077891MD1310101+9999MW1051REMSYN10076680 31820 62901 10122 20099 37789 40190 53010 70540 83024 91450 333 30/// 56055 59005 83458 83070=
0281766800999992019011718004+19400-099183FM-12+230399999V0200101N001019999999N002000199+01781+01271101801ADDAY111021AY211021GA1021+024001041GA2031+060001001GE19AGL   +99999+99999GF105991021999024001999999KA1120M+01851KA2120N+01061MA1999999077851MD1610081+9999MW1051REMSYN11276680 31820 50101 10178 20127 37785 40180 56008 70511 82011 91750 333 10185 20106 30/// 56055 59002 82458 83070=
0243766800999992019011721004+19400-099183FM-12+230399999V0200201N00201008401CN002000199+02021+01301101241ADDAY111021AY211021GA1011+007501061GA2051+008401081GE19AGL   +99999+99999GF107991011999007501999999MA1999999077551MD1610191+9999MW1051REMSYN10076680 31520 70202 10202 20130 37755 40124 56019 70511 86810 92050 333 30/// 56550 59002 81625 85828=
0243766800999992019011803004+19400-099183FM-12+230399999V0200101N00101024001CN006000199+01601+01031101111ADDAY121021AY201021GA1021+008101081GA2041+024001041GE19AGL   +99999+99999GF106991021999008101999999MA1999999077691MD1210161+9999MW1041REMSYN10076680 31556 60101 10160 20103 37769 40111 52016 70420 82220 90300 333 30/// 56110 59008 82827 84458=
0243766800999992019011815004+19400-099183FM-12+230399999V0200101N001019999999N002000199+01241+00981101701ADDAY111021AY211021GA1021+008401081GA2031+060001001GE19AGL   +99999+99999GF105991021999008401999999MA1999999077771MD1310151+9999MW1051REMSYN10076680 31520 50101 10124 20098 37777 40170 53015 70511 82101 91450 333 30/// 56505 59012 82828 83070=
0275766800999992019011818004+19400-099183FM-12+230399999V0201501N001019999999N002000199+01941+01211101551ADDAY111021AY211021GA1031+008401081GA2999+999999001GE19AGL   +99999+99999GF105991031999008401999999KA1120M+02001KA2120N+01001MA1999999077701MD1610101+9999MW1051REMSYN10676680 31520 51501 10194 20121 37770 40155 56010 70511 83101 91750 333 10200 20100 30/// 56505 59015 83828=
0237766800999992019011821004+19400-099183FM-12+230399999V0202201N00101007501CN003000199+02201+01241100951ADDAY111021AY211021GA1061+007501061GA2999+999999001GE19AGL   +99999+99999GF107991061999007501999999MA1999999077381MD1610201+9999MW1051REMSYN09476680 31530 72201 10220 20124 37738 40095 56020 70511 86101 92050 333 30/// 56505 59017 86625=
0304766800999992019011900004+19400-099183FM-12+230399999V0202601N00401008101CN008000199+01941+01071100761ADDAA124000091AY121021AY201021GA1021+007501061GA2031+008101081GE19AGL   +99999+99999GF105991021999007501999999KA1120M+02291KA2120N+01001MA1999999077381MD1510001+9999MW1041REMSYN12476680 31558 52604 10194 20107 37738 40076 55000 70420 85800 90000 333 10229 20100 30/// 50351 56550 59015 70000 82625 83827=
0243766800999992019011903004+19400-099183FM-12+230399999V0203201N00101024001CN008000199+01601+00781100911ADDAY121021AY201021GA1021+008101081GA2031+024001041GE19AGL   +99999+99999GF105991021999008101999999MA1999999077591MD1210211+9999MW1041REMSYN10076680 31558 53201 10160 20078 37759 40091 52021 70420 82220 90300 333 30/// 56110 59010 82827 83458=
0205766800999992019011915004+19400-099183FM-12+230399999V0203401N002012200019N004000199+01141+00731101741ADDGA1031+057001021GE19AGL   +99999+99999GF103991031999057001999999MA1999999077731MD1310201+9999MW1041REMSYN09476680 31940 33402 10114 20073 37773 40174 53020 704// 80006 91450 333 30/// 56005 59004 83269=
0300766800999992019011918004+19400-099183FM-12+230399999V0201401N00201060001CN003000199+01901+01231101691ADDAY141021AY221021GA1011+008401081GA2051+060001001GE19AGL   +99999+99999GF106991011999008401999999KA1120M+02461KA2120N+00921MA1999999077731MD1210059+9999MW1041REMSYN11276680 31530 61402 10190 20123 37773 40169 52000 70442 81101 91750 333 10246 20092 30/// 56505 58003 81828 85070=EQDQ010     3APC3  
0326766800999992019012000004+19400-099183FM-12+230399999V0203401N00301060001CN004000199+01981+01011100931ADDAA124000091AY121021AY201021GA1011+008101081GA2031+024001041GA3031+060001001GE19AGL   +99999+99999GF107991011999008101999999KA1120M+02161KA2120N+00921MA1999999077461MD1310021+9999MW1041REMSYN13076680 31540 73403 10198 20101 37746 40093 53002 70420 81221 90000 333 10216 20092 30/// 50321 56111 58008 70000 81827 83458 83070=
0243766800999992019012003004+19400-099183FM-12+230399999V0202901N00201024001CN006000199+01421+01011101161ADDAY121021AY201021GA1031+008101081GA2041+024001041GE19AGL   +99999+99999GF107991031999008101999999MA1999999077731MD1210271+9999MW1041REMSYN10076680 31556 72902 10142 20101 37773 40116 52027 70420 83220 90300 333 30/// 56110 58014 83827 84458=
0209766800999992019012006004+19400-099183FM-12+230399999V0203201N002019999999N009000199+01221+00961101371ADDAY101021AY201021GF100995999999999999999999KA1240M+02161KA2240N+00921MA1999999077831MD1210101+9999MW1041REMSYN09476680 31959 03202 10122 20096 37783 40137 52010 70400 90550 333 10216 20092 55061 21309 58025=
0259766800999992019012012004+19400-099183FM-12+230399999V0203601N00301006001CN003000199+00891+00751101891ADDAY101021AY231021GA1081+006001071GE19AGL   +99999+99999GF108991081999006001999999KA1240M+02161KA2240N+00881MA1999999077861MD1510031+9999MW1041REMSYN10676680 31530 83603 10089 20075 37786 40189 55003 70403 88700 91150 333 10216 20088 30008 56100 58033 88720=
0237766800999992019012015004+19400-099183FM-12+230399999V0200501N00101006601CN002000199+00941+00721102231ADDAY121021AY221021GA1071+006601071GA2999+999999051GE19AGL   +99999+99999GF108991071999006601999999MA1999999078001MD1310141+9999MW1101REMSYN09476680 31520 80501 10094 20072 37800 40223 53014 71022 87720 91450 333 30/// 56110 58027 87722=
0281766800999992019012018004+19400-099183FM-12+230399999V0200501N00201060001CN003000199+01571+00941102141ADDAY121021AY221021GA1031+008401081GA2031+060001021GE19AGL   +99999+99999GF106991031999008401999999KA1120M+01651KA2120N+00851MA1999999077941MD1810061+9999MW1051REMSYN11276680 31530 60502 10157 20094 37794 40214 58006 70522 83108 91750 333 10165 20085 30/// 56707 58021 83828 83270=
0282766800999992019012100004+19400-099183FM-12+230399999V0202701N001012200019N005000199+02081+01061101211ADDAA124000091AY101021AY201021GA1031+060001001GE19AGL   +99999+99999GF103991031999060001999999KA1120M+02301KA2120N+00851MA1999999077601MD1510011+9999MW1051REMSYN11876680 31950 32701 10208 20106 37760 40121 55001 70500 80001 92350 333 10230 20085 30/// 50441 56007 58014 70000 83070=
0165766800999992019012115004+19400-099183FM-12+230399999V0202501N001019999999N003000199+01001+00581102091ADDAY101021AY201021GF100995999999999999999999MA1999999077871MD1310071-0131MW1051REMSYN07676680 31930 02501 10100 20058 37787 40209 53007 70500 91450 333 30/// 59013=
0203766800999992019012118004+19400-099183FM-12+230399999V0200901N002019999999N003000199+01861+00941101971ADDAY101021AY201021GF100995999999999999999999KA1120M+01951KA2120N+00641MA1999999077801MD1610091-0141MW1051REMSYN08876680 31930 00902 10186 20094 37780 40197 56009 70500 91750 333 10195 20064 30/// 59014=
0165766800999992019012121004+19400-099183FM-12+230399999V0200301N001019999999N003000199+02301+01121101291ADDAY101021AY201021GF100995999999999999999999MA1999999077491MD1610231-0121MW1051REMSYN07676680 31930 00301 10230 20112 37749 40129 56023 70500 92050 333 30/// 59012=
0226766800999992019012200004+19400-099183FM-12+230399999V0200501N001019999999N005000199+02221+00981100861ADDAA124000091AY101021AY201021GF100995999999999999999999KA1120M+02501KA2120N+00641MA1999999077431MD1510061+9999MW1051REMSYN10076680 31950 00501 10222 20098 37743 40086 55006 70500 92350 333 10250 20064 30/// 50531 59017 70000=
0189766800999992019012206004+19400-099183FM-12+230399999V0201801N002019999999N012000199+01301+00961100991ADDAY101021AY201021GF100995999999999999999999MA1999999077651MD1990061+9999MW1041REMSYN10076680 31562 01802 10130 20096 37765 40099 50006 70400 90550 333 30/// 10250 20064 55085 21455 59013=
0220766800999992019012212004+19400-099183FM-12+230399999V0201801N001019999999N014000199+00841+00741101441ADDAA124000091AY101021AY201021GF100995999999999999999999KA1240M+02501KA2240N+00801MA1999999077581MD1310201-0191MW1041REMSYN09476680 31564 01801 10084 20074 37758 40144 53020 70400 91150 333 10250 20080 30006 59019 70000=
0165766800999992019012215004+19400-099183FM-12+230399999V0201401N001019999999N003000199+01041+00421101841ADDAY101021AY201021GF100995999999999999999999MA1999999077721MD1310141-0151MW1041REMSYN07676680 31930 01401 10104 20042 37772 40184 53014 70400 91450 333 30/// 59015=
0203766800999992019012218004+19400-099183FM-12+230399999V0200201N001019999999N003000199+01901+00881101681ADDAY101021AY201021GF100995999999999999999999KA1120M+02501KA2120N+00681MA1999999077661MD1110061-0141MW1041REMSYN08876680 31930 00201 10190 20088 37766 40168 51006 70400 91750 333 10250 20068 30/// 59014=
0221766800999992019012221004+19400-099183FM-12+230399999V0203401N002012200019N012000199+02391+00781100961ADDAY101021AY201021GA1011+060001001GE19AGL   +99999+99999GF101991011999060001999999MA1999999077321MD1710341+9999MW1041REMSYN09476680 31962 13402 10239 20078 37732 40096 57034 70400 80001 92100 333 30/// 56001 59017 81070=
0282766800999992019012300004+19400-099183FM-12+230399999V0202601N006012200019N012000199+02061+00931100671ADDAA124000091AY101021AY201021GA1011+060001001GE19AGL   +99999+99999GF101991011999060001999999KA1120M+02541KA2120N+00681MA1999999077321MD1510001+9999MW1041REMSYN11876680 31962 12606 10206 20093 37732 40067 55000 70400 80001 90000 333 10254 20068 30/// 50591 56005 59011 70000 81070=
0209766800999992019012303004+19400-099183FM-12+230399999V0200701N002019999999N010000199+01641+00861100721ADDAY101021AY201021GA1001+999999999GE19AGL   +99999+99999GF100995001999999999999999MA1999999077511MD1210191-0081MW1041REMSYN08276680 31960 00702 10164 20086 37751 40072 52019 70400 80000 90300 333 30/// 59008=
0165766800999992019012315004+19400-099183FM-12+230399999V0200701N002019999999N004000199+01281+00741101561ADDAY141021AY201021GF100995999999999999999999MA1999999077611MD1310071-0111MW1041REMSYN07676680 31940 00702 10128 20074 37761 40156 53007 70440 91450 333 30/// 59011=
0203766800999992019012318004+19400-099183FM-12+230399999V0201101N002019999999N004000199+02121+01251101391ADDAY101021AY201021GF100995999999999999999999KA1120M+02121KA2120N+00921MA1999999077541MD1610101-0121MW1051REMSYN08876680 31940 01102 10212 20125 37754 40139 56010 70500 91750 333 10212 20092 30/// 59012=
0221766800999992019012321004+19400-099183FM-12+230399999V0202501N002012200019N008000199+02421+01081100781ADDAY101021AY201021GA1021+007501081GE19AGL   +99999+99999GF102991021999007501999999MA1999999077271MD1610121+9999MW1051REMSYN09476680 31558 22502 10242 20108 37727 40078 56012 70500 82100 92050 333 30/// 56200 59005 82825=
0304766800999992019012400004+19400-099183FM-12+230399999V0200201N00501008101CN012000199+02121+01001100601ADDAA124000091AY121021AY201021GA1031+007501061GA2031+008101081GE19AGL   +99999+99999GF106991031999007501999999KA1120M+02531KA2120N+00921MA1999999077351MD1310081+9999MW1041REMSYN12476680 31562 60205 10212 20100 37735 40060 53008 70420 86800 90000 333 10253 20092 30/// 50561 56500 58003 70000 83625 83827=
0237766800999992019012403004+19400-099183FM-12+230399999V0203101N001012200019N010000199+01821+01041100681ADDAY121021AY201021GA1021+008101081GA2999+999999051GE19AGL   +99999+99999GF103991021999008101999999MA1999999077551MD1210201+9999MW1041REMSYN09476680 31560 33101 10182 20104 37755 40068 52020 70420 82220 90300 333 30/// 56550 58004 82827=
0215766800999992019012406004+19400-099183FM-12+230399999V0209999C999999999999N014000199+01501+01041100701ADDAY101021AY201021GF100995999999999999999999KA1240M+02531KA2240N+00921MA1999999077531MD1510021+9999MW1041REMSYN10076680 31564 00000 10150 20104 37753 40070 55002 70400 90550 333 10253 20092 30/// 55092 21891 59001=
0165766800999992019012409004+19400-099183FM-12+230399999V0209999C999999999999N010000199+01301+01061100791ADDAY101021AY201021GF100995999999999999999999MA1999999077441MD1510091-0121MW1041REMSYN07676680 31560 00000 10130 20106 37744 40079 55009 70400 90855 333 30/// 59012=
0220766800999992019012412004+19400-099183FM-12+230399999V0209999C999999999999N007000199+01101+00761101041ADDAA124000091AY101021AY201021GF100995999999999999999999KA1240M+02531KA2240N+01101MA1999999077431MD1510011-0111MW1041REMSYN09476680 31557 00000 10110 20076 37743 40104 55001 70400 91150 333 10253 20110 30009 59011 70000=
0165766800999992019012415004+19400-099183FM-12+230399999V0209999C999999999999N003000199+01281+00851101371ADDAY101021AY201021GF100995999999999999999999MA1999999077551MD1310121-0061MW1041REMSYN07676680 31930 00000 10128 20085 37755 40137 53012 70400 91450 333 30/// 59006=
0259766800999992019012418004+19400-099183FM-12+230399999V0201001N001012200019N005000199+02081+01271101231ADDAY101021AY201021GA1011+007501081GE19AGL   +99999+99999GF101991011999007501999999KA1120M+02261KA2120N+01001MA1999999077481MD1610111+9999MW1051REMSYN10676680 31550 11001 10208 20127 37748 40123 56011 70500 81100 91750 333 10226 20100 30/// 56400 59006 81825=
0221766800999992019012421004+19400-099183FM-12+230399999V0202901N004012200019N020000199+02481+01301100741ADDAY101021AY211021GA1041+007501081GE19AGL   +99999+99999GF104991041999007501999999MA1999999077291MD1610111+9999MW1051REMSYN09476680 31570 42904 10248 20130 37729 40074 56011 70501 84100 92050 333 30/// 56700 58002 84825=
0282766800999992019012500004+19400-099183FM-12+230399999V0202501N00501008101CN018000199+02201+00911100541ADDAA124000091AY121021AY221021GA1051+008101081GE19AGL   +99999+99999GF105991051999008101999999KA1120M+02601KA2120N+01001MA1999999077341MD1310051+9999MW1041REMSYN11876680 31568 52505 10220 20091 37734 40054 53005 70422 85200 90000 333 10260 20100 30/// 50521 56500 59001 70000 85827=
0165766800999992019012515004+19400-099183FM-12+230399999V0200101N001019999999N004000199+01341+00771101711ADDAY101021AY201021GF100995999999999999999999MA1999999077741MD1310091+0191MW1051REMSYN07676680 31940 00101 10134 20077 37774 40171 53009 70500 91450 333 30/// 58019=
0275766800999992019012518004+19400-099183FM-12+230399999V0200401N002012200019N004000199+02161+01161101401ADDAY101021AY201021GA1011+007501081GA2999+999999001GE19AGL   +99999+99999GF102991011999007501999999KA1120M+02251KA2120N+00951MA1999999077591MD1610121+9999MW1051REMSYN10676680 31540 20402 10216 20116 37759 40140 56012 70500 81101 91750 333 10225 20095 30/// 56303 58011 81825=
0221766800999992019012521004+19400-099183FM-12+230399999V0200101N001012200019N015000199+02561+01371100731ADDAY101021AY211021GA1041+007501081GE19AGL   +99999+99999GF104991041999007501999999MA1999999077291MD1610161+9999MW1051REMSYN09476680 31565 40101 10256 20137 37729 40073 56016 70501 84100 92050 333 30/// 56500 58000 84825=
0314766800999992019012600004+19400-099183FM-12+230399999V0202001N004012200019N015000199+02131+01001100531ADDAA124000091AY121021AY201021GA1021+008101081GA2999+999999051GA3999+999999001GE19AGL   +99999+99999GF104991021999008101999999KA1120M+02661KA2120N+00951MA1999999077351MD1310061+9999MW1041REMSYN11876680 31565 42004 10213 20100 37735 40053 53006 70420 82221 90000 333 10266 20095 30/// 50641 56555 58001 70000 82827=
0221766800999992019012603004+19400-099183FM-12+230399999V0201401N002012200019N010000199+01761+00931100571ADDAY121021AY201021GA1031+024001041GE19AGL   +99999+99999GF103991031999024001999999MA1999999077521MD1210171+9999MW1041REMSYN09476680 31860 31402 10176 20093 37752 40057 52017 70420 83020 90305 333 30/// 56050 58002 83458=
0271766800999992019012606004+19400-099183FM-12+230399999V0209999C999992200019N012000199+01501+01061100621ADDAY101021AY231021GA1041+024001041GE19AGL   +99999+99999GF104991041999024001999999KA1240M+02661KA2240N+00951MA1999999077491MD1710031+9999MW1041REMSYN11876680 31862 40000 10150 20106 37749 40062 57003 70403 84010 90550 333 10266 20095 30/// 55093 21520 56050 59005 84458=
0165766800999992019012609004+19400-099183FM-12+230399999V0202401N002019999999N014000199+01301+00731100781ADDAY101021AY201021GF100995999999999999999999MA1999999077431MD1510061-0121MW1041REMSYN07676680 31964 02402 10130 20073 37743 40078 55006 70400 90855 333 30/// 59012=
0220766800999992019012612004+19400-099183FM-12+230399999V0202201N002019999999N012000199+01161+00621101071ADDAA124000091AY101021AY201021GF100995999999999999999999KA1240M+02661KA2240N+01021MA1999999077461MD1310031-0141MW1041REMSYN09476680 31962 02202 10116 20062 37746 40107 53003 70400 91150 333 10266 20102 30009 59014 70000=
0221766800999992019012615004+19400-099183FM-12+230399999V0203201N001012200019N004000199+01321+00821101381ADDAY141021AY201021GA1011+024001031GE19AGL   +99999+99999GF101991011999024001999999MA1999999077571MD1210111+9999MW1041REMSYN09476680 31840 13201 10132 20082 37757 40138 52011 70440 81040 91450 333 30/// 56070 59017 81358=
0203766800999992019012618004+19400-099183FM-12+230399999V0202301N003019999999N008000199+02161+01001101131ADDAY101021AY201021GF100995999999999999999999KA1120M+02191KA2120N+01001MA1999999077431MD1610141-0161MW1051REMSYN08876680 31958 02303 10216 20100 37743 40113 56014 70500 91750 333 10219 20100 30/// 59016=
0221766800999992019012621004+19400-099183FM-12+230399999V0202301N007012200019N008000199+02381+01181100551ADDAY101021AY201021GA1011+008401081GE19AGL   +99999+99999GF101991011999008401999999MA1999999077141MD1710291+9999MW1051REMSYN09476680 31558 12307 10238 20118 37714 40055 57029 70500 81100 92050 333 30/// 56700 59015 81828=
0298766800999992019012700004+19400-099183FM-12+230399999V0200101N006012200019N015000199+02081+00911100321ADDAA124000091AY101021AY201021GA1021+008101081GA2999+999999001GE19AGL   +99999+99999GF103991021999008101999999KA1120M+02501KA2120N+01001MA1999999077141MD1410001+9999MW1041REMSYN11876680 31565 30106 10208 20091 37714 40032 54000 70400 82201 90000 333 10250 20100 30/// 50491 56505 59021 70000 82827=
0221766800999992019012703004+19400-099183FM-12+230399999V0202401N005012200019N010000199+01661+00771100341ADDAY121021AY201021GA1041+024001041GE19AGL   +99999+99999GF104991041999024001999999MA1999999077261MD1210121+9999MW1041REMSYN09476680 31860 42405 10166 20077 37726 40034 52012 70420 84020 90300 333 30/// 56050 59026 84458=
0221766800999992019012715004+19400-099183FM-12+230399999V0203601N002012200019N010000199+01101+00711101441ADDAY101021AY201021GA1011+008401081GE19AGL   +99999+99999GF101991011999008401999999MA1999999077611MD1210231+9999MW1051REMSYN09476680 31560 13602 10110 20071 37761 40144 52023 70500 81100 91450 333 30/// 56100 58004 81828=
0259766800999992019012718004+19400-099183FM-12+230399999V0200501N002012200019N015000199+01591+00751101481ADDAY101021AY201021GA1011+008401081GE19AGL   +99999+99999GF101991011999008401999999KA1120M+01661KA2120N+00961MA1999999077611MD1990001+9999MW1051REMSYN10676680 31565 10502 10159 20075 37761 40148 50000 70500 81100 91750 333 10166 20096 30/// 56100 58018 81828=
0165766800999992019012721004+19400-099183FM-12+230399999V0203201N003019999999N012000199+01861+00711101111ADDAY101021AY201021GF100995999999999999999999MA1999999077391MD1710221+0251MW1051REMSYN07676680 31962 03203 10186 20071 37739 40111 57022 70500 92050 333 30/// 58025=
0226766800999992019012800004+19400-099183FM-12+230399999V0203201N004019999999N010000199+01781+00751100881ADDAA124000091AY101021AY201021GF100995999999999999999999KA1120M+02001KA2120N+00961MA1999999077321MD1610071+9999MW1041REMSYN10076680 31960 03204 10178 20075 37732 40088 56007 70400 90000 333 10200 20096 30/// 50481 58006 70000=
0165766800999992019012803004+19400-099183FM-12+230399999V0203201N003019999999N010000199+01321+00601100951ADDAY101021AY201021GF100995999999999999999999MA1999999077441MD1210121+0181MW1041REMSYN07676680 31960 03203 10132 20060 37744 40095 52012 70400 90250 333 30/// 58018=
0215766800999992019012806004+19400-099183FM-12+230399999V0209999C999999999999N012000199+01081+00611101021ADDAY101021AY201021GF100995999999999999999999KA1240M+02021KA2240N+00961MA1999999077441MD1410001+9999MW1041REMSYN10076680 31962 00000 10108 20061 37744 40102 54000 70400 90550 333 10202 20096 30/// 55093 21877 58010=
0165766800999992019012809004+19400-099183FM-12+230399999V0209999C999999999999N010000199+00901+00511100991ADDAY101021AY201021GF100995999999999999999999MA1999999077281MD1610161-0081MW1041REMSYN07676680 31960 00000 10090 20051 37728 40099 56016 70400 90855 333 30/// 59008=
0220766800999992019012812004+19400-099183FM-12+230399999V0203201N002019999999N010000199+00821+00531101211ADDAA124000091AY101021AY201021GF100995999999999999999999KA1240M+02001KA2240N+00761MA1999999077271MD1510011-0111MW1041REMSYN09476680 31960 03202 10082 20053 37727 40121 55001 70400 91150 333 10200 20076 30006 59011 70000=
0203766800999992019012818004+19400-099183FM-12+230399999V0201001N002019999999N004000199+01841+01081101331ADDAY101021AY201021GF100995999999999999999999KA1120M+01901KA2120N+00691MA1999999077361MD1810061-0251MW1051REMSYN08876680 31940 01002 10184 20108 37736 40133 58006 70500 91750 333 10190 20069 30/// 59025=
0221766800999992019012821004+19400-099183FM-12+230399999V0203001N002012200019N010000199+02241+00971100701ADDAY101021AY201021GA1011+008101081GE19AGL   +99999+99999GF101991011999008101999999MA1999999077091MD1710271+9999MW1041REMSYN09476680 31560 13002 10224 20097 37709 40070 57027 70400 81200 92100 333 30/// 56500 59030 81827=
0270766800999992019012900004+19400-099183FM-12+230399999V0203201N002019999999N010000199+02021+01061100391ADDAA124000091AY101021AY201021GA1001+999999999GE19AGL   +99999+99999GF100995001999999999999999KA1120M+02421KA2120N+00691MA1999999077091MD1510001+9999MW1041REMSYN10676680 31960 03202 10202 20106 37709 40039 55000 70400 80000 90000 333 10242 20069 30/// 50721 59023 70000=
0203766800999992019012903004+19400-099183FM-12+230399999V0202001N002019999999N010000199+01621+00881100561ADDAY101021AY201021GA1001+999999999GE19AGL   +99999+99999GF100995001999999999999999MA1999999077361MD1999999-0081MW1041REMSYN07676680 31960 02002 10162 20088 37736 40056 70400 80000 90300 333 30/// 59008=
0221766800999992019012915004+19400-099183FM-12+230399999V0200501N001012200019N004000199+01161+00681101631ADDAY141021AY201021GA1021+060001001GE19AGL   +99999+99999GF102991021999060001999999MA1999999077581MD1210131+9999MW1041REMSYN09476680 31940 20501 10116 20068 37758 40163 52013 70440 80004 91450 333 30/// 56005 58031 82070=
0203766800999992019012918004+19400-099183FM-12+230399999V0202401N001019999999N003000199+01681+00951101511ADDAY141021AY201021GF100995999999999999999999KA1120M+01751KA2120N+00761MA1999999077521MD1210061+0161MW1041REMSYN08876680 31930 02401 10168 20095 37752 40151 52006 70440 91750 333 10175 20076 30/// 58016=
0276766800999992019013000004+19400-099183FM-12+230399999V0202801N003019999999N010000199+02061+00971100481ADDAA124000091AY101021AY201021GA1001+999999999GE19AGL   +99999+99999GF100995001999999999999999KA1120M+02391KA2120N+00761MA1999999077131MD1510031+9999MW1041REMSYN11276680 31960 02803 10206 20097 37713 40048 55003 70400 80000 90000 333 10239 20076 30/// 50711 56/// 58004 70000=
0209766800999992019013003004+19400-099183FM-12+230399999V0200101N001019999999N010000199+01541+00911100571ADDAY101021AY201021GA1001+999999999GE19AGL   +99999+99999GF100995001999999999999999MA1999999077321MD1210191-0041MW1041REMSYN08276680 31960 00101 10154 20091 37732 40057 52019 70400 80000 90300 333 30/// 59004=
0165766800999992019013009004+19400-099183FM-12+230399999V0202701N002019999999N012000199+01101+00761100791ADDAY101021AY201021GF100995999999999999999999MA1999999077311MD1610061-0131MW1041REMSYN07676680 31962 02702 10110 20076 37731 40079 56006 70400 90855 333 30/// 59013=
0220766800999992019013012004+19400-099183FM-12+230399999V0202801N001019999999N010000199+00941+00701101101ADDAA124000091AY101021AY201021GF100995999999999999999999KA1240M+02391KA2240N+00901MA1999999077331MD1310021-0121MW1041REMSYN09476680 31960 02801 10094 20070 37733 40110 53002 70400 91150 333 10239 20090 30080 59012 70000=
0165766800999992019013015004+19400-099183FM-12+230399999V0200901N001019999999N003000199+01201+00871101461ADDAY141021AY201021GF100995999999999999999999MA1999999077491MD1310161-0091MW1041REMSYN07676680 31930 00901 10120 20087 37749 40146 53016 70440 91450 333 30/// 59009=
0203766800999992019013018004+19400-099183FM-12+230399999V0202501N001019999999N006000199+01881+01041101321ADDAY141021AY201021GF100995999999999999999999KA1120M+01981KA2120N+00781MA1999999077431MD1710061-0091MW1041REMSYN08876680 31956 02501 10188 20104 37743 40132 57006 70440 91750 333 10198 20078 30/// 59009=
0165766800999992019013115004+19400-099183FM-12+230399999V0200901N001019999999N003000199+01201+00611101591ADDAY141021AY201021GF100995999999999999999999MA1999999077551MD1310171+0061MW1041REMSYN07676680 31930 00901 10120 20061 37755 40159 53017 70440 91450 333 30/// 58006=
0259766800999992019013118004+19400-099183FM-12+230399999V0200901N001012200019N004000199+01941+01111101571ADDAY141021AY201021GA1021+060001001GE19AGL   +99999+99999GF102991021999060001999999KA1120M+02221KA2120N+00751MA1999999077591MD1210041+9999MW1041REMSYN10676680 31940 20901 10194 20111 37759 40157 52004 70440 80001 91750 333 10222 20075 30/// 56007 58016 82070=
0304766800999992019020100004+19400-099183FM-12+230399999V0202501N00201060001CN010000199+02071+00821100671ADDAA124000091AY121021AY201021GA1011+008101081GA2051+060001001GE19AGL   +99999+99999GF106991011999008101999999KA1120M+02411KA2120N+00751MA1999999077321MD1710061+9999MW1041REMSYN12476680 31560 62502 10207 20082 37732 40067 57006 70420 81201 90005 333 10241 20075 30/// 5//// 56505 58006 70000 81827 85070=
0215766800999992019020103004+19400-099183FM-12+230399999V0202701N001019999999N010000199+01711+00661100701ADDAY101021AY201021GA1001+999999999GE19AGL   +99999+99999GF100995001999999999999999MA1999999077491MD1210171+9999MW1001REMSYN08876680 31960 02701 10171 20066 37749 40070 52017 70000 80000 90300 333 30/// 56/// 58003=
0165766800999992019020109004+19400-099183FM-12+230399999V0202401N001019999999N012000199+01141+00541100941ADDAY101021AY201021GF100995999999999999999999MA1999999077511MD1610071+0071MW1041REMSYN07676680 31962 02401 10114 20054 37751 40094 56007 70400 90855 333 30/// 58007=
0270766800999992019020112004+19400-099183FM-12+230399999V0201901N001012200019N010000199+00901+00621101231ADDAA124000091AY101021AY201021GA1031+060001041GE19AGL   +99999+99999GF103991031999060001999999KA1240M+02411KA2240N+00901MA1999999077481MD1610031+0101MW1041REMSYN10676680 31960 31901 10090 20062 37748 40123 56003 70400 80004 91150 333 10241 20090 30007 58010 70000 83470=
0221766800999992019020115004+19400-099183FM-12+230399999V0200901N002012200019N003000199+01141+00731101661ADDAY141021AY201021GA1041+057001021GE19AGL   +99999+99999GF104991041999057001999999MA1999999077651MD1210171+9999MW1041REMSYN09476680 31930 40902 10114 20073 37765 40166 52017 70440 80006 91450 333 30/// 56005 58010 84269=
0259766800999992019020118004+19400-099183FM-12+230399999V0200901N003010570019N003000199+01941+01211101621ADDAY141021AY221021GA1061+057001021GE19AGL   +99999+99999GF106991061999057001999999KA1120M+02051KA2120N+00801MA1999999077651MD1990001+9999MW1041REMSYN10676680 31930 60903 10194 20121 37765 40162 50000 70442 80006 91750 333 10205 20080 30/// 56005 58006 86269=
0221766800999992019020121004+19400-099183FM-12+230399999V0203301N002012200019N004000199+02231+01231101061ADDAY121021AY201021GA1011+008101081GE19AGL   +99999+99999GF101991011999008101999999MA1999999077391MD1710261+9999MW1041REMSYN09476680 31540 13302 10223 20123 37739 40106 57026 70420 81200 92100 333 30/// 56500 58001 81827=
0276766800999992019020200004+19400-099183FM-12+230399999V0201701N002019999999N006000199+02241+01001100731ADDAA124000091AY101021AY201021GA1001+999999999GE19AGL   +99999+99999GF100995001999999999999999KA1120M+02461KA2120N+00801MA1999999077361MD1510031+9999MW1041REMSYN11276680 31956 01702 10224 20100 37736 40073 55003 70400 80000 90000 333 10246 20080 30/// 50351 56/// 58004 70000=
0199766800999992019020203004+19400-099183FM-12+230399999V0202401N003019999999N010000199+01661+00811100621ADDGA1001+999999999GE19AGL   +99999+99999GF100995001999999999999999MA1999999077571MD1210211+9999MW1041REMSYN08876680 31960 02403 10166 20081 37757 40062 52021 704// 80000 90300 333 30/// 56/// 58008=
0221766800999992019020215004+19400-099183FM-12+230399999V0201401N001012200019N003000199+01201+00801101671ADDAY141021AY201021GA1041+057001021GE19AGL   +99999+99999GF104991041999057001999999MA1999999077681MD1310121+9999MW1041REMSYN09476680 31930 41401 10120 20080 37768 40167 53012 70440 80008 91450 333 30/// 56007 58003 84269=
0259766800999992019020218004+19400-099183FM-12+230399999V0201601N002012200019N003000199+02001+01181101571ADDAY141021AY201021GA1011+060001001GE19AGL   +99999+99999GF101991011999060001999999KA1120M+02051KA2120N+00781MA1999999077661MD1710021+9999MW1041REMSYN10676680 31930 11602 10200 20118 37766 40157 57002 70440 80001 91750 333 10205 20078 30/// 56007 58001 81070=
0276766800999992019020300004+19400-099183FM-12+230399999V0200801N002019999999N004000199+02241+00681100521ADDAA124000091AY141021AY201021GA1001+999999999GE19AGL   +99999+99999GF100995001999999999999999KA1120M+02491KA2120N+00781MA1999999077251MD1510041+9999MW1041REMSYN11276680 31940 00802 10224 20068 37725 40052 55004 70440 80000 90000 333 10249 20078 30/// 50601 56/// 59011 70000=
0209766800999992019020303004+19400-099183FM-12+230399999V0202701N002019999999N008000199+01761+00931100581ADDAY101021AY201021GA1001+999999999GE19AGL   +99999+99999GF100995001999999999999999MA1999999077431MD1210181-0141MW1041REMSYN08276680 31958 02702 10176 20093 37743 40058 52018 70400 80000 90300 333 30/// 59014=
0165766800999992019020309004+19400-099183FM-12+230399999V0201901N001019999999N010000199+01281+00851100821ADDAY101021AY201021GF100995999999999999999999MA1999999077441MD1710081-0141MW1041REMSYN07676680 31960 01901 10128 20085 37744 40082 57008 70400 90855 333 30/// 59014=
0220766800999992019020312004+19400-099183FM-12+230399999V0209999C999999999999N006000199+01081+00721101071ADDAA124000091AY101021AY201021GF100995999999999999999999KA1240M+02491KA2240N+01081MA1999999077431MD1610011-0131MW1041REMSYN09476680 31956 00000 10108 20072 37743 40107 56001 70400 91150 333 10249 20108 30009 59013 70000=
0165766800999992019020315004+19400-099183FM-12+230399999V0200501N001019999999N004000199+01331+00801101411ADDAY101021AY201021GF100995999999999999999999MA1999999077571MD1110141-0111MW1051REMSYN07676680 31940 00501 10133 20080 37757 40141 51014 70500 91450 333 30/// 59011=
0203766800999992019020318004+19400-099183FM-12+230399999V0200501N001019999999N005000199+02121+01181101251ADDAY101021AY201021GF100995999999999999999999KA1120M+02171KA2120N+01021MA1999999077491MD1810081-0171MW1051REMSYN08876680 31950 00501 10212 20118 37749 40125 58008 70500 91750 333 10217 20102 30/// 59017=
0165766800999992019020321004+19400-099183FM-12+230399999V0202301N002019999999N003000199+02561+01451100561ADDAY101021AY201021GF100995999999999999999999MA1999999077171MD1710321-0121MW1051REMSYN07676680 31930 02302 10256 20145 37717 40056 57032 70500 92050 333 30/// 59012=
0282766800999992019020400004+19400-099183FM-12+230399999V0201801N002012200019N005000199+02331+01451100271ADDAA124000091AY101021AY201021GA1011+008401081GE19AGL   +99999+99999GF101991011999008401999999KA1120M+02731KA2120N+01021MA1999999077171MD1410001+9999MW1041REMSYN11876680 31550 11802 10233 20145 37717 40027 54000 70400 81100 90000 333 10273 20102 30/// 50441 56500 59009 70000 81828=
0165766800999992019020403004+19400-099183FM-12+230399999V0203201N001019999999N008000199+01861+01161100331ADDAY101021AY201021GF100995999999999999999999MA1999999077361MD1210191-0071MW1041REMSYN07676680 31958 03201 10186 20116 37736 40033 52019 70400 90250 333 30/// 59007=
0240766800999992019020415004+19400-099183FM-12+230399999V0203601N001012200019N003000199+00321+99999101331ADDAY141021AY201021GA1011+060001001GE19AGL   +99999+99999GF101991011999060001999999MA1999999077561MD1310121+9999MW1041REMSYN09476680 31930 13601 10032 20093 37756 40133 53012 70440 80001 91450 333 30/// 56005 59001 81070=EQDQ019.3   2ATOD  
0203766800999992019020418004+19400-099183FM-12+230399999V0203201N001019999999N004000199+02182+01271101151ADDAY101021AY201021GF100995999999999999999999KA1120M+02241KA2120N+01051MA1999999077481MD1810081-0011MW1051REMSYN08876680 31940 03201 10218 20127 37748 40115 58008 70500 91750 333 10224 20105 30/// 59001=
0221766800999992019020421004+19400-099183FM-12+230399999V0203301N002012200019N004000199+02682+01511100631ADDAY101021AY201021GA1011+008401081GE19AGL   +99999+99999GF101991011999008401999999MA1999999077261MD1710221+9999MW1051REMSYN09476680 31540 13302 10268 20151 37726 40063 57022 70500 81100 92050 333 30/// 56500 58014 81828=
0282766800999992019020500004+19400-099183FM-12+230399999V0200901N002012200019N006000199+02341+01171100261ADDAA124000091AY121021AY201021GA1031+008101081GE19AGL   +99999+99999GF103991031999008101999999KA1120M+02741KA2120N+01051MA1999999077181MD1510081+9999MW1041REMSYN11876680 31556 30902 10234 20117 37718 40026 55008 70420 83200 90000 333 10274 20105 30/// 50511 56500 58001 70000 83827=
0165766800999992019020503004+19400-099183FM-12+230399999V0203201N001019999999N008000199+01881+01141100351ADDAY101021AY201021GF100995999999999999999999MA1999999077401MD1210221+0041MW1041REMSYN07676680 31958 03201 10188 20114 37740 40035 52022 70400 90250 333 30/// 58004=
0215766800999992019020506004+19400-099183FM-12+230399999V0203201N002019999999N008000199+01541+00891100501ADDAY101021AY201021GF100995999999999999999999KA1240M+02741KA2240N+01051MA1999999077461MD1210061+9999MW1041REMSYN10076680 31958 03202 10154 20089 37746 40050 52006 70400 90550 333 10274 20105 30/// 55088 20836 58006=
0165766800999992019020509004+19400-099183FM-12+230399999V0202301N001019999999N007000199+01331+00851100731ADDAY101021AY201021GF100995999999999999999999MA1999999077451MD1310011+0021MW1041REMSYN07676680 31957 02301 10133 20085 37745 40073 53001 70400 90855 333 30/// 58002=
0220766800999992019020512004+19400-099183FM-12+230399999V0201801N001019999999N005000199+01221+00841101051ADDAA124000091AY101021AY201021GF100995999999999999999999KA1240M+02741KA2240N+01171MA1999999077501MD1210051+0061MW1041REMSYN09476680 31950 01801 10122 20084 37750 40105 52005 70400 91150 333 10274 20117 30010 58006 70000=
0123766800999992019020515004+19400-099183FM-12+230399999V0209999C999999999999N003000199+01401+00951101431ADDGF100995999999999999999999MA1999999077651MW1041REMSYN06476680 31930 00000 10140 20095 37765 40143 704// 91450 333 30///=
0203766800999992019020518004+19400-099183FM-12+230399999V0203601N002019999999N003000199+02221+01271101321ADDAY141021AY201021GF100995999999999999999999KA1120M+02221KA2120N+01101MA1999999077631MD1210021+0151MW1041REMSYN08876680 31930 03602 10222 20127 37763 40132 52002 70440 91755 333 10222 20110 30/// 58015=
0221766800999992019020521004+19400-099183FM-12+230399999V0202801N003012200019N006000199+02581+00981100751ADDAY121021AY201021GA1011+008101081GE19AGL   +99999+99999GF101991011999008101999999MA1999999077371MD1710261+9999MW1041REMSYN09476680 31556 12803 10258 20098 37737 40075 57026 70420 81200 92100 333 30/// 56500 58011 81827=
0282766800999992019020600004+19400-099183FM-12+230399999V0203301N003012200019N008000199+02421+00931100381ADDAA124000091AY121021AY201021GA1011+008101081GE19AGL   +99999+99999GF101991011999008101999999KA1120M+02721KA2120N+01101MA1999999077291MD1710081+9999MW1041REMSYN11876680 31558 13303 10242 20093 37729 40038 57008 70420 81200 90005 333 10272 20110 30/// 50581 56500 58011 70000 81827=
0215766800999992019020603004+19400-099183FM-12+230399999V0203001N002019999999N008000199+01951+00881100481ADDAY101021AY201021GA1001+999999999GE19AGL   +99999+99999GF100995001999999999999999MA1999999077521MD1210231+9999MW1041REMSYN08876680 31958 03002 10195 20088 37752 40048 52023 70400 80000 90305 333 30/// 56/// 58034=
0165766800999992019020615004+19400-099183FM-12+230399999V0201401N001019999999N003000199+01481+01041101351ADDAY141021AY201021GF100995999999999999999999MA1999999077651MD1310141+0001MW1041REMSYN07676680 31930 01401 10148 20104 37765 40135 53014 70440 91450 333 30/// 59000=
0203766800999992019020618004+19400-099183FM-12+230399999V0200701N001019999999N003000199+02341+01441101201ADDAY141021AY221021GF100995999999999999999999KA1120M+02451KA2120N+01151MA1999999077601MD1210051-0031MW1041REMSYN08876680 31930 00701 10234 20144 37760 40120 52005 70442 91750 333 10245 20115 30/// 59003=
0221766800999992019020621004+19400-099183FM-12+230399999V0200901N002012200019N004000199+02741+01551100601ADDAY101021AY201021GA1022+008101081GE19AGL   +99999+99999GF101992022999008101999999MA1999999077331MD1710271+9999MW1041REMSYN09476680 31540 10902 10274 20155 37733 40060 57027 70400 82200 92100 333 30/// 56500 58004 82827=
0282766800999992019020700004+19400-099183FM-12+230399999V0201201N003012200019N004000199+02561+01441100221ADDAA124000091AY101021AY201021GA1031+008101081GE19AGL   +99999+99999GF103991031999008101999999KA1120M+02851KA2120N+01151MA1999999077261MD1510071+9999MW1041REMSYN11876680 31540 31203 10256 20144 37726 40022 55007 70400 83200 90005 333 10285 20115 30/// 50551 56500 59003 70000 83827=
0215766800999992019020706004+19400-099183FM-12+230399999V0203201N002019999999N008000199+01701+01081100471ADDAY101021AY201021GF100995999999999999999999KA1240M+02851KA2240N+01151MA1999999077531MD1210091+9999MW1041REMSYN10076680 31958 03202 10170 20108 37753 40047 52009 70400 90550 333 10285 20115 30/// 55091 21855 59001=
0165766800999992019020709004+19400-099183FM-12+230399999V0201801N001019999999N006000199+01561+01061100621ADDAY101021AY201021GF100995999999999999999999MA1999999077481MD1710051-0031MW1041REMSYN07676680 31956 01801 10156 20106 37748 40062 57005 70400 90855 333 30/// 59003=
0220766800999992019020712004+19400-099183FM-12+230399999V0209999C999999999999N005000199+01361+00921100911ADDAA124000091AY101021AY201021GF100995999999999999999999KA1240M+02851KA2240N+01311MA1999999077491MD1510011+0181MW1041REMSYN09476680 31950 00000 10136 20092 37749 40091 55001 70400 91150 333 10285 20131 30012 58018 70000=
0165766800999992019020715004+19400-099183FM-12+230399999V0209999C999999999999N003000199+01481+01041101331ADDAY141021AY201021GF100995999999999999999999MA1999999077681MD1310191-0031MW1041REMSYN07676680 31930 00000 10148 20104 37768 40133 53019 70440 91450 333 30/// 59003=
0203766800999992019020718004+19400-099183FM-12+230399999V0203601N003019999999N003000199+02261+01411101261ADDAY141021AY201021GF100995999999999999999999KA1120M+02351KA2120N+01181MA1999999077661MD1990021+0061MW1041REMSYN08876680 31930 03603 10226 20141 37766 40126 50002 70440 91750 333 10235 20118 30/// 58006=
0221766800999992019020721004+19400-099183FM-12+230399999V0203301N004012200019N004000199+02621+01171100681ADDAY121021AY201021GA1011+008101081GE19AGL   +99999+99999GF101991011999008101999999MA1999999077381MD1710281+9999MW1041REMSYN09476680 31540 13304 10262 20117 37738 40068 57028 70420 81200 92100 333 30/// 56500 58005 81827=
0282766800999992019020800004+19400-099183FM-12+230399999V0203401N004012200019N008000199+02501+01021100371ADDAA124000091AY121021AY201021GA1011+008101081GE19AGL   +99999+99999GF101991011999008101999999KA1120M+02771KA2120N+01181MA1999999077331MD1510051+9999MW1041REMSYN11876680 31558 13404 10250 20102 37733 40037 55005 70420 81200 90000 333 10277 20118 30/// 50681 56100 58007 70000 81827=
0215766800999992019020803004+19400-099183FM-12+230399999V0200201N001019999999N008000199+01971+01131100571ADDAY101021AY201021GA1001+999999999GE19AGL   +99999+99999GF100995001999999999999999MA1999999077611MD1210281+9999MW1041REMSYN08876680 31958 00201 10197 20113 37761 40057 52028 70400 80000 90255 333 30/// 56/// 58017=
0253766800999992019020815004+19400-099183FM-12+230399999V0202701N003019999999N003000199+01281+00991101781ADDAY141021AY211021GA1021+007501061GA2999+999999051GA3999+999999021GE19AGL   +99999+99999GF107991021999007501999999MA1999999077891MD1210121+9999MW1011REMSYN09476680 31530 72703 10128 20099 37789 40178 52012 70141 83826 91456 333 30/// 56777 58021 82625=
0281766800999992019020818004+19400-099183FM-12+230399999V0203601N00501008401CN003000199+01761+01181101771ADDAY141021AY221021GA1021+007501061GA2031+008401081GE19AGL   +99999+99999GF107991021999007501999999KA1120M+01821KA2120N+01061MA1999999077871MD1710021+9999MW1051REMSYN11276680 31530 73605 10176 20118 37787 40177 57002 70542 85820 91758 333 10182 20106 30/// 56110 58021 82625 83828=
0243766800999992019020821004+19400-099183FM-12+230399999V0200301N004019999999N004000199+01871+01221101371ADDAY121021AY201021GA1011+007501061GA2041+008101081GE19AGL   +99999+99999GF107991011999007501999999MA1999999077631MD1710241+9999MW1041REMSYN10076680 31540 70304 10187 20122 37763 40137 57024 70420 85801 92100 333 30/// 56303 58025 81625 84827=
0304766800999992019020900004+19400-099183FM-12+230399999V0203601N00401024001CN008000199+01681+01171101251ADDAA124000091AY121021AY201021GA1031+007501061GA2031+024001041GE19AGL   +99999+99999GF108991031999007501999999KA1120M+01681KA2120N+01171MA1999999077651MD1310021+9999MW1041REMSYN12476680 31558 83604 10168 20117 37765 40125 53002 70420 85820 90000 333 10168 20117 30/// 50571 56550 58032 70000 83625 83458=
0243766800999992019020903004+19400-099183FM-12+230399999V0203201N00301024001CN008000199+01341+00951101471ADDAY121021AY201021GA1031+007501061GA2031+024001041GE19AGL   +99999+99999GF108991031999007501999999MA1999999077861MD1210211+9999MW1041REMSYN10076680 31558 83203 10134 20095 37786 40147 52021 70420 85820 90255 333 30/// 56550 58025 83625 83458=
0270766800999992019020912004+19400-099183FM-12+230399999V0203601N00101007501CN006000199+01001+00901101761ADDAA124000091AY101021AY231021GA1081+007501061GE19AGL   +99999+99999GF108991081999007501999999KA1240M+01941KA2240N+01001MA1999999077751MD1710091-0021MW1041REMSYN10676680 31556 83601 10100 20090 37775 40176 57009 70403 88600 91150 333 10194 20100 30008 59002 70000 88625=
0243766800999992019020915004+19400-099183FM-12+230399999V0202701N00301008101CN002000199+01101+00901102041ADDAY121021AY221021GA1021+007501071GA2051+008101061GE19AGL   +99999+99999GF107991021999007501999999MA1999999077901MD1210151+9999MW1041REMSYN10076680 31520 72703 10110 20090 37790 40204 52015 70422 87600 91456 333 30/// 56500 58001 82725 85627=
0281766800999992019020918004+19400-099183FM-12+230399999V0203601N00201008401CN002000199+01621+01111101991ADDAY121021AY221021GA1021+007501061GA2031+008401081GE19AGL   +99999+99999GF107991021999007501999999KA1120M+01651KA2120N+00951MA1999999077891MD1810011+9999MW1051REMSYN11276680 31520 73602 10162 20111 37789 40199 58001 70522 85808 91755 333 10165 20095 30/// 56505 58002 82625 83828=
0243766800999992019020921004+19400-099183FM-12+230399999V0200301N00201060001CN002000199+02141+01411101391ADDAY121021AY221021GA1031+008101081GA2041+060001021GE19AGL   +99999+99999GF107991031999008101999999MA1999999077601MD1710291+9999MW1041REMSYN10076680 31520 70302 10214 20141 37760 40139 57029 70422 83106 92100 333 30/// 56505 59003 83827 84270=
0304766800999992019021000004+19400-099183FM-12+230399999V0201601N00301060001CN008000199+02101+01011101111ADDAA124000091AY121021AY201021GA1021+008101081GA2041+060001021GE19AGL   +99999+99999GF107991021999008101999999KA1120M+02351KA2120N+00951MA1999999077591MD1310011+9999MW1041REMSYN12476680 31558 71603 10210 20101 37759 40111 53001 70420 82208 90000 333 10235 20095 30/// 50271 56505 59006 70000 82827 84270=
0243766800999992019021003004+19400-099183FM-12+230399999V0202901N002012200019N006000199+01461+00981101271ADDAY121021AY201021GA1011+008101081GA2031+024001041GE19AGL   +99999+99999GF104991011999008101999999MA1999999077821MD1210231+9999MW1041REMSYN10076680 31556 42902 10146 20098 37782 40127 52023 70420 81220 90300 333 30/// 56550 59004 81827 83458=
0220766800999992019021012004+19400-099183FM-12+230399999V0201801N001019999999N006000199+00981+00691101441ADDAA124000091AY101021AY201021GF100995999999999999999999KA1240M+00941KA2240N+00231MA1999999077681MD1710101-0071MW1041REMSYN09476680 31556 01801 10098 20069 37768 40144 57010 70400 91155 333 10094 20023 30008 59007 70000=
0165766800999992019021015004+19400-099183FM-12+230399999V0201401N002019999999N003000199+01241+00841101861ADDAY101021AY201021GF100995999999999999999999MA1999999077771MD1110091+0131MW1051REMSYN07676680 31930 01402 10124 20084 37777 40186 51009 70500 91455 333 30/// 58013=
0203766800999992019021018004+19400-099183FM-12+230399999V0201401N002019999999N003000199+01971+01181101631ADDAY101021AY201021GF100995999999999999999999KA1120M+02021KA2120N+00931MA1999999077691MD1810011-0201MW1051REMSYN08876680 31930 01402 10197 20118 37769 40163 58001 70500 91755 333 10202 20093 30/// 59020=
0165766800999992019021021004+19400-099183FM-12+230399999V0200501N003019999999N004000199+02361+01231101001ADDAY101021AY201021GF100995999999999999999999MA1999999077401MD1710291-0201MW1041REMSYN07676680 31940 00503 10236 20123 37740 40100 57029 70400 92050 333 30/// 59020=
0282766800999992019021100004+19400-099183FM-12+230399999V0209999C999992200019N008000199+02321+01251100611ADDAA124000091AY101021AY201021GA1021+008401081GE19AGL   +99999+99999GF102991021999008401999999KA1120M+02551KA2120N+00931MA1999999077341MD1610061+9999MW1041REMSYN11876680 31558 20000 10232 20125 37734 40061 56006 70400 82100 92350 333 10255 20093 30/// 50441 56500 59025 70000 82828=
0165766800999992019021103004+19400-099183FM-12+230399999V0200701N001019999999N006000199+01741+01101100631ADDAY101021AY201021GF100995999999999999999999MA1999999077501MD1210161-0321MW1041REMSYN07676680 31956 00701 10174 20110 37750 40063 52016 70400 90250 333 30/// 59032=
0215766800999992019021106004+19400-099183FM-12+230399999V0202701N001019999999N006000199+01541+01071100701ADDAY101021AY201021GF100995999999999999999999KA1240M+02551KA2240N+00931MA1999999077531MD1210031+9999MW1041REMSYN10076680 31956 02701 10154 20107 37753 40070 52003 70400 90550 333 10255 20093 30/// 55097 2//// 59026=
0165766800999992019021109004+19400-099183FM-12+230399999V0209999C999999999999N006000199+01321+00911100791ADDAY101021AY201021GF100995999999999999999999MA1999999077451MD1710091-0331MW1041REMSYN07676680 31956 00000 10132 20091 37745 40079 57009 70400 90855 333 30/// 59033=
0220766800999992019021112004+19400-099183FM-12+230399999V0209999C999999999999N008000199+01161+00901101071ADDAA124000091AY101021AY201021GF100995999999999999999999KA1240M+02551KA2240N+01161MA1999999077461MD1310031-0221MW1041REMSYN09476680 31958 00000 10116 20090 37746 40107 53003 70400 91150 333 10255 20116 30010 59022 70000=
0165766800999992019021115004+19400-099183FM-12+230399999V0200901N002019999999N003000199+01361+00901101311ADDAY141021AY201021GF100995999999999999999999MA1999999077531MD1210071-0241MW1041REMSYN07676680 31930 00902 10136 20090 37753 40131 52007 70440 91450 333 30/// 59024=
0259766800999992019021118004+19400-099183FM-12+230399999V0201901N002012200019N003000199+02161+01191101111ADDAY101021AY201021GA1011+007501081GE19AGL   +99999+99999GF101991011999007501999999KA1120M+02181KA2120N+01161MA1999999077421MD1610151+9999MW1051REMSYN10676680 31530 11902 10216 20119 37742 40111 56015 70500 81100 91750 333 10218 20116 30/// 56500 58027 81825=
0221766800999992019021121004+19400-099183FM-12+230399999V0200901N002012200019N003000199+02441+01331100491ADDAY101021AY201021GA1011+007501081GE19AGL   +99999+99999GF101991011999007501999999MA1999999077111MD1610491+9999MW1051REMSYN09476680 31530 10902 10244 20133 37711 40049 56049 70500 81100 92050 333 30/// 56500 59029 81825=
0326766800999992019021200004+19400-099183FM-12+230399999V0202601N00301024001CN006000199+02241+00931100271ADDAA124000091AY121021AY201021GA1011+007501061GA2031+008101081GA3031+024001031GE19AGL   +99999+99999GF107991011999007501999999KA1120M+02591KA2120N+01161MA1999999077131MD1310021+9999MW1041REMSYN13076680 31556 72603 10224 20093 37713 40027 53002 70420 84870 90000 333 10259 20116 30/// 50681 56110 59021 70000 81625 83827 83358=
0243766800999992019021203004+19400-099183FM-12+230399999V0202401N00401024001CN006000199+01781+01101100381ADDAY121021AY201021GA1021+008101081GA2051+024001041GE19AGL   +99999+99999GF107991021999008101999999MA1999999077341MD1210211+9999MW1041REMSYN10076680 31556 72404 10178 20110 37734 40038 52021 70420 82220 90300 333 30/// 56110 59016 82827 85458=
0165766800999992019021215004+19400-099183FM-12+230399999V0209999C999999999999N003000199+01461+01081101391ADDAY141021AY201021GF100995999999999999999999MA1999999077641MD1310161+0111MW1041REMSYN07676680 31930 00000 10146 20108 37764 40139 53016 70440 91450 333 30/// 58011=
0259766800999992019021218004+19400-099183FM-12+230399999V0203201N003012200019N003000199+01941+01281101301ADDAY101021AY211021GA1031+007501081GE19AGL   +99999+99999GF103991031999007501999999KA1120M+01971KA2120N+01161MA1999999077611MD1610081+9999MW1051REMSYN10676680 31530 33203 10194 20128 37761 40130 56008 70501 83100 91750 333 10197 20116 30/// 56700 58019 83825=
0221766800999992019021221004+19400-099183FM-12+230399999V0203301N004012200019N002000199+02061+01381100871ADDAY101021AY211021GA1041+007501081GE19AGL   +99999+99999GF104991041999007501999999MA1999999077381MD1610161+9999MW1051REMSYN09476680 31520 43304 10206 20138 37738 40087 56016 70501 84100 92050 333 30/// 56100 58027 84825=
0304766800999992019021300004+19400-099183FM-12+230399999V0202301N00201024001CN006000199+01851+01131100771ADDAA124000091AY121021AY201021GA1041+007501061GA2031+024001041GE19AGL   +99999+99999GF107991041999007501999999KA1120M+02161KA2120N+01161MA1999999077411MD1310031+9999MW1041REMSYN12476680 31556 72302 10185 20113 37741 40077 53003 70420 84420 90000 333 10216 20116 30/// 50531 56110 58028 70000 84625 83458=
0217766800999992019021312004+19400-099183FM-12+230399999V0203601N002019999999N002000199+00931+99999101751ADDAA106000431AY101021AY231021GA1999+008001999GE19AGL   +99999+99999GF108991999999008001999999MA1999999077731MD1310041+9999MW1041REMSYN06076680 01520 83602 10093 20175 37773 40175 53004 69941 70403=EQDQ0117.5  2ATOD  
0237766800999992019021315004+19400-099183FM-12+230399999V0209999C99999007501CN002000199+01001+00831102071ADDAY141021AY221021GA1061+007501061GA2999+999999051GE19AGL   +99999+99999GF108991061999007501999999MA1999999077881MD1310151+9999MW1101REMSYN09476680 31520 80000 10100 20083 37788 40207 53015 71042 86520 91450 333 30/// 56110 58024 86625=
0281766800999992019021318004+19400-099183FM-12+230399999V0201201N001012200019N002000199+01681+01191101921ADDAY111021AY211021GA1011+007501081GA2031+024001031GE19AGL   +99999+99999GF104991011999007501999999KA1120M+01761KA2120N+00871MA1999999077811MD1610101+9999MW1051REMSYN11276680 31520 41201 10168 20119 37781 40192 56010 70511 81110 91750 333 10176 20087 30/// 56110 58020 81825 83358=
0243766800999992019021321004+19400-099183FM-12+230399999V0201801N00201008401CN002000199+01981+01391101321ADDAY111021AY211021GA1031+007501081GA2031+008401061GE19AGL   +99999+99999GF106991031999007501999999MA1999999077501MD1610211+9999MW1051REMSYN10076680 31520 61802 10198 20139 37750 40132 56021 70511 86800 92050 333 30/// 56100 58012 83825 83628=
0198766800999992019021400004+19400-099183FM-12+230399999V0202701N004019999999N004000199+01601+01131101191ADDAA106000021AY151021AY221021GA1999+008001999GE19AGL   +99999+99999GF108991999999008001999999MA1999999077541MD1310041+9999MW1501REMSYN06076680 01540 82704 10160 20113 37754 40119 53004 69901 75052=
0260766800999992019021403004+19400-099183FM-12+230399999V0201801N00101024001CN006000199+01381+01191101351ADDAA103000631AY151021AY221021GA1031+007501061GA2051+024001041GE19AGL   +99999+99999GF108991031999007501999999MA1999999077741MD1210201+9999MW1501REMSYN10676680 21556 81801 10138 20119 37774 40135 52020 75052 83420 90300 333 31/// 56110 58002 69967 83625 85458=
0165766800999992019021415004+19400-099183FM-12+230399999V0209999C999999999999N002000199+01341+01121101751ADDAY141021AY201021GF100995999999999999999999MA1999999077771MD1310181-0111MW1051REMSYN07676680 31920 00000 10134 20112 37777 40175 53018 70540 91450 333 30/// 59011=
0259766800999992019021418004+19400-099183FM-12+230399999V0201001N002012200019N002000199+02101+01431101491ADDAY101021AY201021GA1011+007501081GE19AGL   +99999+99999GF101991011999007501999999KA1120M+02151KA2120N+01051MA1999999077671MD1610071+9999MW1051REMSYN10676680 31520 11002 10210 20143 37767 40149 56007 70500 81100 91750 333 10215 20105 30/// 56500 59014 81825=
0243766800999992019021421004+19400-099183FM-12+230399999V0202001N002019999999N003000199+02541+01481100831ADDAY101021AY211021GA1011+007501061GA2041+008401081GE19AGL   +99999+99999GF105991011999007501999999MA1999999077371MD1610171+9999MW1051REMSYN10076680 31530 52002 10254 20148 37737 40083 56017 70501 85800 92050 333 30/// 56500 59013 81625 84828=
0304766800999992019021500004+19400-099183FM-12+230399999V0202601N00301008101CN008000199+02171+01191100581ADDAA124000531AY121021AY201021GA1031+007501061GA2041+008101081GE19AGL   +99999+99999GF107991031999007501999999KA1120M+02661KA2120N+01051MA1999999077391MD1310021+9999MW1041REMSYN12476680 31558 72603 10217 20119 37739 40058 53002 70420 87800 90000 333 10266 20105 30/// 50311 56500 59015 70005 83625 84827=
0221766800999992019021503004+19400-099183FM-12+230399999V0202101N002012200019N006000199+01861+01351100631ADDAY121021AY201021GA1031+024001041GE19AGL   +99999+99999GF103991031999024001999999MA1999999077551MD1210161+9999MW1041REMSYN09476680 31856 32102 10186 20135 37755 40063 52016 70420 83020 90255 333 30/// 56010 59019 83458=
0221766800999992019021509004+19400-099183FM-12+230399999V0202901N00301024001CN006000199+01551+01031100831ADDAY101021AY231021GA1051+024001041GE19AGL   +99999+99999GF105991051999024001999999MA1999999077531MD1610091+9999MW1041REMSYN09476680 31556 52903 10155 20103 37753 40083 56009 70403 85020 90855 333 30/// 56010 58005 85458=
0165766800999992019021515004+19400-099183FM-12+230399999V0201201N001019999999N004000199+01621+01121101261ADDAY101021AY201021GF100995999999999999999999MA1999999077651MD1310101-0121MW1051REMSYN07676680 31940 01201 10162 20112 37765 40126 53010 70500 91450 333 30/// 59012=
0203766800999992019021518004+19400-099183FM-12+230399999V0203201N001019999999N004000199+02321+01431101071ADDAY101021AY201021GF100995999999999999999999KA1120M+02401KA2120N+01361MA1999999077561MD1610101-0111MW1051REMSYN08876680 31940 03201 10232 20143 37756 40107 56010 70500 91750 333 10240 20136 30/// 59011=
0221766800999992019021521004+19400-099183FM-12+230399999V0203301N001012200019N004000199+02661+01461100511ADDAY101021AY201021GA1011+007501081GE19AGL   +99999+99999GF101991011999007501999999MA1999999077311MD1610511+9999MW1051REMSYN09476680 31540 13301 10266 20146 37731 40051 56051 70500 81100 92050 333 30/// 56500 59006 81825=
0304766800999992019021600004+19400-099183FM-12+230399999V0200101N00101024001CN006000199+02591+01021100211ADDAA124000091AY121021AY201021GA1021+008101081GA2031+024001041GE19AGL   +99999+99999GF105991021999008101999999KA1120M+02831KA2120N+01361MA1999999077291MD1310021+9999MW1041REMSYN12476680 31556 50101 10259 20102 37729 40021 53002 70420 82220 90000 333 10283 20136 30/// 50611 56550 59010 70000 82827 83458=
0215766800999992019021603004+19400-099183FM-12+230399999V0201101N001019999999N008000199+01991+01321100361ADDAY101021AY201021GA1001+999999999GE19AGL   +99999+99999GF100995001999999999999999MA1999999077511MD1210221+9999MW1041REMSYN08876680 31958 01101 10199 20132 37751 40036 52022 70400 80000 90300 333 30/// 56/// 59004=
0165766800999992019021615004+19400-099183FM-12+230399999V0203401N001019999999N003000199+01581+01151101151ADDAY141021AY201021GF100995999999999999999999MA1999999077591MD1310101-0061MW1041REMSYN07676680 31930 03401 10158 20115 37759 40115 53010 70440 91450 333 30/// 59006=
0203766800999992019021618004+19400-099183FM-12+230399999V0201401N002019999999N004000199+02481+01641100981ADDAY141021AY201021GF100995999999999999999999KA1120M+02551KA2120N+01281MA1999999077511MD1990081-0051MW1041REMSYN08876680 31940 01402 10248 20164 37751 40098 50008 70440 91750 333 10255 20128 30/// 59005=
0221766800999992019021621004+19400-099183FM-12+230399999V0201501N001012200019N010000199+02891+01341100281ADDAY101021AY201021GA1021+008101081GE19AGL   +99999+99999GF102991021999008101999999MA1999999077151MD1710361+9999MW1041REMSYN09476680 31560 21501 10289 20134 37715 40028 57036 70400 82200 92105 333 30/// 56500 59016 82827=
0298766800999992019021700004+19400-099183FM-12+230399999V0200201N003012200019N010000199+02671+01421099941ADDAA124000091AY121021AY201021GA1021+008101081GA2999+999999051GE19AGL   +99999+99999GF103991021999008101999999KA1120M+03021KA2120N+01281MA1999999077121MD1510031+9999MW1041REMSYN11876680 31560 30203 10267 20142 37712 49994 55003 70420 82220 90000 333 10302 20128 30/// 50571 56550 59017 70000 82827=
0215766800999992019021703004+19400-099183FM-12+230399999V0201401N001019999999N010000199+02131+01251100031ADDAY101021AY201021GA1001+999999999GE19AGL   +99999+99999GF100995001999999999999999MA1999999077341MD1210221+9999MW1041REMSYN08876680 31960 01401 10213 20125 37734 40003 52022 70400 80000 90300 333 30/// 56/// 59017=
0165766800999992019021709004+19400-099183FM-12+230399999V0202301N001019999999N010000199+01661+01151100321ADDAY101021AY201021GF100995999999999999999999MA1999999077351MD1610061-0181MW1041REMSYN07676680 31960 02301 10166 20115 37735 40032 56006 70400 90855 333 30/// 59018=
0220766800999992019021712004+19400-099183FM-12+230399999V0209999C999999999999N008000199+01451+01091101071ADDAA124000091AY101021AY201021GF100995999999999999999999KA1240M+03021KA2240N+01451MA1999999077351MD1310011-0151MW1041REMSYN09476680 31958 00000 10145 20109 37735 40107 53001 70400 91150 333 10302 20145 30013 59015 70000=
0165766800999992019021715004+19400-099183FM-12+230399999V0209999C999999999999N005000199+01801+01091101021ADDAY101021AY201021GF100995999999999999999999MA1999999077541MD1210181-0051MW1041REMSYN07676680 31950 00000 10180 20109 37754 40102 52018 70400 91450 333 30/// 59005=
0203766800999992019021718004+19400-099183FM-12+230399999V0201601N002019999999N005000199+02601+01451100821ADDAY101021AY201021GF100995999999999999999999KA1120M+02661KA2120N+01401MA1999999077461MD1810081-0051MW1041REMSYN08876680 31950 01602 10260 20145 37746 40082 58008 70400 91750 333 10266 20140 30/// 59005=
0221766800999992019021721004+19400-099183FM-12+230399999V0200501N002012200019N005000199+02901+01501100241ADDAY101021AY201021GA1011+008101081GE19AGL   +99999+99999GF101991011999008101999999MA1999999077201MD1710261+9999MW1041REMSYN09476680 31550 10502 10290 20150 37720 40024 57026 70400 81100 92050 333 30/// 56500 58005 81827=
0226766800999992019021800004+19400-099183FM-12+230399999V0200501N003019999999N004000199+02661+01421099991ADDAA124000091AY101021AY201021GF100995999999999999999999KA1120M+03061KA2120N+01401MA1999999077221MD1310021+9999MW1041REMSYN10076680 31940 00503 10266 20142 37722 49999 53002 70400 90000 333 10306 20140 30/// 50551 58010 70000=
0165766800999992019021803004+19400-099183FM-12+230399999V0201401N001019999999N008000199+02101+01121100141ADDAY101021AY201021GF100995999999999999999999MA1999999077441MD1210221+0101MW1041REMSYN07676680 31958 01401 10210 20112 37744 40014 52022 70400 90250 333 30/// 58010=
0165766800999992019021815004+19400-099183FM-12+230399999V0200901N001019999999N003000199+01661+01071101181ADDAY141021AY201021GF100995999999999999999999MA1999999077631MD1310141+0271MW1041REMSYN07676680 31930 00901 10166 20107 37763 40118 53014 70440 91450 333 30/// 58027=
0203766800999992019021818004+19400-099183FM-12+230399999V0201701N001019999999N002000199+02521+01491101101ADDAY101021AY201021GF100995999999999999999999KA1120M+02601KA2120N+01261MA1999999077541MD1610111+0081MW1051REMSYN08876680 31920 01701 10252 20149 37754 40110 56011 70500 91750 333 10260 20126 30/// 58008=
0221766800999992019021821004+19400-099183FM-12+230399999V0201701N004012200019N020000199+02981+01221100371ADDAY101021AY201021GA1011+007501081GE19AGL   +99999+99999GF101991011999007501999999MA1999999077271MD1610151+9999MW1051REMSYN09476680 31570 11704 10298 20122 37727 40037 56015 70500 81100 92050 333 30/// 56100 58007 81825=
0226766800999992019021900004+19400-099183FM-12+230399999V0201201N003019999999N020000199+02681+01381100081ADDAA124000091AY101021AY201021GF100995999999999999999999KA1120M+03071KA2120N+01261MA1999999077271MD1510011+9999MW1041REMSYN10076680 31970 01203 10268 20138 37727 40008 55001 70400 90000 333 10307 20126 30/// 50651 58005 70000=
0215766800999992019021906004+19400-099183FM-12+230399999V0203601N002019999999N014000199+01801+01041100221ADDAY101021AY201021GF100995999999999999999999KA1240M+03071KA2240N+01261MA1999999077541MD1110011+9999MW1041REMSYN10076680 31964 03602 10180 20104 37754 40022 51001 70400 90550 333 10307 20126 30/// 55108 21542 58004=
0165766800999992019021909004+19400-099183FM-12+230399999V0203601N001019999999N014000199+01501+00881100521ADDAY101021AY201021GF100995999999999999999999MA1999999077441MD1510101-0081MW1041REMSYN07676680 31964 03601 10150 20088 37744 40052 55010 70400 90855 333 30/// 59008=
0220766800999992019021912004+19400-099183FM-12+230399999V0209999C999999999999N014000199+01341+00881100971ADDAA124000091AY101021AY201021GF100995999999999999999999KA1240M+03071KA2240N+01341MA1999999077421MD1610021-0071MW1041REMSYN09476680 31964 00000 10134 20088 37742 40097 56002 70400 91150 333 10307 20134 30011 59007 70000=
0165766800999992019021915004+19400-099183FM-12+230399999V0203601N002019999999N004000199+01661+00961101211ADDAY141021AY201021GF100995999999999999999999MA1999999077581MD1310161-0051MW1041REMSYN07676680 31940 03602 10166 20096 37758 40121 53016 70440 91450 333 30/// 59005=
0203766800999992019021918004+19400-099183FM-12+230399999V0200401N002019999999N020000199+02601+01051100961ADDAY101021AY201021GF100995999999999999999999KA1120M+02661KA2120N+01221MA1999999077481MD1610131-0061MW1051REMSYN08876680 31970 00402 10260 20105 37748 40096 56013 70500 91750 333 10266 20122 30/// 59006=
0221766800999992019021921004+19400-099183FM-12+230399999V0202101N004012200019N020000199+02601+00971100461ADDAY101021AY201021GA1011+007501081GE19AGL   +99999+99999GF101991011999007501999999MA1999999077271MD1610461+9999MW1051REMSYN09476680 31570 12104 10260 20097 37727 40046 56046 70500 81100 92050 333 30/// 56300 58000 81825=
0276766800999992019022000004+19400-099183FM-12+230399999V0202201N003019999999N020000199+02391+00651100231ADDAA124000091AY101021AY201021GA1001+999999999GE19AGL   +99999+99999GF100995001999999999999999KA1120M+02801KA2120N+01221MA1999999077281MD1310011+9999MW1001REMSYN11276680 31970 02203 10239 20065 37728 40023 53001 70000 80000 90000 333 10280 20122 30/// 50811 56/// 58001 70000=
0215766800999992019022003004+19400-099183FM-12+230399999V0201001N001019999999N012000199+01801+00411100351ADDAY101021AY201021GA1001+999999999GE19AGL   +99999+99999GF100995001999999999999999MA1999999077471MD1210191+9999MW1001REMSYN08876680 31962 01001 10180 20041 37747 40035 52019 70000 80000 90300 333 30/// 56/// 58021=
0165766800999992019022015004+19400-099183FM-12+230399999V0203601N001019999999N010000199+01521+00761101111ADDAY141021AY201021GF100995999999999999999999MA1999999077411MD1310111-0171MW1041REMSYN07676680 31960 03601 10152 20076 37741 40111 53011 70440 91450 333 30/// 59017=
0203766800999992019022018004+19400-099183FM-12+230399999V0201601N002019999999N020000199+02261+01281100921ADDAY101021AY201021GF100995999999999999999999KA1120M+02351KA2120N+01051MA1999999077341MD1610091-0141MW1051REMSYN08876680 31970 01602 10226 20128 37734 40092 56009 70500 91750 333 10235 20105 30/// 59014=
0221766800999992019022021004+19400-099183FM-12+230399999V0200401N006012200019N020000199+02521+01141100281ADDAY101021AY201021GA1011+008401081GE19AGL   +99999+99999GF101991011999008401999999MA1999999077041MD1610181+9999MW1051REMSYN09476680 31570 10406 10252 20114 37704 40028 56018 70500 81100 92050 333 30/// 56100 59023 81828=
0282766800999992019022100004+19400-099183FM-12+230399999V0202101N007012200019N020000199+02291+00871100051ADDAA124000091AY111021AY201021GA1011+008101081GE19AGL   +99999+99999GF101991011999008101999999KA1120M+02771KA2120N+01051MA1999999077061MD1310021+9999MW1041REMSYN11876680 31570 12107 10229 20087 37706 40005 53002 70410 81200 90000 333 10277 20105 30/// 50751 56500 59022 70000 81827=
0228766800999992019022103004+19400-099183FM-12+230399999V0201701N002019999999N018000199+01961+00761999999ADDAY101021AY201021GA1001+999999999GE19AGL   +99999+99999GF100995001999999999999999MA1999999077281MD1210221-0191MW1041REMSYN08276680 31968 01702 10196 20076 37728 40115 52022 70400 80000 90300 333 30/// 59019=EQDQ011011.53APOSLP
0215766800999992019022106004+19400-099183FM-12+230399999V0203301N002019999999N016000199+01601+00891100351ADDAY101021AY201021GF100995999999999999999999KA1240M+02771KA2240N+01051MA1999999077371MD1210091+9999MW1041REMSYN10076680 31966 03302 10160 20089 37737 40035 52009 70400 90550 333 10277 20105 30/// 55108 21964 59005=
0165766800999992019022109004+19400-099183FM-12+230399999V0209999C999999999999N016000199+01421+00751100401ADDAY101021AY201021GF100995999999999999999999MA1999999077231MD1610141-0151MW1041REMSYN07676680 31966 00000 10142 20075 37723 40040 56014 70400 90855 333 30/// 59015=
0220766800999992019022112004+19400-099183FM-12+230399999V0203601N001019999999N016000199+01371+00791100641ADDAA124000091AY101021AY201021GF100995999999999999999999KA1240M+02771KA2240N+01351MA1999999077231MD1410001-0071MW1041REMSYN09476680 31966 03601 10137 20079 37723 40064 54000 70400 91150 333 10277 20135 30012 59007 70000=
0165766800999992019022115004+19400-099183FM-12+230399999V0203601N004019999999N012000199+01721+00881100991ADDAY141021AY201021GF100995999999999999999999MA1999999077401MD1310171-0011MW1041REMSYN07676680 31962 03604 10172 20088 37740 40099 53017 70440 91450 333 30/// 59001=
0203766800999992019022118004+19400-099183FM-12+230399999V0200701N002019999999N020000199+02461+01101100821ADDAY101021AY201021GF100995999999999999999999KA1120M+02541KA2120N+01261MA1999999077351MD1610081-0141MW1051REMSYN08876680 31970 00702 10246 20110 37735 40082 56008 70500 91750 333 10254 20126 30/// 59014=
0237766800999992019022121004+19400-099183FM-12+230399999V0202201N003012200019N020000199+02541+01011100361ADDAY101021AY201021GA1011+008401081GA2999+999999001GE19AGL   +99999+99999GF102991011999008401999999MA1999999077181MD1610081+9999MW1051REMSYN09476680 31570 22203 10254 20101 37718 40036 56008 70500 81101 92050 333 30/// 56505 58014 81828=
0165766800999992019022203004+19400-099183FM-12+230399999V0202601N005019999999N015000199+01761+00491100361ADDAY101021AY201021GF100995999999999999999999MA1999999077431MD1210191+0151MW1001REMSYN07676680 31965 02605 10176 20049 37743 40036 52019 70000 90300 333 30/// 58015=
0237766800999992019022215004+19400-099183FM-12+230399999V0203601N002012200019N008000199+01561+00881101351ADDAY141021AY201021GA1011+024001031GA2999+999999021GE19AGL   +99999+99999GF103991011999024001999999MA1999999077611MD1310131+9999MW1041REMSYN09476680 31858 33602 10156 20088 37761 40135 53013 70440 81036 91450 333 30/// 56055 58021 81358=
0281766800999992019022218004+19400-099183FM-12+230399999V0202301N003019999999N008000199+02381+01361101181ADDAY141021AY221021GA1021+024001041GA2031+057001021GE19AGL   +99999+99999GF105991021999024001999999KA1120M+02421KA2120N+01101MA1999999077551MD1990061+9999MW1041REMSYN11276680 31558 52303 10238 20136 37755 40118 50006 70442 82028 91750 333 10242 20110 30/// 56055 58020 82458 83269=
0243766800999992019022221004+19400-099183FM-12+230399999V0200401N00101024001CN020000199+02581+01221100631ADDAY121021AY201021GA1011+008101081GA2071+024001041GE19AGL   +99999+99999GF108991011999008101999999MA1999999077321MD1710231+9999MW1041REMSYN10076680 31570 80401 10258 20122 37732 40063 57023 70420 81220 92100 333 30/// 56550 58014 81827 87458=
0326766800999992019022300004+19400-099183FM-12+230399999V0202601N00401024001CN015000199+02281+01021100471ADDAA124000091AY121021AY201021GA1021+008101081GA2031+024001041GA3031+060001001GE19AGL   +99999+99999GF108991021999008101999999KA1120M+02711KA2120N+01101MA1999999077381MD1310061+9999MW1041REMSYN13076680 31565 82604 10228 20102 37738 40047 53006 70420 82221 90000 333 10271 20110 30/// 50651 56555 58014 70000 82827 83458 83070=
0243766800999992019022303004+19400-099183FM-12+230399999V0202401N00401024001CN012000199+01981+00921100561ADDAY121021AY201021GA1031+024001041GA2041+024001031GE19AGL   +99999+99999GF107991031999024001999999MA1999999077581MD1210201+9999MW1041REMSYN10076680 31862 72404 10198 20092 37758 40056 52020 70420 87070 90300 333 30/// 56050 58015 83458 84358=
0293766800999992019022306004+19400-099183FM-12+230399999V0202301N00201024001CN012000199+01761+01081100681ADDAY101021AY231021GA1031+024001031GA2041+024001041GE19AGL   +99999+99999GF107991031999024001999999KA1240M+02711KA2240N+01101MA1999999077621MD1110041+9999MW1041REMSYN12476680 31862 72302 10176 20108 37762 40068 51004 70403 87070 90550 333 10271 20110 30/// 55093 21360 56050 58018 83358 84458=
0308766800999992019022312004+19400-099183FM-12+230399999V0209999C999992200019N008000199+01361+00901101061ADDAA124000091AY101021AY211021GA1021+024001031GA2999+999999031GA3999+999999021GE19AGL   +99999+99999GF102991021999024001999999KA1240M+02711KA2240N+01361MA1999999077611MD1310041+9999MW1041REMSYN11276680 31858 22300 10136 20090 37761 40106 53004 70401 82358 91150 333 10271 20136 30012 56050 58013 70000 82358=
0221766800999992019022315004+19400-099183FM-12+230399999V0203601N001012200019N004000199+01601+01001101441ADDAY141021AY201021GA1031+057001021GE19AGL   +99999+99999GF103991031999057001999999MA1999999077791MD1310181+9999MW1041REMSYN09476680 31940 33601 10160 20100 37779 40144 53018 70440 80008 91450 333 30/// 56005 58018 83269=
0291766800999992019022318004+19400-099183FM-12+230399999V0200501N002019999999N004000199+02121+01161101291ADDAY101021AY211021GA1011+008401081GA2999+999999041GA3999+999999021GE19AGL   +99999+99999GF106991011999008401999999KA1120M+02211KA2120N+01201MA1999999077701MD1810091+9999MW1051REMSYN10676680 31540 60502 10212 20116 37770 40129 58009 70501 81118 91750 333 10221 20120 30/// 56555 58015 81828=
